{
  "contractName": "QuicMasterStorage",
  "abi": [
    {
      "anonymous": false,
      "inputs": [
        {
          "indexed": true,
          "internalType": "address",
          "name": "user",
          "type": "address"
        },
        {
          "indexed": true,
          "internalType": "uint256",
          "name": "pid",
          "type": "uint256"
        },
        {
          "indexed": false,
          "internalType": "uint256",
          "name": "amount",
          "type": "uint256"
        }
      ],
      "name": "Deposit",
      "type": "event"
    },
    {
      "anonymous": false,
      "inputs": [
        {
          "indexed": true,
          "internalType": "address",
          "name": "user",
          "type": "address"
        },
        {
          "indexed": true,
          "internalType": "uint256",
          "name": "pid",
          "type": "uint256"
        },
        {
          "indexed": false,
          "internalType": "uint256",
          "name": "amount",
          "type": "uint256"
        }
      ],
      "name": "EmergencyWithdraw",
      "type": "event"
    },
    {
      "anonymous": false,
      "inputs": [
        {
          "indexed": true,
          "internalType": "address",
          "name": "user",
          "type": "address"
        },
        {
          "indexed": true,
          "internalType": "uint256",
          "name": "pid",
          "type": "uint256"
        },
        {
          "indexed": false,
          "internalType": "uint256",
          "name": "amount",
          "type": "uint256"
        },
        {
          "indexed": false,
          "internalType": "uint256",
          "name": "lockAmount",
          "type": "uint256"
        }
      ],
      "name": "SendQuicReward",
      "type": "event"
    },
    {
      "anonymous": false,
      "inputs": [
        {
          "indexed": true,
          "internalType": "address",
          "name": "user",
          "type": "address"
        },
        {
          "indexed": true,
          "internalType": "uint256",
          "name": "pid",
          "type": "uint256"
        },
        {
          "indexed": false,
          "internalType": "uint256",
          "name": "amount",
          "type": "uint256"
        }
      ],
      "name": "Withdraw",
      "type": "event"
    },
    {
      "inputs": [],
      "name": "FINISH_BONUS_AT_BLOCK",
      "outputs": [
        {
          "internalType": "uint256",
          "name": "",
          "type": "uint256"
        }
      ],
      "stateMutability": "view",
      "type": "function"
    },
    {
      "inputs": [],
      "name": "HALVING_AFTER",
      "outputs": [
        {
          "internalType": "uint256",
          "name": "",
          "type": "uint256"
        }
      ],
      "stateMutability": "view",
      "type": "function"
    },
    {
      "inputs": [
        {
          "internalType": "uint256",
          "name": "",
          "type": "uint256"
        }
      ],
      "name": "HALVING_AT_BLOCK",
      "outputs": [
        {
          "internalType": "uint256",
          "name": "",
          "type": "uint256"
        }
      ],
      "stateMutability": "view",
      "type": "function"
    },
    {
      "inputs": [],
      "name": "PERCENT_FOR_COM",
      "outputs": [
        {
          "internalType": "uint256",
          "name": "",
          "type": "uint256"
        }
      ],
      "stateMutability": "view",
      "type": "function"
    },
    {
      "inputs": [],
      "name": "PERCENT_FOR_DEV",
      "outputs": [
        {
          "internalType": "uint256",
          "name": "",
          "type": "uint256"
        }
      ],
      "stateMutability": "view",
      "type": "function"
    },
    {
      "inputs": [],
      "name": "PERCENT_FOR_FOUNDERS",
      "outputs": [
        {
          "internalType": "uint256",
          "name": "",
          "type": "uint256"
        }
      ],
      "stateMutability": "view",
      "type": "function"
    },
    {
      "inputs": [],
      "name": "PERCENT_FOR_LP",
      "outputs": [
        {
          "internalType": "uint256",
          "name": "",
          "type": "uint256"
        }
      ],
      "stateMutability": "view",
      "type": "function"
    },
    {
      "inputs": [],
      "name": "PERCENT_LOCK_BONUS_REWARD",
      "outputs": [
        {
          "internalType": "uint256",
          "name": "",
          "type": "uint256"
        }
      ],
      "stateMutability": "view",
      "type": "function"
    },
    {
      "inputs": [],
      "name": "Quic",
      "outputs": [
        {
          "internalType": "contract QuicToken",
          "name": "",
          "type": "address"
        }
      ],
      "stateMutability": "view",
      "type": "function"
    },
    {
      "inputs": [
        {
          "internalType": "uint256",
          "name": "",
          "type": "uint256"
        }
      ],
      "name": "REWARD_MULTIPLIER",
      "outputs": [
        {
          "internalType": "uint256",
          "name": "",
          "type": "uint256"
        }
      ],
      "stateMutability": "view",
      "type": "function"
    },
    {
      "inputs": [],
      "name": "REWARD_PER_BLOCK",
      "outputs": [
        {
          "internalType": "uint256",
          "name": "",
          "type": "uint256"
        }
      ],
      "stateMutability": "view",
      "type": "function"
    },
    {
      "inputs": [],
      "name": "START_BLOCK",
      "outputs": [
        {
          "internalType": "uint256",
          "name": "",
          "type": "uint256"
        }
      ],
      "stateMutability": "view",
      "type": "function"
    },
    {
      "inputs": [
        {
          "internalType": "uint256",
          "name": "",
          "type": "uint256"
        }
      ],
      "name": "blockDeltaEndStage",
      "outputs": [
        {
          "internalType": "uint256",
          "name": "",
          "type": "uint256"
        }
      ],
      "stateMutability": "view",
      "type": "function"
    },
    {
      "inputs": [
        {
          "internalType": "uint256",
          "name": "",
          "type": "uint256"
        }
      ],
      "name": "blockDeltaStartStage",
      "outputs": [
        {
          "internalType": "uint256",
          "name": "",
          "type": "uint256"
        }
      ],
      "stateMutability": "view",
      "type": "function"
    },
    {
      "inputs": [],
      "name": "comfundaddr",
      "outputs": [
        {
          "internalType": "address",
          "name": "",
          "type": "address"
        }
      ],
      "stateMutability": "view",
      "type": "function"
    },
    {
      "inputs": [
        {
          "internalType": "uint256",
          "name": "",
          "type": "uint256"
        }
      ],
      "name": "devFeeStage",
      "outputs": [
        {
          "internalType": "uint256",
          "name": "",
          "type": "uint256"
        }
      ],
      "stateMutability": "view",
      "type": "function"
    },
    {
      "inputs": [],
      "name": "devaddr",
      "outputs": [
        {
          "internalType": "address",
          "name": "",
          "type": "address"
        }
      ],
      "stateMutability": "view",
      "type": "function"
    },
    {
      "inputs": [],
      "name": "founderaddr",
      "outputs": [
        {
          "internalType": "address",
          "name": "",
          "type": "address"
        }
      ],
      "stateMutability": "view",
      "type": "function"
    },
    {
      "inputs": [],
      "name": "liquidityaddr",
      "outputs": [
        {
          "internalType": "address",
          "name": "",
          "type": "address"
        }
      ],
      "stateMutability": "view",
      "type": "function"
    },
    {
      "inputs": [],
      "name": "migrator",
      "outputs": [
        {
          "internalType": "contract IMigratorToQuicSwap",
          "name": "",
          "type": "address"
        }
      ],
      "stateMutability": "view",
      "type": "function"
    },
    {
      "inputs": [
        {
          "internalType": "address",
          "name": "",
          "type": "address"
        }
      ],
      "name": "poolId1",
      "outputs": [
        {
          "internalType": "uint256",
          "name": "",
          "type": "uint256"
        }
      ],
      "stateMutability": "view",
      "type": "function"
    },
    {
      "inputs": [
        {
          "internalType": "uint256",
          "name": "",
          "type": "uint256"
        }
      ],
      "name": "poolInfo",
      "outputs": [
        {
          "internalType": "contract IERC20",
          "name": "lpToken",
          "type": "address"
        },
        {
          "internalType": "uint256",
          "name": "allocPoint",
          "type": "uint256"
        },
        {
          "internalType": "uint256",
          "name": "lastRewardBlock",
          "type": "uint256"
        },
        {
          "internalType": "uint256",
          "name": "accQuicPerShare",
          "type": "uint256"
        }
      ],
      "stateMutability": "view",
      "type": "function"
    },
    {
      "inputs": [],
      "name": "totalAllocPoint",
      "outputs": [
        {
          "internalType": "uint256",
          "name": "",
          "type": "uint256"
        }
      ],
      "stateMutability": "view",
      "type": "function"
    },
    {
      "inputs": [],
      "name": "usdOracle",
      "outputs": [
        {
          "internalType": "address",
          "name": "",
          "type": "address"
        }
      ],
      "stateMutability": "view",
      "type": "function"
    },
    {
      "inputs": [],
      "name": "userDepFee",
      "outputs": [
        {
          "internalType": "uint256",
          "name": "",
          "type": "uint256"
        }
      ],
      "stateMutability": "view",
      "type": "function"
    },
    {
      "inputs": [
        {
          "internalType": "uint256",
          "name": "",
          "type": "uint256"
        }
      ],
      "name": "userFeeStage",
      "outputs": [
        {
          "internalType": "uint256",
          "name": "",
          "type": "uint256"
        }
      ],
      "stateMutability": "view",
      "type": "function"
    },
    {
      "inputs": [
        {
          "internalType": "address",
          "name": "",
          "type": "address"
        }
      ],
      "name": "userGlobalInfo",
      "outputs": [
        {
          "internalType": "uint256",
          "name": "globalAmount",
          "type": "uint256"
        },
        {
          "internalType": "uint256",
          "name": "totalReferals",
          "type": "uint256"
        },
        {
          "internalType": "uint256",
          "name": "globalRefAmount",
          "type": "uint256"
        }
      ],
      "stateMutability": "view",
      "type": "function"
    },
    {
      "inputs": [
        {
          "internalType": "uint256",
          "name": "",
          "type": "uint256"
        },
        {
          "internalType": "address",
          "name": "",
          "type": "address"
        }
      ],
      "name": "userInfo",
      "outputs": [
        {
          "internalType": "uint256",
          "name": "amount",
          "type": "uint256"
        },
        {
          "internalType": "uint256",
          "name": "rewardDebt",
          "type": "uint256"
        },
        {
          "internalType": "uint256",
          "name": "rewardDebtAtBlock",
          "type": "uint256"
        },
        {
          "internalType": "uint256",
          "name": "lastWithdrawBlock",
          "type": "uint256"
        },
        {
          "internalType": "uint256",
          "name": "firstDepositBlock",
          "type": "uint256"
        },
        {
          "internalType": "uint256",
          "name": "blockdelta",
          "type": "uint256"
        },
        {
          "internalType": "uint256",
          "name": "lastDepositBlock",
          "type": "uint256"
        }
      ],
      "stateMutability": "view",
      "type": "function"
    }
  ],
  "bytecode": "0x608060405260405180610cc0016040528061100061ffff16815260200161080061ffff16815260200161080061ffff16815260200161040061ffff16815260200161040061ffff16815260200161020061ffff16815260200161020061ffff16815260200161010061ffff16815260200161010061ffff16815260200161010061ffff16815260200161010061ffff16815260200161010061ffff16815260200161010061ffff16815260200161010061ffff16815260200161010061ffff168152602001608061ffff168152602001608061ffff168152602001608061ffff168152602001608061ffff168152602001608061ffff168152602001608061ffff168152602001608061ffff168152602001608061ffff168152602001608061ffff168152602001604061ffff168152602001604061ffff168152602001604061ffff168152602001604061ffff168152602001604061ffff168152602001604061ffff168152602001604061ffff168152602001604061ffff168152602001604061ffff168152602001604061ffff168152602001604061ffff168152602001601061ffff168152602001600861ffff168152602001600861ffff168152602001600861ffff168152602001600861ffff168152602001602061ffff168152602001602061ffff168152602001604061ffff168152602001604061ffff168152602001604061ffff168152602001608061ffff168152602001608061ffff168152602001608061ffff168152602001608061ffff168152602001608061ffff168152602001608061ffff168152602001608061ffff168152602001608061ffff168152602001608061ffff168152602001608061ffff16815260200161010061ffff16815260200161010061ffff16815260200161010061ffff168152602001608061ffff168152602001608061ffff168152602001608061ffff168152602001608061ffff168152602001608061ffff168152602001608061ffff168152602001608061ffff168152602001608061ffff168152602001608061ffff168152602001604061ffff168152602001604061ffff168152602001604061ffff168152602001604061ffff168152602001604061ffff168152602001604061ffff168152602001604061ffff168152602001604061ffff168152602001604061ffff168152602001604061ffff168152602001604061ffff168152602001602061ffff168152602001602061ffff168152602001602061ffff168152602001602061ffff168152602001602061ffff168152602001602061ffff168152602001602061ffff168152602001602061ffff168152602001602061ffff168152602001602061ffff168152602001602061ffff168152602001602061ffff168152602001602061ffff168152602001601061ffff168152602001601061ffff168152602001601061ffff168152602001601061ffff168152602001600861ffff168152602001600861ffff168152602001600861ffff168152602001600461ffff168152602001600261ffff168152602001600161ffff168152602001600061ffff1681525060079060666104929291906104aa565b506000601b553480156104a457600080fd5b5061051a565b8280548282559060005260206000209081019282156104ec579160200282015b828111156104eb578251829061ffff169055916020019190600101906104ca565b5b5090506104f991906104fd565b5090565b5b808211156105165760008160009055506001016104fe565b5090565b610af6806105296000396000f3fe608060405234801561001057600080fd5b50600436106101c45760003560e01c806395fdf258116100f9578063cb0b8ca111610097578063d49e77cd11610071578063d49e77cd146106d6578063d9608d8a1461070a578063ec12173d14610770578063ed9bdeda146107a4576101c4565b8063cb0b8ca1146105fa578063ce2529c91461063c578063d007db2914610694576101c4565b8063a02306f9116100d3578063a02306f914610548578063beff2a5314610566578063c6929e53146105a8578063c8a4271f146105c6576101c4565b806395fdf258146104ee578063975532dc1461050c578063980c2a981461052a576101c4565b80633c9d9267116101665780636245f084116101405780636245f084146103ce5780637cd07e471461041057806382796e981461044457806393f1a40b14610462576101c4565b80633c9d92671461033a5780634179b4fb1461036e57806353ac0dab146103b0576101c4565b806322a376b0116101a257806322a376b0146102725780632710b33f146102a65780632fda7735146102da57806339b3e8261461031c576101c4565b80630a67d518146101c95780631526fe27146101e757806317caf6f114610254575b600080fd5b6101d16107c2565b6040518082815260200191505060405180910390f35b610213600480360360208110156101fd57600080fd5b81019080803590602001909291905050506107c8565b604051808573ffffffffffffffffffffffffffffffffffffffff16815260200184815260200183815260200182815260200194505050505060405180910390f35b61025c610825565b6040518082815260200191505060405180910390f35b61027a61082b565b604051808273ffffffffffffffffffffffffffffffffffffffff16815260200191505060405180910390f35b6102ae610851565b604051808273ffffffffffffffffffffffffffffffffffffffff16815260200191505060405180910390f35b610306600480360360208110156102f057600080fd5b8101908080359060200190929190505050610875565b6040518082815260200191505060405180910390f35b610324610896565b6040518082815260200191505060405180910390f35b61034261089c565b604051808273ffffffffffffffffffffffffffffffffffffffff16815260200191505060405180910390f35b61039a6004803603602081101561038457600080fd5b81019080803590602001909291905050506108c2565b6040518082815260200191505060405180910390f35b6103b86108e3565b6040518082815260200191505060405180910390f35b6103fa600480360360208110156103e457600080fd5b81019080803590602001909291905050506108e9565b6040518082815260200191505060405180910390f35b61041861090a565b604051808273ffffffffffffffffffffffffffffffffffffffff16815260200191505060405180910390f35b61044c610930565b6040518082815260200191505060405180910390f35b6104ae6004803603604081101561047857600080fd5b8101908080359060200190929190803573ffffffffffffffffffffffffffffffffffffffff169060200190929190505050610936565b6040518088815260200187815260200186815260200185815260200184815260200183815260200182815260200197505050505050505060405180910390f35b6104f6610985565b6040518082815260200191505060405180910390f35b61051461098b565b6040518082815260200191505060405180910390f35b610532610991565b6040518082815260200191505060405180910390f35b610550610997565b6040518082815260200191505060405180910390f35b6105926004803603602081101561057c57600080fd5b810190808035906020019092919050505061099d565b6040518082815260200191505060405180910390f35b6105b06109be565b6040518082815260200191505060405180910390f35b6105ce6109c4565b604051808273ffffffffffffffffffffffffffffffffffffffff16815260200191505060405180910390f35b6106266004803603602081101561061057600080fd5b81019080803590602001909291905050506109ea565b6040518082815260200191505060405180910390f35b61067e6004803603602081101561065257600080fd5b81019080803573ffffffffffffffffffffffffffffffffffffffff169060200190929190505050610a0b565b6040518082815260200191505060405180910390f35b6106c0600480360360208110156106aa57600080fd5b8101908080359060200190929190505050610a23565b6040518082815260200191505060405180910390f35b6106de610a44565b604051808273ffffffffffffffffffffffffffffffffffffffff16815260200191505060405180910390f35b61074c6004803603602081101561072057600080fd5b81019080803573ffffffffffffffffffffffffffffffffffffffff169060200190929190505050610a6a565b60405180848152602001838152602001828152602001935050505060405180910390f35b610778610a94565b604051808273ffffffffffffffffffffffffffffffffffffffff16815260200191505060405180910390f35b6107ac610aba565b6040518082815260200191505060405180910390f35b60125481565b601781815481106107d557fe5b90600052602060002090600402016000915090508060000160009054906101000a900473ffffffffffffffffffffffffffffffffffffffff16908060010154908060020154908060030154905084565b601b5481565b600360009054906101000a900473ffffffffffffffffffffffffffffffffffffffff1681565b60008054906101000a900473ffffffffffffffffffffffffffffffffffffffff1681565b6007818154811061088257fe5b906000526020600020016000915090505481565b600f5481565b600460009054906101000a900473ffffffffffffffffffffffffffffffffffffffff1681565b600881815481106108cf57fe5b906000526020600020016000915090505481565b60155481565b600981815481106108f657fe5b906000526020600020016000915090505481565b601660009054906101000a900473ffffffffffffffffffffffffffffffffffffffff1681565b600e5481565b6019602052816000526040600020602052806000526040600020600091509150508060000154908060010154908060020154908060030154908060040154908060050154908060060154905087565b60105481565b60065481565b600d5481565b60135481565b600c81815481106109aa57fe5b906000526020600020016000915090505481565b60145481565b600160009054906101000a900473ffffffffffffffffffffffffffffffffffffffff1681565b600a81815481106109f757fe5b906000526020600020016000915090505481565b60186020528060005260406000206000915090505481565b600b8181548110610a3057fe5b906000526020600020016000915090505481565b600260009054906101000a900473ffffffffffffffffffffffffffffffffffffffff1681565b601a6020528060005260406000206000915090508060000154908060020154908060030154905083565b600560009054906101000a900473ffffffffffffffffffffffffffffffffffffffff1681565b6011548156fea26469706673582212202004bb688aba00e408205ec79cceab05c25c9f40a33cf18e17294c8aae1002d964736f6c634300060c0033",
  "immutableReferences": {},
  "source": "\n// SPDX-License-Identifier: MIT\npragma solidity 0.6.12;\n\nimport \"./QuicToken.sol\";\nimport \"./IMigratorToQuicSwap.sol\";\n\ncontract QuicMasterStorage {\n        // Info of each user.\n    struct UserInfo {\n        uint256 amount;     // How many LP tokens the user has provided.\n        uint256 rewardDebt; // Reward debt. See explanation below.\n        uint256 rewardDebtAtBlock; // the last block user stake\n\t\tuint256 lastWithdrawBlock; // the last block a user withdrew at.\n\t\tuint256 firstDepositBlock; // the last block a user deposited at.\n\t\tuint256 blockdelta; //time passed since withdrawals\n\t\tuint256 lastDepositBlock;\n        //\n        // We do some fancy math here. Basically, any point in time, the amount of Quics\n        // entitled to a user but is pending to be distributed is:\n        //\n        //   pending reward = (user.amount * pool.accQuicPerShare) - user.rewardDebt\n        //\n        // Whenever a user deposits or withdraws LP tokens to a pool. Here's what happens:\n        //   1. The pool's `accQuicPerShare` (and `lastRewardBlock`) gets updated.\n        //   2. User receives the pending reward sent to his/her address.\n        //   3. User's `amount` gets updated.\n        //   4. User's `rewardDebt` gets updated.\n    }\n\n    struct UserGlobalInfo {\n        uint256 globalAmount;\n        mapping(address => uint256) referrals;\n        uint256 totalReferals;\n        uint256 globalRefAmount;\n    }\n\n    // Info of each pool.\n    struct PoolInfo {\n        IERC20 lpToken;           // Address of LP token contract.\n        uint256 allocPoint;       // How many allocation points assigned to this pool. Quic to distribute per block.\n        uint256 lastRewardBlock;  // Last block number that Quic distribution occurs.\n        uint256 accQuicPerShare;  // Accumulated Quic per share, times 1e12. See below.\n    }\n    // The Quic TOKEN!\n    QuicToken public Quic;\n    //An ETH/USDC Oracle (Chainlink)\n    address public usdOracle;\n    // Dev address.\n    address public devaddr;\n\t// LP address\n\taddress public liquidityaddr;\n\t// Community Fund Address\n\taddress public comfundaddr;\n\t// Founder Reward\n\taddress public founderaddr;\n    // Quic tokens created per block.\n    uint256 public REWARD_PER_BLOCK;\n    // Bonus muliplier for early Quic makers.\n    uint256[] public REWARD_MULTIPLIER =[4096, 2048, 2048, 1024, 1024, 512, 512, 256, 256, 256, 256, 256, 256, 256, 256, 128, 128, 128, 128, 128, 128, 128, 128, 128, 64, 64, 64, 64, 64, 64, 64, 64, 64, 64, 64, 16, 8, 8, 8, 8, 32, 32, 64, 64, 64, 128, 128, 128, 128, 128, 128, 128, 128, 128, 128, 256, 256, 256, 128, 128, 128, 128, 128, 128, 128, 128, 128, 64, 64, 64, 64, 64, 64, 64, 64, 64, 64, 64, 32, 32, 32, 32, 32, 32, 32, 32, 32, 32, 32, 32, 32, 16, 16, 16, 16, 8, 8, 8, 4, 2, 1, 0];\n    uint256[] public HALVING_AT_BLOCK; // init in constructor function\n    uint256[] public blockDeltaStartStage;\n    uint256[] public blockDeltaEndStage;\n    uint256[] public userFeeStage;\n    uint256[] public devFeeStage;\n    uint256 public FINISH_BONUS_AT_BLOCK;\n    uint256 public userDepFee;\n\n    // The block number when Quic mining starts.\n    uint256 public START_BLOCK;\n\n    uint256 public PERCENT_LOCK_BONUS_REWARD; // lock xx% of bounus reward in 3 year\n    uint256 public PERCENT_FOR_DEV; // dev bounties + partnerships\n\tuint256 public PERCENT_FOR_LP; // LP fund\n\tuint256 public PERCENT_FOR_COM; // community fund\n\tuint256 public PERCENT_FOR_FOUNDERS; // founders fund\n    uint256 public HALVING_AFTER;\n    // The migrator contract. It has a lot of power. Can only be set through governance (owner).\n    IMigratorToQuicSwap public migrator;\n\n    // Info of each pool.\n    PoolInfo[] public poolInfo;\n    mapping(address => uint256) public poolId1; // poolId1 count from 1, subtraction 1 before using with poolInfo\n    // Info of each user that stakes LP tokens. pid => user address => info\n    mapping (uint256 => mapping (address => UserInfo)) public userInfo;\n    mapping (address => UserGlobalInfo) public userGlobalInfo;\n    // Total allocation poitns. Must be the sum of all allocation points in all pools.\n    uint256 public totalAllocPoint = 0;\n\n    event Deposit(address indexed user, uint256 indexed pid, uint256 amount);\n    event Withdraw(address indexed user, uint256 indexed pid, uint256 amount);\n    event EmergencyWithdraw(address indexed user, uint256 indexed pid, uint256 amount);\n    event SendQuicReward(address indexed user, uint256 indexed pid, uint256 amount, uint256 lockAmount);\n\n}",
  "sourcePath": "/Users/mark.wagner/Dropbox/projects/quic.finance/contracts/QuicMasterStorage.sol",
  "compiler": {
    "name": "solc",
    "version": "0.6.12+commit.27d51765.Emscripten.clang"
  },
  "schemaVersion": "3.3.4",
  "updatedAt": "2021-05-12T21:23:37.043Z",
  "devdoc": {
    "kind": "dev",
    "methods": {},
    "version": 1
  },
  "userdoc": {
    "kind": "user",
    "methods": {},
    "version": 1
  }
}