{
  "contractName": "QuicMasterFarmer",
  "abi": [
    {
      "inputs": [
        {
          "internalType": "contract QuicToken",
          "name": "_Quic",
          "type": "address"
        },
        {
          "internalType": "address",
          "name": "_devaddr",
          "type": "address"
        },
        {
          "internalType": "address",
          "name": "_liquidityaddr",
          "type": "address"
        },
        {
          "internalType": "address",
          "name": "_comfundaddr",
          "type": "address"
        },
        {
          "internalType": "address",
          "name": "_founderaddr",
          "type": "address"
        },
        {
          "internalType": "uint256",
          "name": "_rewardPerBlock",
          "type": "uint256"
        },
        {
          "internalType": "uint256",
          "name": "_startBlock",
          "type": "uint256"
        },
        {
          "internalType": "uint256",
          "name": "_halvingAfterBlock",
          "type": "uint256"
        },
        {
          "internalType": "uint256",
          "name": "_userDepFee",
          "type": "uint256"
        },
        {
          "internalType": "uint256[]",
          "name": "_blockDeltaStartStage",
          "type": "uint256[]"
        },
        {
          "internalType": "uint256[]",
          "name": "_blockDeltaEndStage",
          "type": "uint256[]"
        },
        {
          "internalType": "uint256[]",
          "name": "_userFeeStage",
          "type": "uint256[]"
        },
        {
          "internalType": "uint256[]",
          "name": "_devFeeStage",
          "type": "uint256[]"
        },
        {
          "internalType": "address",
          "name": "_transactionsContract",
          "type": "address"
        }
      ],
      "stateMutability": "nonpayable",
      "type": "constructor"
    },
    {
      "anonymous": false,
      "inputs": [
        {
          "indexed": true,
          "internalType": "address",
          "name": "user",
          "type": "address"
        },
        {
          "indexed": true,
          "internalType": "uint256",
          "name": "pid",
          "type": "uint256"
        },
        {
          "indexed": false,
          "internalType": "uint256",
          "name": "amount",
          "type": "uint256"
        }
      ],
      "name": "Deposit",
      "type": "event"
    },
    {
      "anonymous": false,
      "inputs": [
        {
          "indexed": true,
          "internalType": "address",
          "name": "user",
          "type": "address"
        },
        {
          "indexed": true,
          "internalType": "uint256",
          "name": "pid",
          "type": "uint256"
        },
        {
          "indexed": false,
          "internalType": "uint256",
          "name": "amount",
          "type": "uint256"
        }
      ],
      "name": "EmergencyWithdraw",
      "type": "event"
    },
    {
      "anonymous": false,
      "inputs": [
        {
          "indexed": true,
          "internalType": "address",
          "name": "previousOwner",
          "type": "address"
        },
        {
          "indexed": true,
          "internalType": "address",
          "name": "newOwner",
          "type": "address"
        }
      ],
      "name": "OwnershipTransferred",
      "type": "event"
    },
    {
      "anonymous": false,
      "inputs": [
        {
          "indexed": true,
          "internalType": "address",
          "name": "user",
          "type": "address"
        },
        {
          "indexed": true,
          "internalType": "uint256",
          "name": "pid",
          "type": "uint256"
        },
        {
          "indexed": false,
          "internalType": "uint256",
          "name": "amount",
          "type": "uint256"
        },
        {
          "indexed": false,
          "internalType": "uint256",
          "name": "lockAmount",
          "type": "uint256"
        }
      ],
      "name": "SendQuicReward",
      "type": "event"
    },
    {
      "anonymous": false,
      "inputs": [
        {
          "indexed": true,
          "internalType": "address",
          "name": "user",
          "type": "address"
        },
        {
          "indexed": true,
          "internalType": "uint256",
          "name": "pid",
          "type": "uint256"
        },
        {
          "indexed": false,
          "internalType": "uint256",
          "name": "amount",
          "type": "uint256"
        }
      ],
      "name": "Withdraw",
      "type": "event"
    },
    {
      "inputs": [],
      "name": "FINISH_BONUS_AT_BLOCK",
      "outputs": [
        {
          "internalType": "uint256",
          "name": "",
          "type": "uint256"
        }
      ],
      "stateMutability": "view",
      "type": "function",
      "constant": true
    },
    {
      "inputs": [],
      "name": "HALVING_AFTER",
      "outputs": [
        {
          "internalType": "uint256",
          "name": "",
          "type": "uint256"
        }
      ],
      "stateMutability": "view",
      "type": "function",
      "constant": true
    },
    {
      "inputs": [
        {
          "internalType": "uint256",
          "name": "",
          "type": "uint256"
        }
      ],
      "name": "HALVING_AT_BLOCK",
      "outputs": [
        {
          "internalType": "uint256",
          "name": "",
          "type": "uint256"
        }
      ],
      "stateMutability": "view",
      "type": "function",
      "constant": true
    },
    {
      "inputs": [],
      "name": "PERCENT_FOR_COM",
      "outputs": [
        {
          "internalType": "uint256",
          "name": "",
          "type": "uint256"
        }
      ],
      "stateMutability": "view",
      "type": "function",
      "constant": true
    },
    {
      "inputs": [],
      "name": "PERCENT_FOR_DEV",
      "outputs": [
        {
          "internalType": "uint256",
          "name": "",
          "type": "uint256"
        }
      ],
      "stateMutability": "view",
      "type": "function",
      "constant": true
    },
    {
      "inputs": [],
      "name": "PERCENT_FOR_FOUNDERS",
      "outputs": [
        {
          "internalType": "uint256",
          "name": "",
          "type": "uint256"
        }
      ],
      "stateMutability": "view",
      "type": "function",
      "constant": true
    },
    {
      "inputs": [],
      "name": "PERCENT_FOR_LP",
      "outputs": [
        {
          "internalType": "uint256",
          "name": "",
          "type": "uint256"
        }
      ],
      "stateMutability": "view",
      "type": "function",
      "constant": true
    },
    {
      "inputs": [],
      "name": "PERCENT_LOCK_BONUS_REWARD",
      "outputs": [
        {
          "internalType": "uint256",
          "name": "",
          "type": "uint256"
        }
      ],
      "stateMutability": "view",
      "type": "function",
      "constant": true
    },
    {
      "inputs": [],
      "name": "Quic",
      "outputs": [
        {
          "internalType": "contract QuicToken",
          "name": "",
          "type": "address"
        }
      ],
      "stateMutability": "view",
      "type": "function",
      "constant": true
    },
    {
      "inputs": [
        {
          "internalType": "uint256",
          "name": "",
          "type": "uint256"
        }
      ],
      "name": "REWARD_MULTIPLIER",
      "outputs": [
        {
          "internalType": "uint256",
          "name": "",
          "type": "uint256"
        }
      ],
      "stateMutability": "view",
      "type": "function",
      "constant": true
    },
    {
      "inputs": [],
      "name": "REWARD_PER_BLOCK",
      "outputs": [
        {
          "internalType": "uint256",
          "name": "",
          "type": "uint256"
        }
      ],
      "stateMutability": "view",
      "type": "function",
      "constant": true
    },
    {
      "inputs": [],
      "name": "START_BLOCK",
      "outputs": [
        {
          "internalType": "uint256",
          "name": "",
          "type": "uint256"
        }
      ],
      "stateMutability": "view",
      "type": "function",
      "constant": true
    },
    {
      "inputs": [
        {
          "internalType": "address",
          "name": "_toAdd",
          "type": "address"
        }
      ],
      "name": "addAuthorized",
      "outputs": [],
      "stateMutability": "nonpayable",
      "type": "function"
    },
    {
      "inputs": [
        {
          "internalType": "address",
          "name": "",
          "type": "address"
        }
      ],
      "name": "authorized",
      "outputs": [
        {
          "internalType": "bool",
          "name": "",
          "type": "bool"
        }
      ],
      "stateMutability": "view",
      "type": "function",
      "constant": true
    },
    {
      "inputs": [
        {
          "internalType": "uint256",
          "name": "",
          "type": "uint256"
        }
      ],
      "name": "blockDeltaEndStage",
      "outputs": [
        {
          "internalType": "uint256",
          "name": "",
          "type": "uint256"
        }
      ],
      "stateMutability": "view",
      "type": "function",
      "constant": true
    },
    {
      "inputs": [
        {
          "internalType": "uint256",
          "name": "",
          "type": "uint256"
        }
      ],
      "name": "blockDeltaStartStage",
      "outputs": [
        {
          "internalType": "uint256",
          "name": "",
          "type": "uint256"
        }
      ],
      "stateMutability": "view",
      "type": "function",
      "constant": true
    },
    {
      "inputs": [],
      "name": "comfundaddr",
      "outputs": [
        {
          "internalType": "address",
          "name": "",
          "type": "address"
        }
      ],
      "stateMutability": "view",
      "type": "function",
      "constant": true
    },
    {
      "inputs": [
        {
          "internalType": "uint256",
          "name": "",
          "type": "uint256"
        }
      ],
      "name": "devFeeStage",
      "outputs": [
        {
          "internalType": "uint256",
          "name": "",
          "type": "uint256"
        }
      ],
      "stateMutability": "view",
      "type": "function",
      "constant": true
    },
    {
      "inputs": [],
      "name": "devaddr",
      "outputs": [
        {
          "internalType": "address",
          "name": "",
          "type": "address"
        }
      ],
      "stateMutability": "view",
      "type": "function",
      "constant": true
    },
    {
      "inputs": [],
      "name": "founderaddr",
      "outputs": [
        {
          "internalType": "address",
          "name": "",
          "type": "address"
        }
      ],
      "stateMutability": "view",
      "type": "function",
      "constant": true
    },
    {
      "inputs": [],
      "name": "liquidityaddr",
      "outputs": [
        {
          "internalType": "address",
          "name": "",
          "type": "address"
        }
      ],
      "stateMutability": "view",
      "type": "function",
      "constant": true
    },
    {
      "inputs": [],
      "name": "migrator",
      "outputs": [
        {
          "internalType": "contract IMigratorToQuicSwap",
          "name": "",
          "type": "address"
        }
      ],
      "stateMutability": "view",
      "type": "function",
      "constant": true
    },
    {
      "inputs": [],
      "name": "owner",
      "outputs": [
        {
          "internalType": "address",
          "name": "",
          "type": "address"
        }
      ],
      "stateMutability": "view",
      "type": "function",
      "constant": true
    },
    {
      "inputs": [
        {
          "internalType": "address",
          "name": "",
          "type": "address"
        }
      ],
      "name": "poolId1",
      "outputs": [
        {
          "internalType": "uint256",
          "name": "",
          "type": "uint256"
        }
      ],
      "stateMutability": "view",
      "type": "function",
      "constant": true
    },
    {
      "inputs": [
        {
          "internalType": "uint256",
          "name": "",
          "type": "uint256"
        }
      ],
      "name": "poolInfo",
      "outputs": [
        {
          "internalType": "contract IERC20",
          "name": "lpToken",
          "type": "address"
        },
        {
          "internalType": "uint256",
          "name": "allocPoint",
          "type": "uint256"
        },
        {
          "internalType": "uint256",
          "name": "lastRewardBlock",
          "type": "uint256"
        },
        {
          "internalType": "uint256",
          "name": "accQuicPerShare",
          "type": "uint256"
        }
      ],
      "stateMutability": "view",
      "type": "function",
      "constant": true
    },
    {
      "inputs": [],
      "name": "previousOwner",
      "outputs": [
        {
          "internalType": "address",
          "name": "",
          "type": "address"
        }
      ],
      "stateMutability": "view",
      "type": "function",
      "constant": true
    },
    {
      "inputs": [
        {
          "internalType": "address",
          "name": "newOwner",
          "type": "address"
        }
      ],
      "name": "reclaimOwnership",
      "outputs": [],
      "stateMutability": "nonpayable",
      "type": "function"
    },
    {
      "inputs": [
        {
          "internalType": "address",
          "name": "_toRemove",
          "type": "address"
        }
      ],
      "name": "removeAuthorized",
      "outputs": [],
      "stateMutability": "nonpayable",
      "type": "function"
    },
    {
      "inputs": [],
      "name": "renounceOwnership",
      "outputs": [],
      "stateMutability": "nonpayable",
      "type": "function"
    },
    {
      "inputs": [],
      "name": "totalAllocPoint",
      "outputs": [
        {
          "internalType": "uint256",
          "name": "",
          "type": "uint256"
        }
      ],
      "stateMutability": "view",
      "type": "function",
      "constant": true
    },
    {
      "inputs": [],
      "name": "transactionsContract",
      "outputs": [
        {
          "internalType": "address",
          "name": "",
          "type": "address"
        }
      ],
      "stateMutability": "view",
      "type": "function",
      "constant": true
    },
    {
      "inputs": [
        {
          "internalType": "address",
          "name": "newOwner",
          "type": "address"
        }
      ],
      "name": "transferOwnership",
      "outputs": [],
      "stateMutability": "nonpayable",
      "type": "function"
    },
    {
      "inputs": [],
      "name": "usdOracle",
      "outputs": [
        {
          "internalType": "address",
          "name": "",
          "type": "address"
        }
      ],
      "stateMutability": "view",
      "type": "function",
      "constant": true
    },
    {
      "inputs": [],
      "name": "userDepFee",
      "outputs": [
        {
          "internalType": "uint256",
          "name": "",
          "type": "uint256"
        }
      ],
      "stateMutability": "view",
      "type": "function",
      "constant": true
    },
    {
      "inputs": [
        {
          "internalType": "uint256",
          "name": "",
          "type": "uint256"
        }
      ],
      "name": "userFeeStage",
      "outputs": [
        {
          "internalType": "uint256",
          "name": "",
          "type": "uint256"
        }
      ],
      "stateMutability": "view",
      "type": "function",
      "constant": true
    },
    {
      "inputs": [
        {
          "internalType": "address",
          "name": "",
          "type": "address"
        }
      ],
      "name": "userGlobalInfo",
      "outputs": [
        {
          "internalType": "uint256",
          "name": "globalAmount",
          "type": "uint256"
        },
        {
          "internalType": "uint256",
          "name": "totalReferals",
          "type": "uint256"
        },
        {
          "internalType": "uint256",
          "name": "globalRefAmount",
          "type": "uint256"
        }
      ],
      "stateMutability": "view",
      "type": "function",
      "constant": true
    },
    {
      "inputs": [
        {
          "internalType": "uint256",
          "name": "",
          "type": "uint256"
        },
        {
          "internalType": "address",
          "name": "",
          "type": "address"
        }
      ],
      "name": "userInfo",
      "outputs": [
        {
          "internalType": "uint256",
          "name": "amount",
          "type": "uint256"
        },
        {
          "internalType": "uint256",
          "name": "rewardDebt",
          "type": "uint256"
        },
        {
          "internalType": "uint256",
          "name": "rewardDebtAtBlock",
          "type": "uint256"
        },
        {
          "internalType": "uint256",
          "name": "lastWithdrawBlock",
          "type": "uint256"
        },
        {
          "internalType": "uint256",
          "name": "firstDepositBlock",
          "type": "uint256"
        },
        {
          "internalType": "uint256",
          "name": "blockdelta",
          "type": "uint256"
        },
        {
          "internalType": "uint256",
          "name": "lastDepositBlock",
          "type": "uint256"
        }
      ],
      "stateMutability": "view",
      "type": "function",
      "constant": true
    },
    {
      "inputs": [],
      "name": "poolLength",
      "outputs": [
        {
          "internalType": "uint256",
          "name": "",
          "type": "uint256"
        }
      ],
      "stateMutability": "view",
      "type": "function",
      "constant": true
    },
    {
      "inputs": [],
      "name": "setup",
      "outputs": [],
      "stateMutability": "nonpayable",
      "type": "function"
    },
    {
      "inputs": [
        {
          "internalType": "uint256",
          "name": "_allocPoint",
          "type": "uint256"
        },
        {
          "internalType": "contract IERC20",
          "name": "_lpToken",
          "type": "address"
        },
        {
          "internalType": "bool",
          "name": "_withUpdate",
          "type": "bool"
        }
      ],
      "name": "add",
      "outputs": [],
      "stateMutability": "nonpayable",
      "type": "function"
    },
    {
      "inputs": [
        {
          "internalType": "uint256",
          "name": "_pid",
          "type": "uint256"
        },
        {
          "internalType": "uint256",
          "name": "_allocPoint",
          "type": "uint256"
        },
        {
          "internalType": "bool",
          "name": "_withUpdate",
          "type": "bool"
        }
      ],
      "name": "set",
      "outputs": [],
      "stateMutability": "nonpayable",
      "type": "function"
    },
    {
      "inputs": [
        {
          "internalType": "contract IMigratorToQuicSwap",
          "name": "_migrator",
          "type": "address"
        }
      ],
      "name": "setMigrator",
      "outputs": [],
      "stateMutability": "nonpayable",
      "type": "function"
    },
    {
      "inputs": [
        {
          "internalType": "uint256",
          "name": "_pid",
          "type": "uint256"
        }
      ],
      "name": "migrate",
      "outputs": [],
      "stateMutability": "nonpayable",
      "type": "function"
    },
    {
      "inputs": [],
      "name": "massUpdatePools",
      "outputs": [],
      "stateMutability": "nonpayable",
      "type": "function"
    },
    {
      "inputs": [
        {
          "internalType": "uint256",
          "name": "_from",
          "type": "uint256"
        },
        {
          "internalType": "uint256",
          "name": "_to",
          "type": "uint256"
        }
      ],
      "name": "getMultiplier",
      "outputs": [
        {
          "internalType": "uint256",
          "name": "",
          "type": "uint256"
        }
      ],
      "stateMutability": "view",
      "type": "function",
      "constant": true
    },
    {
      "inputs": [
        {
          "internalType": "uint256",
          "name": "_from",
          "type": "uint256"
        },
        {
          "internalType": "uint256",
          "name": "_to",
          "type": "uint256"
        },
        {
          "internalType": "uint256",
          "name": "_allocPoint",
          "type": "uint256"
        }
      ],
      "name": "getPoolReward",
      "outputs": [
        {
          "internalType": "uint256",
          "name": "forDev",
          "type": "uint256"
        },
        {
          "internalType": "uint256",
          "name": "forFarmer",
          "type": "uint256"
        },
        {
          "internalType": "uint256",
          "name": "forLP",
          "type": "uint256"
        },
        {
          "internalType": "uint256",
          "name": "forCom",
          "type": "uint256"
        },
        {
          "internalType": "uint256",
          "name": "forFounders",
          "type": "uint256"
        }
      ],
      "stateMutability": "view",
      "type": "function",
      "constant": true
    },
    {
      "inputs": [
        {
          "internalType": "uint256",
          "name": "_pid",
          "type": "uint256"
        }
      ],
      "name": "updatePool",
      "outputs": [],
      "stateMutability": "nonpayable",
      "type": "function"
    },
    {
      "inputs": [
        {
          "internalType": "uint256",
          "name": "_pid",
          "type": "uint256"
        },
        {
          "internalType": "address",
          "name": "_user",
          "type": "address"
        }
      ],
      "name": "pendingReward",
      "outputs": [
        {
          "internalType": "uint256",
          "name": "",
          "type": "uint256"
        }
      ],
      "stateMutability": "view",
      "type": "function",
      "constant": true
    },
    {
      "inputs": [
        {
          "internalType": "uint256",
          "name": "_pid",
          "type": "uint256"
        }
      ],
      "name": "claimReward",
      "outputs": [],
      "stateMutability": "nonpayable",
      "type": "function"
    },
    {
      "inputs": [
        {
          "internalType": "uint256",
          "name": "_pid",
          "type": "uint256"
        },
        {
          "internalType": "uint256",
          "name": "_amount",
          "type": "uint256"
        },
        {
          "internalType": "address",
          "name": "_ref",
          "type": "address"
        }
      ],
      "name": "deposit",
      "outputs": [],
      "stateMutability": "nonpayable",
      "type": "function"
    },
    {
      "inputs": [
        {
          "internalType": "uint256",
          "name": "_pid",
          "type": "uint256"
        },
        {
          "internalType": "uint256",
          "name": "_amount",
          "type": "uint256"
        },
        {
          "internalType": "address",
          "name": "_ref",
          "type": "address"
        }
      ],
      "name": "withdraw",
      "outputs": [],
      "stateMutability": "nonpayable",
      "type": "function"
    },
    {
      "inputs": [
        {
          "internalType": "uint256",
          "name": "_pid",
          "type": "uint256"
        }
      ],
      "name": "emergencyWithdraw",
      "outputs": [],
      "stateMutability": "nonpayable",
      "type": "function"
    },
    {
      "inputs": [
        {
          "internalType": "address",
          "name": "_user",
          "type": "address"
        }
      ],
      "name": "getGlobalAmount",
      "outputs": [
        {
          "internalType": "uint256",
          "name": "",
          "type": "uint256"
        }
      ],
      "stateMutability": "view",
      "type": "function",
      "constant": true
    },
    {
      "inputs": [
        {
          "internalType": "address",
          "name": "_user",
          "type": "address"
        }
      ],
      "name": "getGlobalRefAmount",
      "outputs": [
        {
          "internalType": "uint256",
          "name": "",
          "type": "uint256"
        }
      ],
      "stateMutability": "view",
      "type": "function",
      "constant": true
    },
    {
      "inputs": [
        {
          "internalType": "address",
          "name": "_user",
          "type": "address"
        }
      ],
      "name": "getTotalRefs",
      "outputs": [
        {
          "internalType": "uint256",
          "name": "",
          "type": "uint256"
        }
      ],
      "stateMutability": "view",
      "type": "function",
      "constant": true
    },
    {
      "inputs": [
        {
          "internalType": "address",
          "name": "_user",
          "type": "address"
        },
        {
          "internalType": "address",
          "name": "_user2",
          "type": "address"
        }
      ],
      "name": "getRefValueOf",
      "outputs": [
        {
          "internalType": "uint256",
          "name": "",
          "type": "uint256"
        }
      ],
      "stateMutability": "view",
      "type": "function",
      "constant": true
    },
    {
      "inputs": [
        {
          "internalType": "address",
          "name": "_devaddr",
          "type": "address"
        }
      ],
      "name": "dev",
      "outputs": [],
      "stateMutability": "nonpayable",
      "type": "function"
    },
    {
      "inputs": [
        {
          "internalType": "uint256",
          "name": "_newFinish",
          "type": "uint256"
        }
      ],
      "name": "bonusFinishUpdate",
      "outputs": [],
      "stateMutability": "nonpayable",
      "type": "function"
    },
    {
      "inputs": [
        {
          "internalType": "uint256[]",
          "name": "_newHalving",
          "type": "uint256[]"
        }
      ],
      "name": "halvingUpdate",
      "outputs": [],
      "stateMutability": "nonpayable",
      "type": "function"
    },
    {
      "inputs": [
        {
          "internalType": "address",
          "name": "_newLP",
          "type": "address"
        }
      ],
      "name": "lpUpdate",
      "outputs": [],
      "stateMutability": "nonpayable",
      "type": "function"
    },
    {
      "inputs": [
        {
          "internalType": "address",
          "name": "_newCom",
          "type": "address"
        }
      ],
      "name": "comUpdate",
      "outputs": [],
      "stateMutability": "nonpayable",
      "type": "function"
    },
    {
      "inputs": [
        {
          "internalType": "address",
          "name": "_newFounder",
          "type": "address"
        }
      ],
      "name": "founderUpdate",
      "outputs": [],
      "stateMutability": "nonpayable",
      "type": "function"
    },
    {
      "inputs": [
        {
          "internalType": "uint256",
          "name": "_newReward",
          "type": "uint256"
        }
      ],
      "name": "rewardUpdate",
      "outputs": [],
      "stateMutability": "nonpayable",
      "type": "function"
    },
    {
      "inputs": [
        {
          "internalType": "uint256[]",
          "name": "_newMulReward",
          "type": "uint256[]"
        }
      ],
      "name": "rewardMulUpdate",
      "outputs": [],
      "stateMutability": "nonpayable",
      "type": "function"
    },
    {
      "inputs": [
        {
          "internalType": "uint256",
          "name": "_newlock",
          "type": "uint256"
        }
      ],
      "name": "lockUpdate",
      "outputs": [],
      "stateMutability": "nonpayable",
      "type": "function"
    },
    {
      "inputs": [
        {
          "internalType": "uint256",
          "name": "_newdevlock",
          "type": "uint256"
        }
      ],
      "name": "lockdevUpdate",
      "outputs": [],
      "stateMutability": "nonpayable",
      "type": "function"
    },
    {
      "inputs": [
        {
          "internalType": "uint256",
          "name": "_newlplock",
          "type": "uint256"
        }
      ],
      "name": "locklpUpdate",
      "outputs": [],
      "stateMutability": "nonpayable",
      "type": "function"
    },
    {
      "inputs": [
        {
          "internalType": "uint256",
          "name": "_newcomlock",
          "type": "uint256"
        }
      ],
      "name": "lockcomUpdate",
      "outputs": [],
      "stateMutability": "nonpayable",
      "type": "function"
    },
    {
      "inputs": [
        {
          "internalType": "uint256",
          "name": "_newfounderlock",
          "type": "uint256"
        }
      ],
      "name": "lockfounderUpdate",
      "outputs": [],
      "stateMutability": "nonpayable",
      "type": "function"
    },
    {
      "inputs": [
        {
          "internalType": "uint256",
          "name": "_newstartblock",
          "type": "uint256"
        }
      ],
      "name": "startblockUpdate",
      "outputs": [],
      "stateMutability": "nonpayable",
      "type": "function"
    },
    {
      "inputs": [
        {
          "internalType": "uint256",
          "name": "pid1",
          "type": "uint256"
        }
      ],
      "name": "getNewRewardPerBlock",
      "outputs": [
        {
          "internalType": "uint256",
          "name": "",
          "type": "uint256"
        }
      ],
      "stateMutability": "view",
      "type": "function",
      "constant": true
    },
    {
      "inputs": [
        {
          "internalType": "uint256",
          "name": "_pid",
          "type": "uint256"
        },
        {
          "internalType": "address",
          "name": "_user",
          "type": "address"
        },
        {
          "internalType": "uint256",
          "name": "_block",
          "type": "uint256"
        }
      ],
      "name": "reviseWithdraw",
      "outputs": [],
      "stateMutability": "nonpayable",
      "type": "function"
    },
    {
      "inputs": [
        {
          "internalType": "uint256",
          "name": "_pid",
          "type": "uint256"
        },
        {
          "internalType": "address",
          "name": "_user",
          "type": "address"
        },
        {
          "internalType": "uint256",
          "name": "_block",
          "type": "uint256"
        }
      ],
      "name": "reviseDeposit",
      "outputs": [],
      "stateMutability": "nonpayable",
      "type": "function"
    },
    {
      "inputs": [
        {
          "internalType": "uint256[]",
          "name": "_blockStarts",
          "type": "uint256[]"
        }
      ],
      "name": "setStageStarts",
      "outputs": [],
      "stateMutability": "nonpayable",
      "type": "function"
    },
    {
      "inputs": [
        {
          "internalType": "uint256[]",
          "name": "_blockEnds",
          "type": "uint256[]"
        }
      ],
      "name": "setStageEnds",
      "outputs": [],
      "stateMutability": "nonpayable",
      "type": "function"
    },
    {
      "inputs": [
        {
          "internalType": "uint256[]",
          "name": "_userFees",
          "type": "uint256[]"
        }
      ],
      "name": "setUserFeeStage",
      "outputs": [],
      "stateMutability": "nonpayable",
      "type": "function"
    },
    {
      "inputs": [
        {
          "internalType": "uint256[]",
          "name": "_devFees",
          "type": "uint256[]"
        }
      ],
      "name": "setDevFeeStage",
      "outputs": [],
      "stateMutability": "nonpayable",
      "type": "function"
    },
    {
      "inputs": [
        {
          "internalType": "uint256",
          "name": "_usrDepFees",
          "type": "uint256"
        }
      ],
      "name": "setUserDepFee",
      "outputs": [],
      "stateMutability": "nonpayable",
      "type": "function"
    }
  ],
  "bytecode": "0x608060405260405180610cc0016040528061100061ffff16815260200161080061ffff16815260200161080061ffff16815260200161040061ffff16815260200161040061ffff16815260200161020061ffff16815260200161020061ffff16815260200161010061ffff16815260200161010061ffff16815260200161010061ffff16815260200161010061ffff16815260200161010061ffff16815260200161010061ffff16815260200161010061ffff16815260200161010061ffff168152602001608061ffff168152602001608061ffff168152602001608061ffff168152602001608061ffff168152602001608061ffff168152602001608061ffff168152602001608061ffff168152602001608061ffff168152602001608061ffff168152602001604061ffff168152602001604061ffff168152602001604061ffff168152602001604061ffff168152602001604061ffff168152602001604061ffff168152602001604061ffff168152602001604061ffff168152602001604061ffff168152602001604061ffff168152602001604061ffff168152602001601061ffff168152602001600861ffff168152602001600861ffff168152602001600861ffff168152602001600861ffff168152602001602061ffff168152602001602061ffff168152602001604061ffff168152602001604061ffff168152602001604061ffff168152602001608061ffff168152602001608061ffff168152602001608061ffff168152602001608061ffff168152602001608061ffff168152602001608061ffff168152602001608061ffff168152602001608061ffff168152602001608061ffff168152602001608061ffff16815260200161010061ffff16815260200161010061ffff16815260200161010061ffff168152602001608061ffff168152602001608061ffff168152602001608061ffff168152602001608061ffff168152602001608061ffff168152602001608061ffff168152602001608061ffff168152602001608061ffff168152602001608061ffff168152602001604061ffff168152602001604061ffff168152602001604061ffff168152602001604061ffff168152602001604061ffff168152602001604061ffff168152602001604061ffff168152602001604061ffff168152602001604061ffff168152602001604061ffff168152602001604061ffff168152602001602061ffff168152602001602061ffff168152602001602061ffff168152602001602061ffff168152602001602061ffff168152602001602061ffff168152602001602061ffff168152602001602061ffff168152602001602061ffff168152602001602061ffff168152602001602061ffff168152602001602061ffff168152602001602061ffff168152602001601061ffff168152602001601061ffff168152602001601061ffff168152602001601061ffff168152602001600861ffff168152602001600861ffff168152602001600861ffff168152602001600461ffff168152602001600261ffff168152602001600161ffff168152602001600061ffff1681525060079060666200049492919062000a6b565b506000601b55348015620004a757600080fd5b50604051620067463803806200674683398181016040526101c0811015620004ce57600080fd5b81019080805190602001909291908051906020019092919080519060200190929190805190602001909291908051906020019092919080519060200190929190805190602001909291908051906020019092919080519060200190929190805160405193929190846401000000008211156200054957600080fd5b838201915060208201858111156200056057600080fd5b82518660208202830111640100000000821117156200057e57600080fd5b8083526020830192505050908051906020019060200280838360005b83811015620005b75780820151818401526020810190506200059a565b5050505090500160405260200180516040519392919084640100000000821115620005e157600080fd5b83820191506020820185811115620005f857600080fd5b82518660208202830111640100000000821117156200061657600080fd5b8083526020830192505050908051906020019060200280838360005b838110156200064f57808201518184015260208101905062000632565b50505050905001604052602001805160405193929190846401000000008211156200067957600080fd5b838201915060208201858111156200069057600080fd5b8251866020820283011164010000000082111715620006ae57600080fd5b8083526020830192505050908051906020019060200280838360005b83811015620006e7578082015181840152602081019050620006ca565b50505050905001604052602001805160405193929190846401000000008211156200071157600080fd5b838201915060208201858111156200072857600080fd5b82518660208202830111640100000000821117156200074657600080fd5b8083526020830192505050908051906020019060200280838360005b838110156200077f57808201518184015260208101905062000762565b50505050905001604052602001805190602001909291905050506000620007ab62000a6360201b60201c565b905080601c60006101000a81548173ffffffffffffffffffffffffffffffffffffffff021916908373ffffffffffffffffffffffffffffffffffffffff1602179055508073ffffffffffffffffffffffffffffffffffffffff16600073ffffffffffffffffffffffffffffffffffffffff167f8be0079c531659141344cd1fd0a4f28419497f9722a3daafe3b4186f6b6457e060405160405180910390a3508d6000806101000a81548173ffffffffffffffffffffffffffffffffffffffff021916908373ffffffffffffffffffffffffffffffffffffffff1602179055508c600260006101000a81548173ffffffffffffffffffffffffffffffffffffffff021916908373ffffffffffffffffffffffffffffffffffffffff1602179055508b600360006101000a81548173ffffffffffffffffffffffffffffffffffffffff021916908373ffffffffffffffffffffffffffffffffffffffff1602179055508a600460006101000a81548173ffffffffffffffffffffffffffffffffffffffff021916908373ffffffffffffffffffffffffffffffffffffffff16021790555089600560006101000a81548173ffffffffffffffffffffffffffffffffffffffff021916908373ffffffffffffffffffffffffffffffffffffffff1602179055508860068190555087600f819055508660158190555085600e819055508460099080519060200190620009c292919062000ac3565b5083600a9080519060200190620009db92919062000ac3565b5082600b9080519060200190620009f492919062000ac3565b5081600c908051906020019062000a0d92919062000ac3565b5080601f60006101000a81548173ffffffffffffffffffffffffffffffffffffffff021916908373ffffffffffffffffffffffffffffffffffffffff160217905550505050505050505050505050505062000b34565b600033905090565b82805482825590600052602060002090810192821562000ab0579160200282015b8281111562000aaf578251829061ffff1690559160200191906001019062000a8c565b5b50905062000abf919062000b15565b5090565b82805482825590600052602060002090810192821562000b02579160200282015b8281111562000b0157825182559160200191906001019062000ae4565b5b50905062000b11919062000b15565b5090565b5b8082111562000b3057600081600090555060010162000b16565b5090565b615c028062000b446000396000f3fe608060405234801561001057600080fd5b506004361061046a5760003560e01c806382796e981161024c578063beff2a5311610146578063d49e77cd116100c3578063e17f94c011610087578063e17f94c01461188c578063ec12173d146118c0578063ed9bdeda146118f4578063f2fde38b14611912578063f2ffc22c146119565761046a565b8063d49e77cd1461171e578063d581840614611752578063d9608d8a14611780578063dd77b9fd146117e6578063de9885241461185e5761046a565b8063c8ed76801161010a578063c8ed76801461158c578063cb0b8ca1146115fe578063ce2529c914611640578063cf1c316a14611698578063d007db29146116dc5761046a565b8063beff2a5314611486578063c663baa6146114c8578063c6929e53146114f6578063c749d61414611514578063c8a4271f146115585761046a565b806395fdf258116101d4578063a90fa60311610198578063a90fa60314611382578063ae169a50146113c6578063b6066962146113f4578063b918161114611422578063ba0bba401461147c5761046a565b806395fdf258146112a8578063975532dc146112c6578063980c2a98146112e457806398969e8214611302578063a02306f9146113645761046a565b80638da5cb5b1161021b5780638da5cb5b146110ec5780638dbb1e3a146111205780638dbdbe6d1461116c578063929c6971146111c457806393f1a40b1461121c5761046a565b806382796e9814610f1a578063847bdaa414610f385780638cc883ce14610ff05780638d88a90e146110a85761046a565b80633d479cd5116103685780635c5e490b116102e5578063674f220f116102a9578063674f220f14610e22578063715018a614610e565780637c39c9c914610e605780637cd07e4714610e8e57806382386d5814610ec25761046a565b80635c5e490b14610ce25780636066debd14610d3a5780636245f08414610d92578063630b5ba114610dd457806364482f7914610dde5761046a565b80634af0e3e11161032c5780634af0e3e114610b6c5780634dbf85ca14610c2457806351eb05a614610c685780635312ea8e14610c9657806353ac0dab14610cc45761046a565b80633d479cd5146109d25780634179b4fb14610a00578063454b060814610a425780634666406414610a70578063485d7d9414610b285761046a565b806323cf3118116103f657806330fb8e0e116103ba57806330fb8e0e1461082c578063354affb71461087057806336ebcde61461092857806339b3e826146109805780633c9d92671461099e5761046a565b806323cf31181461068c578063245b211d146106d05780632710b33f146106fe5780632a7b0107146107325780632fda7735146107ea5761046a565b80631526fe271161043d5780631526fe271461053157806317caf6f11461059e5780631d465c82146105bc5780631eaaa045146105fe57806322a376b0146106585761046a565b806301b689c01461046f578063081e3eda1461049d5780630a67d518146104bb5780630ad58d2f146104d9575b600080fd5b61049b6004803603602081101561048557600080fd5b8101908080359060200190929190505050611984565b005b6104a5611a21565b6040518082815260200191505060405180910390f35b6104c3611a2e565b6040518082815260200191505060405180910390f35b61052f600480360360608110156104ef57600080fd5b810190808035906020019092919080359060200190929190803573ffffffffffffffffffffffffffffffffffffffff169060200190929190505050611a34565b005b61055d6004803603602081101561054757600080fd5b8101908080359060200190929190505050611c38565b604051808573ffffffffffffffffffffffffffffffffffffffff16815260200184815260200183815260200182815260200194505050505060405180910390f35b6105a6611c95565b6040518082815260200191505060405180910390f35b6105e8600480360360208110156105d257600080fd5b8101908080359060200190929190505050611c9b565b6040518082815260200191505060405180910390f35b6106566004803603606081101561061457600080fd5b8101908080359060200190929190803573ffffffffffffffffffffffffffffffffffffffff169060200190929190803515159060200190929190505050611d38565b005b610660612014565b604051808273ffffffffffffffffffffffffffffffffffffffff16815260200191505060405180910390f35b6106ce600480360360208110156106a257600080fd5b81019080803573ffffffffffffffffffffffffffffffffffffffff16906020019092919050505061203a565b005b6106fc600480360360208110156106e657600080fd5b8101908080359060200190929190505050612148565b005b6107066121e5565b604051808273ffffffffffffffffffffffffffffffffffffffff16815260200191505060405180910390f35b6107e86004803603602081101561074857600080fd5b810190808035906020019064010000000081111561076557600080fd5b82018360208201111561077757600080fd5b8035906020019184602083028401116401000000008311171561079957600080fd5b919080806020026020016040519081016040528093929190818152602001838360200280828437600081840152601f19601f820116905080830192505050505050509192919290505050612209565b005b6108166004803603602081101561080057600080fd5b81019080803590602001909291905050506122b6565b6040518082815260200191505060405180910390f35b61086e6004803603602081101561084257600080fd5b81019080803573ffffffffffffffffffffffffffffffffffffffff1690602001909291905050506122d7565b005b6109266004803603602081101561088657600080fd5b81019080803590602001906401000000008111156108a357600080fd5b8201836020820111156108b557600080fd5b803590602001918460208302840111640100000000831117156108d757600080fd5b919080806020026020016040519081016040528093929190818152602001838360200280828437600081840152601f19601f8201169050808301925050505050505091929192905050506123ae565b005b61096a6004803603602081101561093e57600080fd5b81019080803573ffffffffffffffffffffffffffffffffffffffff16906020019092919050505061245b565b6040518082815260200191505060405180910390f35b6109886124a7565b6040518082815260200191505060405180910390f35b6109a66124ad565b604051808273ffffffffffffffffffffffffffffffffffffffff16815260200191505060405180910390f35b6109fe600480360360208110156109e857600080fd5b81019080803590602001909291905050506124d3565b005b610a2c60048036036020811015610a1657600080fd5b8101908080359060200190929190505050612570565b6040518082815260200191505060405180910390f35b610a6e60048036036020811015610a5857600080fd5b8101908080359060200190929190505050612591565b005b610b2660048036036020811015610a8657600080fd5b8101908080359060200190640100000000811115610aa357600080fd5b820183602082011115610ab557600080fd5b80359060200191846020830284011164010000000083111715610ad757600080fd5b919080806020026020016040519081016040528093929190818152602001838360200280828437600081840152601f19601f8201169050808301925050505050505091929192905050506129bb565b005b610b6a60048036036020811015610b3e57600080fd5b81019080803573ffffffffffffffffffffffffffffffffffffffff169060200190929190505050612a68565b005b610c2260048036036020811015610b8257600080fd5b8101908080359060200190640100000000811115610b9f57600080fd5b820183602082011115610bb157600080fd5b80359060200191846020830284011164010000000083111715610bd357600080fd5b919080806020026020016040519081016040528093929190818152602001838360200280828437600081840152601f19601f820116905080830192505050505050509192919290505050612bc6565b005b610c6660048036036020811015610c3a57600080fd5b81019080803573ffffffffffffffffffffffffffffffffffffffff169060200190929190505050612c73565b005b610c9460048036036020811015610c7e57600080fd5b8101908080359060200190929190505050612d4a565b005b610cc260048036036020811015610cac57600080fd5b8101908080359060200190929190505050612f26565b005b610ccc613102565b6040518082815260200191505060405180910390f35b610d2460048036036020811015610cf857600080fd5b81019080803573ffffffffffffffffffffffffffffffffffffffff169060200190929190505050613108565b6040518082815260200191505060405180910390f35b610d9060048036036060811015610d5057600080fd5b8101908080359060200190929190803573ffffffffffffffffffffffffffffffffffffffff16906020019092919080359060200190929190505050613154565b005b610dbe60048036036020811015610da857600080fd5b8101908080359060200190929190505050613244565b6040518082815260200191505060405180910390f35b610ddc613265565b005b610e2060048036036060811015610df457600080fd5b81019080803590602001909291908035906020019092919080351515906020019092919050505061328c565b005b610e2a6133d8565b604051808273ffffffffffffffffffffffffffffffffffffffff16815260200191505060405180910390f35b610e5e613402565b005b610e8c60048036036020811015610e7657600080fd5b810190808035906020019092919050505061358d565b005b610e9661362a565b604051808273ffffffffffffffffffffffffffffffffffffffff16815260200191505060405180910390f35b610f1860048036036060811015610ed857600080fd5b8101908080359060200190929190803573ffffffffffffffffffffffffffffffffffffffff16906020019092919080359060200190929190505050613650565b005b610f22613740565b6040518082815260200191505060405180910390f35b610fee60048036036020811015610f4e57600080fd5b8101908080359060200190640100000000811115610f6b57600080fd5b820183602082011115610f7d57600080fd5b80359060200191846020830284011164010000000083111715610f9f57600080fd5b919080806020026020016040519081016040528093929190818152602001838360200280828437600081840152601f19601f820116905080830192505050505050509192919290505050613746565b005b6110a66004803603602081101561100657600080fd5b810190808035906020019064010000000081111561102357600080fd5b82018360208201111561103557600080fd5b8035906020019184602083028401116401000000008311171561105757600080fd5b919080806020026020016040519081016040528093929190818152602001838360200280828437600081840152601f19601f8201169050808301925050505050505091929192905050506137f3565b005b6110ea600480360360208110156110be57600080fd5b81019080803573ffffffffffffffffffffffffffffffffffffffff1690602001909291905050506138a0565b005b6110f4613977565b604051808273ffffffffffffffffffffffffffffffffffffffff16815260200191505060405180910390f35b6111566004803603604081101561113657600080fd5b8101908080359060200190929190803590602001909291905050506139a1565b6040518082815260200191505060405180910390f35b6111c26004803603606081101561118257600080fd5b810190808035906020019092919080359060200190929190803573ffffffffffffffffffffffffffffffffffffffff169060200190929190505050613ac5565b005b611206600480360360208110156111da57600080fd5b81019080803573ffffffffffffffffffffffffffffffffffffffff169060200190929190505050613cc9565b6040518082815260200191505060405180910390f35b6112686004803603604081101561123257600080fd5b8101908080359060200190929190803573ffffffffffffffffffffffffffffffffffffffff169060200190929190505050613d15565b6040518088815260200187815260200186815260200185815260200184815260200183815260200182815260200197505050505050505060405180910390f35b6112b0613d64565b6040518082815260200191505060405180910390f35b6112ce613d6a565b6040518082815260200191505060405180910390f35b6112ec613d70565b6040518082815260200191505060405180910390f35b61134e6004803603604081101561131857600080fd5b8101908080359060200190929190803573ffffffffffffffffffffffffffffffffffffffff169060200190929190505050613d76565b6040518082815260200191505060405180910390f35b61136c613f89565b6040518082815260200191505060405180910390f35b6113c46004803603602081101561139857600080fd5b81019080803573ffffffffffffffffffffffffffffffffffffffff169060200190929190505050613f8f565b005b6113f2600480360360208110156113dc57600080fd5b81019080803590602001909291905050506141a2565b005b6114206004803603602081101561140a57600080fd5b81019080803590602001909291905050506141b7565b005b6114646004803603602081101561143857600080fd5b81019080803573ffffffffffffffffffffffffffffffffffffffff169060200190929190505050614254565b60405180821515815260200191505060405180910390f35b611484614274565b005b6114b26004803603602081101561149c57600080fd5b81019080803590602001909291905050506143f9565b6040518082815260200191505060405180910390f35b6114f4600480360360208110156114de57600080fd5b810190808035906020019092919050505061441a565b005b6114fe6144b7565b6040518082815260200191505060405180910390f35b6115566004803603602081101561152a57600080fd5b81019080803573ffffffffffffffffffffffffffffffffffffffff1690602001909291905050506144bd565b005b611560614594565b604051808273ffffffffffffffffffffffffffffffffffffffff16815260200191505060405180910390f35b6115cc600480360360608110156115a257600080fd5b810190808035906020019092919080359060200190929190803590602001909291905050506145ba565b604051808681526020018581526020018481526020018381526020018281526020019550505050505060405180910390f35b61162a6004803603602081101561161457600080fd5b810190808035906020019092919050505061483f565b6040518082815260200191505060405180910390f35b6116826004803603602081101561165657600080fd5b81019080803573ffffffffffffffffffffffffffffffffffffffff169060200190929190505050614860565b6040518082815260200191505060405180910390f35b6116da600480360360208110156116ae57600080fd5b81019080803573ffffffffffffffffffffffffffffffffffffffff169060200190929190505050614878565b005b611708600480360360208110156116f257600080fd5b810190808035906020019092919050505061499d565b6040518082815260200191505060405180910390f35b6117266149be565b604051808273ffffffffffffffffffffffffffffffffffffffff16815260200191505060405180910390f35b61177e6004803603602081101561176857600080fd5b81019080803590602001909291905050506149e4565b005b6117c26004803603602081101561179657600080fd5b81019080803573ffffffffffffffffffffffffffffffffffffffff169060200190929190505050614a81565b60405180848152602001838152602001828152602001935050505060405180910390f35b611848600480360360408110156117fc57600080fd5b81019080803573ffffffffffffffffffffffffffffffffffffffff169060200190929190803573ffffffffffffffffffffffffffffffffffffffff169060200190929190505050614aab565b6040518082815260200191505060405180910390f35b61188a6004803603602081101561187457600080fd5b8101908080359060200190929190505050614b35565b005b611894614bd2565b604051808273ffffffffffffffffffffffffffffffffffffffff16815260200191505060405180910390f35b6118c8614bf8565b604051808273ffffffffffffffffffffffffffffffffffffffff16815260200191505060405180910390f35b6118fc614c1e565b6040518082815260200191505060405180910390f35b6119546004803603602081101561192857600080fd5b81019080803573ffffffffffffffffffffffffffffffffffffffff169060200190929190505050614c24565b005b6119826004803603602081101561196c57600080fd5b8101908080359060200190929190505050614e34565b005b601e60003373ffffffffffffffffffffffffffffffffffffffff1673ffffffffffffffffffffffffffffffffffffffff16815260200190815260200160002060009054906101000a900460ff1680611a0e57503373ffffffffffffffffffffffffffffffffffffffff166119f6613977565b73ffffffffffffffffffffffffffffffffffffffff16145b611a1757600080fd5b8060108190555050565b6000601780549050905090565b60125481565b6000601f60009054906101000a900473ffffffffffffffffffffffffffffffffffffffff1673ffffffffffffffffffffffffffffffffffffffff16848484604051602401808481526020018381526020018273ffffffffffffffffffffffffffffffffffffffff16815260200193505050506040516020818303038152906040527f0ad58d2f000000000000000000000000000000000000000000000000000000007bffffffffffffffffffffffffffffffffffffffffffffffffffffffff19166020820180517bffffffffffffffffffffffffffffffffffffffffffffffffffffffff83818316178352505050506040518082805190602001908083835b60208310611b565780518252602082019150602081019050602083039250611b33565b6001836020036101000a038019825116818451168082178552505050505050905001915050600060405180830381855af49150503d8060008114611bb6576040519150601f19603f3d011682016040523d82523d6000602084013e611bbb565b606091505b5050905080611c32576040517f08c379a00000000000000000000000000000000000000000000000000000000081526004018080602001828103825260048152602001807f574443460000000000000000000000000000000000000000000000000000000081525060200191505060405180910390fd5b50505050565b60178181548110611c4557fe5b90600052602060002090600402016000915090508060000160009054906101000a900473ffffffffffffffffffffffffffffffffffffffff16908060010154908060020154908060030154905084565b601b5481565b600080611cab60014303436139a1565b90506000831415611cd357611ccb60065482614ed190919063ffffffff16565b915050611d33565b611d2f601b54611d2160176001870381548110611cec57fe5b906000526020600020906004020160010154611d1360065486614ed190919063ffffffff16565b614ed190919063ffffffff16565b614f5790919063ffffffff16565b9150505b919050565b611d40614fe0565b73ffffffffffffffffffffffffffffffffffffffff16601c60009054906101000a900473ffffffffffffffffffffffffffffffffffffffff1673ffffffffffffffffffffffffffffffffffffffff1614611e02576040517f08c379a00000000000000000000000000000000000000000000000000000000081526004018080602001828103825260208152602001807f4f776e61626c653a2063616c6c6572206973206e6f7420746865206f776e657281525060200191505060405180910390fd5b6000601860008473ffffffffffffffffffffffffffffffffffffffff1673ffffffffffffffffffffffffffffffffffffffff1681526020019081526020016000205414611eb7576040517f08c379a00000000000000000000000000000000000000000000000000000000081526004018080602001828103825260098152602001807f6c7020657869737473000000000000000000000000000000000000000000000081525060200191505060405180910390fd5b8015611ec657611ec5613265565b5b6000600f544311611ed957600f54611edb565b435b9050611ef284601b54614fe890919063ffffffff16565b601b81905550600160178054905001601860008573ffffffffffffffffffffffffffffffffffffffff1673ffffffffffffffffffffffffffffffffffffffff16815260200190815260200160002081905550601760405180608001604052808573ffffffffffffffffffffffffffffffffffffffff1681526020018681526020018381526020016000815250908060018154018082558091505060019003906000526020600020906004020160009091909190915060008201518160000160006101000a81548173ffffffffffffffffffffffffffffffffffffffff021916908373ffffffffffffffffffffffffffffffffffffffff160217905550602082015181600101556040820151816002015560608201518160030155505050505050565b600360009054906101000a900473ffffffffffffffffffffffffffffffffffffffff1681565b612042614fe0565b73ffffffffffffffffffffffffffffffffffffffff16601c60009054906101000a900473ffffffffffffffffffffffffffffffffffffffff1673ffffffffffffffffffffffffffffffffffffffff1614612104576040517f08c379a00000000000000000000000000000000000000000000000000000000081526004018080602001828103825260208152602001807f4f776e61626c653a2063616c6c6572206973206e6f7420746865206f776e657281525060200191505060405180910390fd5b80601660006101000a81548173ffffffffffffffffffffffffffffffffffffffff021916908373ffffffffffffffffffffffffffffffffffffffff16021790555050565b601e60003373ffffffffffffffffffffffffffffffffffffffff1673ffffffffffffffffffffffffffffffffffffffff16815260200190815260200160002060009054906101000a900460ff16806121d257503373ffffffffffffffffffffffffffffffffffffffff166121ba613977565b73ffffffffffffffffffffffffffffffffffffffff16145b6121db57600080fd5b80600d8190555050565b60008054906101000a900473ffffffffffffffffffffffffffffffffffffffff1681565b601e60003373ffffffffffffffffffffffffffffffffffffffff1673ffffffffffffffffffffffffffffffffffffffff16815260200190815260200160002060009054906101000a900460ff168061229357503373ffffffffffffffffffffffffffffffffffffffff1661227b613977565b73ffffffffffffffffffffffffffffffffffffffff16145b61229c57600080fd5b80600b90805190602001906122b2929190615a43565b5050565b600781815481106122c357fe5b906000526020600020016000915090505481565b601e60003373ffffffffffffffffffffffffffffffffffffffff1673ffffffffffffffffffffffffffffffffffffffff16815260200190815260200160002060009054906101000a900460ff168061236157503373ffffffffffffffffffffffffffffffffffffffff16612349613977565b73ffffffffffffffffffffffffffffffffffffffff16145b61236a57600080fd5b80600560006101000a81548173ffffffffffffffffffffffffffffffffffffffff021916908373ffffffffffffffffffffffffffffffffffffffff16021790555050565b601e60003373ffffffffffffffffffffffffffffffffffffffff1673ffffffffffffffffffffffffffffffffffffffff16815260200190815260200160002060009054906101000a900460ff168061243857503373ffffffffffffffffffffffffffffffffffffffff16612420613977565b73ffffffffffffffffffffffffffffffffffffffff16145b61244157600080fd5b8060089080519060200190612457929190615a43565b5050565b6000601a60008373ffffffffffffffffffffffffffffffffffffffff1673ffffffffffffffffffffffffffffffffffffffff168152602001908152602001600020600201549050919050565b600f5481565b600460009054906101000a900473ffffffffffffffffffffffffffffffffffffffff1681565b601e60003373ffffffffffffffffffffffffffffffffffffffff1673ffffffffffffffffffffffffffffffffffffffff16815260200190815260200160002060009054906101000a900460ff168061255d57503373ffffffffffffffffffffffffffffffffffffffff16612545613977565b73ffffffffffffffffffffffffffffffffffffffff16145b61256657600080fd5b8060068190555050565b6008818154811061257d57fe5b906000526020600020016000915090505481565b600073ffffffffffffffffffffffffffffffffffffffff16601660009054906101000a900473ffffffffffffffffffffffffffffffffffffffff1673ffffffffffffffffffffffffffffffffffffffff161415612656576040517f08c379a00000000000000000000000000000000000000000000000000000000081526004018080602001828103825260148152602001807f6d6967726174653a206e6f206d69677261746f7200000000000000000000000081525060200191505060405180910390fd5b60006017828154811061266557fe5b9060005260206000209060040201905060008160000160009054906101000a900473ffffffffffffffffffffffffffffffffffffffff16905060008173ffffffffffffffffffffffffffffffffffffffff166370a08231306040518263ffffffff1660e01b8152600401808273ffffffffffffffffffffffffffffffffffffffff16815260200191505060206040518083038186803b15801561270757600080fd5b505afa15801561271b573d6000803e3d6000fd5b505050506040513d602081101561273157600080fd5b81019080805190602001909291905050509050612791601660009054906101000a900473ffffffffffffffffffffffffffffffffffffffff16828473ffffffffffffffffffffffffffffffffffffffff166150709092919063ffffffff16565b6000601660009054906101000a900473ffffffffffffffffffffffffffffffffffffffff1673ffffffffffffffffffffffffffffffffffffffff1663ce5494bb846040518263ffffffff1660e01b8152600401808273ffffffffffffffffffffffffffffffffffffffff168152602001915050602060405180830381600087803b15801561281e57600080fd5b505af1158015612832573d6000803e3d6000fd5b505050506040513d602081101561284857600080fd5b810190808051906020019092919050505090508073ffffffffffffffffffffffffffffffffffffffff166370a08231306040518263ffffffff1660e01b8152600401808273ffffffffffffffffffffffffffffffffffffffff16815260200191505060206040518083038186803b1580156128c257600080fd5b505afa1580156128d6573d6000803e3d6000fd5b505050506040513d60208110156128ec57600080fd5b81019080805190602001909291905050508214612971576040517f08c379a000000000000000000000000000000000000000000000000000000000815260040180806020018281038252600c8152602001807f6d6967726174653a20626164000000000000000000000000000000000000000081525060200191505060405180910390fd5b808460000160006101000a81548173ffffffffffffffffffffffffffffffffffffffff021916908373ffffffffffffffffffffffffffffffffffffffff1602179055505050505050565b601e60003373ffffffffffffffffffffffffffffffffffffffff1673ffffffffffffffffffffffffffffffffffffffff16815260200190815260200160002060009054906101000a900460ff1680612a4557503373ffffffffffffffffffffffffffffffffffffffff16612a2d613977565b73ffffffffffffffffffffffffffffffffffffffff16145b612a4e57600080fd5b8060079080519060200190612a64929190615a43565b5050565b612a70614fe0565b73ffffffffffffffffffffffffffffffffffffffff16601c60009054906101000a900473ffffffffffffffffffffffffffffffffffffffff1673ffffffffffffffffffffffffffffffffffffffff1614612b32576040517f08c379a00000000000000000000000000000000000000000000000000000000081526004018080602001828103825260208152602001807f4f776e61626c653a2063616c6c6572206973206e6f7420746865206f776e657281525060200191505060405180910390fd5b3373ffffffffffffffffffffffffffffffffffffffff168173ffffffffffffffffffffffffffffffffffffffff161415612b6b57600080fd5b6000601e60008373ffffffffffffffffffffffffffffffffffffffff1673ffffffffffffffffffffffffffffffffffffffff16815260200190815260200160002060006101000a81548160ff02191690831515021790555050565b601e60003373ffffffffffffffffffffffffffffffffffffffff1673ffffffffffffffffffffffffffffffffffffffff16815260200190815260200160002060009054906101000a900460ff1680612c5057503373ffffffffffffffffffffffffffffffffffffffff16612c38613977565b73ffffffffffffffffffffffffffffffffffffffff16145b612c5957600080fd5b80600a9080519060200190612c6f929190615a43565b5050565b601e60003373ffffffffffffffffffffffffffffffffffffffff1673ffffffffffffffffffffffffffffffffffffffff16815260200190815260200160002060009054906101000a900460ff1680612cfd57503373ffffffffffffffffffffffffffffffffffffffff16612ce5613977565b73ffffffffffffffffffffffffffffffffffffffff16145b612d0657600080fd5b80600360006101000a81548173ffffffffffffffffffffffffffffffffffffffff021916908373ffffffffffffffffffffffffffffffffffffffff16021790555050565b6000601f60009054906101000a900473ffffffffffffffffffffffffffffffffffffffff1673ffffffffffffffffffffffffffffffffffffffff1682604051602401808281526020019150506040516020818303038152906040527f51eb05a6000000000000000000000000000000000000000000000000000000007bffffffffffffffffffffffffffffffffffffffffffffffffffffffff19166020820180517bffffffffffffffffffffffffffffffffffffffffffffffffffffffff83818316178352505050506040518082805190602001908083835b60208310612e465780518252602082019150602081019050602083039250612e23565b6001836020036101000a038019825116818451168082178552505050505050905001915050600060405180830381855af49150503d8060008114612ea6576040519150601f19603f3d011682016040523d82523d6000602084013e612eab565b606091505b5050905080612f22576040517f08c379a00000000000000000000000000000000000000000000000000000000081526004018080602001828103825260048152602001807f554443460000000000000000000000000000000000000000000000000000000081525060200191505060405180910390fd5b5050565b6000601f60009054906101000a900473ffffffffffffffffffffffffffffffffffffffff1673ffffffffffffffffffffffffffffffffffffffff1682604051602401808281526020019150506040516020818303038152906040527f5312ea8e000000000000000000000000000000000000000000000000000000007bffffffffffffffffffffffffffffffffffffffffffffffffffffffff19166020820180517bffffffffffffffffffffffffffffffffffffffffffffffffffffffff83818316178352505050506040518082805190602001908083835b602083106130225780518252602082019150602081019050602083039250612fff565b6001836020036101000a038019825116818451168082178552505050505050905001915050600060405180830381855af49150503d8060008114613082576040519150601f19603f3d011682016040523d82523d6000602084013e613087565b606091505b50509050806130fe576040517f08c379a00000000000000000000000000000000000000000000000000000000081526004018080602001828103825260048152602001807f454443460000000000000000000000000000000000000000000000000000000081525060200191505060405180910390fd5b5050565b60155481565b6000601a60008373ffffffffffffffffffffffffffffffffffffffff1673ffffffffffffffffffffffffffffffffffffffff168152602001908152602001600020600301549050919050565b601e60003373ffffffffffffffffffffffffffffffffffffffff1673ffffffffffffffffffffffffffffffffffffffff16815260200190815260200160002060009054906101000a900460ff16806131de57503373ffffffffffffffffffffffffffffffffffffffff166131c6613977565b73ffffffffffffffffffffffffffffffffffffffff16145b6131e757600080fd5b806019600085815260200190815260200160002060008473ffffffffffffffffffffffffffffffffffffffff1673ffffffffffffffffffffffffffffffffffffffff16815260200190815260200160002060030181905550505050565b6009818154811061325157fe5b906000526020600020016000915090505481565b60005b6017805490508110156132895761327e81612d4a565b806001019050613268565b50565b613294614fe0565b73ffffffffffffffffffffffffffffffffffffffff16601c60009054906101000a900473ffffffffffffffffffffffffffffffffffffffff1673ffffffffffffffffffffffffffffffffffffffff1614613356576040517f08c379a00000000000000000000000000000000000000000000000000000000081526004018080602001828103825260208152602001807f4f776e61626c653a2063616c6c6572206973206e6f7420746865206f776e657281525060200191505060405180910390fd5b801561336557613364613265565b5b6133aa8261339c6017868154811061337957fe5b906000526020600020906004020160010154601b5461523590919063ffffffff16565b614fe890919063ffffffff16565b601b8190555081601784815481106133be57fe5b906000526020600020906004020160010181905550505050565b6000601d60009054906101000a900473ffffffffffffffffffffffffffffffffffffffff16905090565b61340a614fe0565b73ffffffffffffffffffffffffffffffffffffffff16601c60009054906101000a900473ffffffffffffffffffffffffffffffffffffffff1673ffffffffffffffffffffffffffffffffffffffff16146134cc576040517f08c379a00000000000000000000000000000000000000000000000000000000081526004018080602001828103825260208152602001807f4f776e61626c653a2063616c6c6572206973206e6f7420746865206f776e657281525060200191505060405180910390fd5b600073ffffffffffffffffffffffffffffffffffffffff16601c60009054906101000a900473ffffffffffffffffffffffffffffffffffffffff1673ffffffffffffffffffffffffffffffffffffffff167f8be0079c531659141344cd1fd0a4f28419497f9722a3daafe3b4186f6b6457e060405160405180910390a36000601c60006101000a81548173ffffffffffffffffffffffffffffffffffffffff021916908373ffffffffffffffffffffffffffffffffffffffff160217905550565b601e60003373ffffffffffffffffffffffffffffffffffffffff1673ffffffffffffffffffffffffffffffffffffffff16815260200190815260200160002060009054906101000a900460ff168061361757503373ffffffffffffffffffffffffffffffffffffffff166135ff613977565b73ffffffffffffffffffffffffffffffffffffffff16145b61362057600080fd5b80600e8190555050565b601660009054906101000a900473ffffffffffffffffffffffffffffffffffffffff1681565b601e60003373ffffffffffffffffffffffffffffffffffffffff1673ffffffffffffffffffffffffffffffffffffffff16815260200190815260200160002060009054906101000a900460ff16806136da57503373ffffffffffffffffffffffffffffffffffffffff166136c2613977565b73ffffffffffffffffffffffffffffffffffffffff16145b6136e357600080fd5b806019600085815260200190815260200160002060008473ffffffffffffffffffffffffffffffffffffffff1673ffffffffffffffffffffffffffffffffffffffff16815260200190815260200160002060040181905550505050565b600e5481565b601e60003373ffffffffffffffffffffffffffffffffffffffff1673ffffffffffffffffffffffffffffffffffffffff16815260200190815260200160002060009054906101000a900460ff16806137d057503373ffffffffffffffffffffffffffffffffffffffff166137b8613977565b73ffffffffffffffffffffffffffffffffffffffff16145b6137d957600080fd5b80600990805190602001906137ef929190615a43565b5050565b601e60003373ffffffffffffffffffffffffffffffffffffffff1673ffffffffffffffffffffffffffffffffffffffff16815260200190815260200160002060009054906101000a900460ff168061387d57503373ffffffffffffffffffffffffffffffffffffffff16613865613977565b73ffffffffffffffffffffffffffffffffffffffff16145b61388657600080fd5b80600c908051906020019061389c929190615a43565b5050565b601e60003373ffffffffffffffffffffffffffffffffffffffff1673ffffffffffffffffffffffffffffffffffffffff16815260200190815260200160002060009054906101000a900460ff168061392a57503373ffffffffffffffffffffffffffffffffffffffff16613912613977565b73ffffffffffffffffffffffffffffffffffffffff16145b61393357600080fd5b80600260006101000a81548173ffffffffffffffffffffffffffffffffffffffff021916908373ffffffffffffffffffffffffffffffffffffffff16021790555050565b6000601c60009054906101000a900473ffffffffffffffffffffffffffffffffffffffff16905090565b600080600f548410156139b8576000915050613abf565b60005b600880549050811015613ab9576000600882815481106139d757fe5b90600052602060002001549050808511613a49576000613a29600784815481106139fd57fe5b9060005260206000200154613a1b898961523590919063ffffffff16565b614ed190919063ffffffff16565b9050613a3e8185614fe890919063ffffffff16565b945050505050613abf565b80861015613aab576000613a8f60078481548110613a6357fe5b9060005260206000200154613a81898561523590919063ffffffff16565b614ed190919063ffffffff16565b9050819650613aa78185614fe890919063ffffffff16565b9350505b5080806001019150506139bb565b50809150505b92915050565b6000601f60009054906101000a900473ffffffffffffffffffffffffffffffffffffffff1673ffffffffffffffffffffffffffffffffffffffff16848484604051602401808481526020018381526020018273ffffffffffffffffffffffffffffffffffffffff16815260200193505050506040516020818303038152906040527f8dbdbe6d000000000000000000000000000000000000000000000000000000007bffffffffffffffffffffffffffffffffffffffffffffffffffffffff19166020820180517bffffffffffffffffffffffffffffffffffffffffffffffffffffffff83818316178352505050506040518082805190602001908083835b60208310613be75780518252602082019150602081019050602083039250613bc4565b6001836020036101000a038019825116818451168082178552505050505050905001915050600060405180830381855af49150503d8060008114613c47576040519150601f19603f3d011682016040523d82523d6000602084013e613c4c565b606091505b5050905080613cc3576040517f08c379a00000000000000000000000000000000000000000000000000000000081526004018080602001828103825260048152602001807f444443460000000000000000000000000000000000000000000000000000000081525060200191505060405180910390fd5b50505050565b6000601a60008373ffffffffffffffffffffffffffffffffffffffff1673ffffffffffffffffffffffffffffffffffffffff168152602001908152602001600020600001549050919050565b6019602052816000526040600020602052806000526040600020600091509150508060000154908060010154908060020154908060030154908060040154908060050154908060060154905087565b60105481565b60065481565b600d5481565b60008060178481548110613d8657fe5b9060005260206000209060040201905060006019600086815260200190815260200160002060008573ffffffffffffffffffffffffffffffffffffffff1673ffffffffffffffffffffffffffffffffffffffff168152602001908152602001600020905060008260030154905060008360000160009054906101000a900473ffffffffffffffffffffffffffffffffffffffff1673ffffffffffffffffffffffffffffffffffffffff166370a08231306040518263ffffffff1660e01b8152600401808273ffffffffffffffffffffffffffffffffffffffff16815260200191505060206040518083038186803b158015613e8057600080fd5b505afa158015613e94573d6000803e3d6000fd5b505050506040513d6020811015613eaa57600080fd5b81019080805190602001909291905050509050836002015443118015613ed05750600081115b15613f39576000613eea85600201544387600101546145ba565b909192935090915090505080915050613f35613f2683613f1864e8d4a5100085614ed190919063ffffffff16565b614f5790919063ffffffff16565b84614fe890919063ffffffff16565b9250505b613f7d8360010154613f6f64e8d4a51000613f61868860000154614ed190919063ffffffff16565b614f5790919063ffffffff16565b61523590919063ffffffff16565b94505050505092915050565b60135481565b613f97614fe0565b73ffffffffffffffffffffffffffffffffffffffff16601d60009054906101000a900473ffffffffffffffffffffffffffffffffffffffff1673ffffffffffffffffffffffffffffffffffffffff161461403c576040517f08c379a0000000000000000000000000000000000000000000000000000000008152600401808060200182810382526029815260200180615b446029913960400191505060405180910390fd5b601d60009054906101000a900473ffffffffffffffffffffffffffffffffffffffff1673ffffffffffffffffffffffffffffffffffffffff168173ffffffffffffffffffffffffffffffffffffffff16146140e2576040517f08c379a0000000000000000000000000000000000000000000000000000000008152600401808060200182810382526029815260200180615afa6029913960400191505060405180910390fd5b8073ffffffffffffffffffffffffffffffffffffffff16601c60009054906101000a900473ffffffffffffffffffffffffffffffffffffffff1673ffffffffffffffffffffffffffffffffffffffff167f8be0079c531659141344cd1fd0a4f28419497f9722a3daafe3b4186f6b6457e060405160405180910390a380601c60006101000a81548173ffffffffffffffffffffffffffffffffffffffff021916908373ffffffffffffffffffffffffffffffffffffffff16021790555050565b6141ab81612d4a565b6141b4816152b8565b50565b601e60003373ffffffffffffffffffffffffffffffffffffffff1673ffffffffffffffffffffffffffffffffffffffff16815260200190815260200160002060009054906101000a900460ff168061424157503373ffffffffffffffffffffffffffffffffffffffff16614229613977565b73ffffffffffffffffffffffffffffffffffffffff16145b61424a57600080fd5b8060118190555050565b601e6020528060005260406000206000915054906101000a900460ff1681565b61427c614fe0565b73ffffffffffffffffffffffffffffffffffffffff16601c60009054906101000a900473ffffffffffffffffffffffffffffffffffffffff1673ffffffffffffffffffffffffffffffffffffffff161461433e576040517f08c379a00000000000000000000000000000000000000000000000000000000081526004018080602001828103825260208152602001807f4f776e61626c653a2063616c6c6572206973206e6f7420746865206f776e657281525060200191505060405180910390fd5b6000600f54905060005b6001600780549050038110156143a55761436d82601554614fe890919063ffffffff16565b915060088290806001815401808255809150506001900390600052602060002001600090919091909150558080600101915050614348565b5080600d8190555060087fffffffffffffffffffffffffffffffffffffffffffffffffffffffffffffffff908060018154018082558091505060019003906000526020600020016000909190919091505550565b600c818154811061440657fe5b906000526020600020016000915090505481565b601e60003373ffffffffffffffffffffffffffffffffffffffff1673ffffffffffffffffffffffffffffffffffffffff16815260200190815260200160002060009054906101000a900460ff16806144a457503373ffffffffffffffffffffffffffffffffffffffff1661448c613977565b73ffffffffffffffffffffffffffffffffffffffff16145b6144ad57600080fd5b8060138190555050565b60145481565b601e60003373ffffffffffffffffffffffffffffffffffffffff1673ffffffffffffffffffffffffffffffffffffffff16815260200190815260200160002060009054906101000a900460ff168061454757503373ffffffffffffffffffffffffffffffffffffffff1661452f613977565b73ffffffffffffffffffffffffffffffffffffffff16145b61455057600080fd5b80600460006101000a81548173ffffffffffffffffffffffffffffffffffffffff021916908373ffffffffffffffffffffffffffffffffffffffff16021790555050565b600160009054906101000a900473ffffffffffffffffffffffffffffffffffffffff1681565b6000806000806000806145cd89896139a1565b9050600061460c601b546145fe8a6145f060065487614ed190919063ffffffff16565b614ed190919063ffffffff16565b614f5790919063ffffffff16565b9050600061476360008054906101000a900473ffffffffffffffffffffffffffffffffffffffff1673ffffffffffffffffffffffffffffffffffffffff166318160ddd6040518163ffffffff1660e01b815260040160206040518083038186803b15801561467957600080fd5b505afa15801561468d573d6000803e3d6000fd5b505050506040513d60208110156146a357600080fd5b810190808051906020019092919050505060008054906101000a900473ffffffffffffffffffffffffffffffffffffffff1673ffffffffffffffffffffffffffffffffffffffff1663355274ea6040518163ffffffff1660e01b815260040160206040518083038186803b15801561471a57600080fd5b505afa15801561472e573d6000803e3d6000fd5b505050506040513d602081101561474457600080fd5b810190808051906020019092919050505061523590919063ffffffff16565b9050818110156147855760009750809650600095506000945060009350614831565b6147ad606461479f60115485614ed190919063ffffffff16565b614f5790919063ffffffff16565b97508196506147da60646147cc60125485614ed190919063ffffffff16565b614f5790919063ffffffff16565b955061480460646147f660135485614ed190919063ffffffff16565b614f5790919063ffffffff16565b945061482e606461482060145485614ed190919063ffffffff16565b614f5790919063ffffffff16565b93505b505050939792965093509350565b600a818154811061484c57fe5b906000526020600020016000915090505481565b60186020528060005260406000206000915090505481565b614880614fe0565b73ffffffffffffffffffffffffffffffffffffffff16601c60009054906101000a900473ffffffffffffffffffffffffffffffffffffffff1673ffffffffffffffffffffffffffffffffffffffff1614614942576040517f08c379a00000000000000000000000000000000000000000000000000000000081526004018080602001828103825260208152602001807f4f776e61626c653a2063616c6c6572206973206e6f7420746865206f776e657281525060200191505060405180910390fd5b6001601e60008373ffffffffffffffffffffffffffffffffffffffff1673ffffffffffffffffffffffffffffffffffffffff16815260200190815260200160002060006101000a81548160ff02191690831515021790555050565b600b81815481106149aa57fe5b906000526020600020016000915090505481565b600260009054906101000a900473ffffffffffffffffffffffffffffffffffffffff1681565b601e60003373ffffffffffffffffffffffffffffffffffffffff1673ffffffffffffffffffffffffffffffffffffffff16815260200190815260200160002060009054906101000a900460ff1680614a6e57503373ffffffffffffffffffffffffffffffffffffffff16614a56613977565b73ffffffffffffffffffffffffffffffffffffffff16145b614a7757600080fd5b80600f8190555050565b601a6020528060005260406000206000915090508060000154908060020154908060030154905083565b6000601a60008473ffffffffffffffffffffffffffffffffffffffff1673ffffffffffffffffffffffffffffffffffffffff16815260200190815260200160002060010160008373ffffffffffffffffffffffffffffffffffffffff1673ffffffffffffffffffffffffffffffffffffffff16815260200190815260200160002054905092915050565b601e60003373ffffffffffffffffffffffffffffffffffffffff1673ffffffffffffffffffffffffffffffffffffffff16815260200190815260200160002060009054906101000a900460ff1680614bbf57503373ffffffffffffffffffffffffffffffffffffffff16614ba7613977565b73ffffffffffffffffffffffffffffffffffffffff16145b614bc857600080fd5b8060148190555050565b601f60009054906101000a900473ffffffffffffffffffffffffffffffffffffffff1681565b600560009054906101000a900473ffffffffffffffffffffffffffffffffffffffff1681565b60115481565b614c2c614fe0565b73ffffffffffffffffffffffffffffffffffffffff16601c60009054906101000a900473ffffffffffffffffffffffffffffffffffffffff1673ffffffffffffffffffffffffffffffffffffffff1614614cee576040517f08c379a00000000000000000000000000000000000000000000000000000000081526004018080602001828103825260208152602001807f4f776e61626c653a2063616c6c6572206973206e6f7420746865206f776e657281525060200191505060405180910390fd5b600073ffffffffffffffffffffffffffffffffffffffff168173ffffffffffffffffffffffffffffffffffffffff161415614d74576040517f08c379a0000000000000000000000000000000000000000000000000000000008152600401808060200182810382526026815260200180615aae6026913960400191505060405180910390fd5b8073ffffffffffffffffffffffffffffffffffffffff16601c60009054906101000a900473ffffffffffffffffffffffffffffffffffffffff1673ffffffffffffffffffffffffffffffffffffffff167f8be0079c531659141344cd1fd0a4f28419497f9722a3daafe3b4186f6b6457e060405160405180910390a380601c60006101000a81548173ffffffffffffffffffffffffffffffffffffffff021916908373ffffffffffffffffffffffffffffffffffffffff16021790555050565b601e60003373ffffffffffffffffffffffffffffffffffffffff1673ffffffffffffffffffffffffffffffffffffffff16815260200190815260200160002060009054906101000a900460ff1680614ebe57503373ffffffffffffffffffffffffffffffffffffffff16614ea6613977565b73ffffffffffffffffffffffffffffffffffffffff16145b614ec757600080fd5b8060128190555050565b600080831415614ee45760009050614f51565b6000828402905082848281614ef557fe5b0414614f4c576040517f08c379a0000000000000000000000000000000000000000000000000000000008152600401808060200182810382526021815260200180615b236021913960400191505060405180910390fd5b809150505b92915050565b6000808211614fce576040517f08c379a000000000000000000000000000000000000000000000000000000000815260040180806020018281038252601a8152602001807f536166654d6174683a206469766973696f6e206279207a65726f00000000000081525060200191505060405180910390fd5b818381614fd757fe5b04905092915050565b600033905090565b600080828401905083811015615066576040517f08c379a000000000000000000000000000000000000000000000000000000000815260040180806020018281038252601b8152602001807f536166654d6174683a206164646974696f6e206f766572666c6f77000000000081525060200191505060405180910390fd5b8091505092915050565b600081148061513e575060008373ffffffffffffffffffffffffffffffffffffffff1663dd62ed3e30856040518363ffffffff1660e01b8152600401808373ffffffffffffffffffffffffffffffffffffffff1681526020018273ffffffffffffffffffffffffffffffffffffffff1681526020019250505060206040518083038186803b15801561510157600080fd5b505afa158015615115573d6000803e3d6000fd5b505050506040513d602081101561512b57600080fd5b8101908080519060200190929190505050145b615193576040517f08c379a0000000000000000000000000000000000000000000000000000000008152600401808060200182810382526036815260200180615b976036913960400191505060405180910390fd5b6152308363095ea7b360e01b8484604051602401808373ffffffffffffffffffffffffffffffffffffffff16815260200182815260200192505050604051602081830303815290604052907bffffffffffffffffffffffffffffffffffffffffffffffffffffffff19166020820180517bffffffffffffffffffffffffffffffffffffffffffffffffffffffff83818316178352505050506156b4565b505050565b6000828211156152ad576040517f08c379a000000000000000000000000000000000000000000000000000000000815260040180806020018281038252601e8152602001807f536166654d6174683a207375627472616374696f6e206f766572666c6f77000081525060200191505060405180910390fd5b818303905092915050565b6000601782815481106152c757fe5b9060005260206000209060040201905060006019600084815260200190815260200160002060003373ffffffffffffffffffffffffffffffffffffffff1673ffffffffffffffffffffffffffffffffffffffff16815260200190815260200160002090506000816000015411156156af576000615382826001015461537464e8d4a5100061536687600301548760000154614ed190919063ffffffff16565b614f5790919063ffffffff16565b61523590919063ffffffff16565b905060008060009054906101000a900473ffffffffffffffffffffffffffffffffffffffff1673ffffffffffffffffffffffffffffffffffffffff166370a08231306040518263ffffffff1660e01b8152600401808273ffffffffffffffffffffffffffffffffffffffff16815260200191505060206040518083038186803b15801561540e57600080fd5b505afa158015615422573d6000803e3d6000fd5b505050506040513d602081101561543857600080fd5b8101908080519060200190929190505050905080821115615457578091505b60008211156156725760008054906101000a900473ffffffffffffffffffffffffffffffffffffffff1673ffffffffffffffffffffffffffffffffffffffff1663a9059cbb33846040518363ffffffff1660e01b8152600401808373ffffffffffffffffffffffffffffffffffffffff16815260200182815260200192505050602060405180830381600087803b1580156154f157600080fd5b505af1158015615505573d6000803e3d6000fd5b505050506040513d602081101561551b57600080fd5b8101908080519060200190929190505050506000600d5484600201541161561057615564606461555660105486614ed190919063ffffffff16565b614f5790919063ffffffff16565b905060008054906101000a900473ffffffffffffffffffffffffffffffffffffffff1673ffffffffffffffffffffffffffffffffffffffff1663282d3fdf33836040518363ffffffff1660e01b8152600401808373ffffffffffffffffffffffffffffffffffffffff16815260200182815260200192505050600060405180830381600087803b1580156155f757600080fd5b505af115801561560b573d6000803e3d6000fd5b505050505b438460020181905550853373ffffffffffffffffffffffffffffffffffffffff167f26d323712a1b961bf0f3352c8f3fd8663a97a892cf4fde67fb6d8597275882538584604051808381526020018281526020019250505060405180910390a3505b6156a464e8d4a5100061569686600301548660000154614ed190919063ffffffff16565b614f5790919063ffffffff16565b836001018190555050505b505050565b6060615716826040518060400160405280602081526020017f5361666545524332303a206c6f772d6c6576656c2063616c6c206661696c65648152508573ffffffffffffffffffffffffffffffffffffffff166157a39092919063ffffffff16565b905060008151111561579e5780806020019051602081101561573757600080fd5b810190808051906020019092919050505061579d576040517f08c379a000000000000000000000000000000000000000000000000000000000815260040180806020018281038252602a815260200180615b6d602a913960400191505060405180910390fd5b5b505050565b60606157b284846000856157bb565b90509392505050565b606082471015615816576040517f08c379a0000000000000000000000000000000000000000000000000000000008152600401808060200182810382526026815260200180615ad46026913960400191505060405180910390fd5b61581f85615964565b615891576040517f08c379a000000000000000000000000000000000000000000000000000000000815260040180806020018281038252601d8152602001807f416464726573733a2063616c6c20746f206e6f6e2d636f6e747261637400000081525060200191505060405180910390fd5b600060608673ffffffffffffffffffffffffffffffffffffffff1685876040518082805190602001908083835b602083106158e157805182526020820191506020810190506020830392506158be565b6001836020036101000a03801982511681845116808217855250505050505090500191505060006040518083038185875af1925050503d8060008114615943576040519150601f19603f3d011682016040523d82523d6000602084013e615948565b606091505b5091509150615958828286615977565b92505050949350505050565b600080823b905060008111915050919050565b6060831561598757829050615a3c565b60008351111561599a5782518084602001fd5b816040517f08c379a00000000000000000000000000000000000000000000000000000000081526004018080602001828103825283818151815260200191508051906020019080838360005b83811015615a015780820151818401526020810190506159e6565b50505050905090810190601f168015615a2e5780820380516001836020036101000a031916815260200191505b509250505060405180910390fd5b9392505050565b828054828255906000526020600020908101928215615a7f579160200282015b82811115615a7e578251825591602001919060010190615a63565b5b509050615a8c9190615a90565b5090565b5b80821115615aa9576000816000905550600101615a91565b509056fe4f776e61626c653a206e6577206f776e657220697320746865207a65726f2061646472657373416464726573733a20696e73756666696369656e742062616c616e636520666f722063616c6c4f776e61626c653a206e6577206f776e6572206d7573742062652070726576696f7573206f776e6572536166654d6174683a206d756c7469706c69636174696f6e206f766572666c6f774f776e61626c653a2063616c6c6572206973206e6f74207468652070726576696f7573206f776e65725361666545524332303a204552433230206f7065726174696f6e20646964206e6f7420737563636565645361666545524332303a20617070726f76652066726f6d206e6f6e2d7a65726f20746f206e6f6e2d7a65726f20616c6c6f77616e6365a2646970667358221220c8dbdc7cf70986db34b0a48f254456353ca7f4aed755e11c33fdfa448403407964736f6c634300060c0033",
  "immutableReferences": {},
  "source": "// SPDX-License-Identifier: MIT\npragma solidity 0.6.12;\n\nimport \"./QuicMasterStorage.sol\";\n// QuicMasterFarmer is the master of Quic. He can make Quic and he is a fair guy.\n//\n// Note that it's ownable and the owner wields tremendous power. The ownership\n// will be transferred to a governance smart contract once Quic is sufficiently\n// distributed and the community can show to govern itself.\n//\ncontract QuicMasterFarmer is QuicMasterStorage, Ownable, Authorizable {\n    using SafeMath for uint256;\n    using SafeERC20 for IERC20;\n\n    // Set at contract creation and is not able to updated or changed\n    address public transactionsContract;\n\n    constructor(\n        QuicToken _Quic,\n        address _devaddr,\n\t\taddress _liquidityaddr,\n\t\taddress _comfundaddr,\n\t\taddress _founderaddr,\n        uint256 _rewardPerBlock,\n        uint256 _startBlock,\n        uint256 _halvingAfterBlock,\n        uint256 _userDepFee,\n        uint256[] memory _blockDeltaStartStage,\n        uint256[] memory _blockDeltaEndStage,\n        uint256[] memory _userFeeStage,\n        uint256[] memory _devFeeStage,\n        address _transactionsContract\n    ) public {\n        Quic = _Quic;\n        devaddr = _devaddr;\n\t\tliquidityaddr = _liquidityaddr;\n\t\tcomfundaddr = _comfundaddr;\n\t\tfounderaddr = _founderaddr;\n        REWARD_PER_BLOCK = _rewardPerBlock;\n        START_BLOCK = _startBlock;\n        HALVING_AFTER = _halvingAfterBlock;\n\t    userDepFee = _userDepFee;\n\t    blockDeltaStartStage = _blockDeltaStartStage;\n\t    blockDeltaEndStage = _blockDeltaEndStage;\n\t    userFeeStage = _userFeeStage;\n\t    devFeeStage = _devFeeStage;\n        transactionsContract = _transactionsContract;\n    }\n\n    function poolLength() external view returns (uint256) {\n        return poolInfo.length;\n    }\n\n    function setup() public onlyOwner {\n        uint256 halvingAtBlock = START_BLOCK; \n        for (uint256 i = 0; i < REWARD_MULTIPLIER.length - 1; i++) {\n            halvingAtBlock = HALVING_AFTER.add(halvingAtBlock);\n            HALVING_AT_BLOCK.push(halvingAtBlock);\n        }\n        FINISH_BONUS_AT_BLOCK = halvingAtBlock;\n        HALVING_AT_BLOCK.push(uint256(-1));\n    }\n\n\n    // Add a new lp to the pool. Can only be called by the owner.\n    function add(uint256 _allocPoint, IERC20 _lpToken, bool _withUpdate) public onlyOwner {\n        require(poolId1[address(_lpToken)] == 0, \"lp exists\");\n        if (_withUpdate) {\n            massUpdatePools();\n        }\n        uint256 lastRewardBlock = block.number > START_BLOCK ? block.number : START_BLOCK;\n        totalAllocPoint = totalAllocPoint.add(_allocPoint);\n        poolId1[address(_lpToken)] = poolInfo.length + 1;\n        poolInfo.push(PoolInfo({\n            lpToken: _lpToken,\n            allocPoint: _allocPoint,\n            lastRewardBlock: lastRewardBlock,\n            accQuicPerShare: 0\n        }));\n    }\n\n     // Update the given pool's Quic allocation point. Can only be called by the owner.\n    function set(uint256 _pid, uint256 _allocPoint, bool _withUpdate) public onlyOwner {\n        if (_withUpdate) {\n            massUpdatePools();\n        }\n        totalAllocPoint = totalAllocPoint.sub(poolInfo[_pid].allocPoint).add(_allocPoint);\n        poolInfo[_pid].allocPoint = _allocPoint;\n    }\n\n    // Set the migrator contract. Can only be called by the owner.\n    function setMigrator(IMigratorToQuicSwap _migrator) public onlyOwner {\n        migrator = _migrator;\n    }\n\n    // Migrate lp token to another lp contract. Can be called by anyone. We trust that migrator contract is good.\n    function migrate(uint256 _pid) public {\n        require(address(migrator) != address(0), \"migrate: no migrator\");\n        PoolInfo storage pool = poolInfo[_pid];\n        IERC20 lpToken = pool.lpToken;\n        uint256 bal = lpToken.balanceOf(address(this));\n        lpToken.safeApprove(address(migrator), bal);\n        IERC20 newLpToken = migrator.migrate(lpToken);\n        require(bal == newLpToken.balanceOf(address(this)), \"migrate: bad\");\n        pool.lpToken = newLpToken;\n    }\n\n    // Update reward variables for all pools. Be careful of gas spending!\n    function massUpdatePools() public {\n        for (uint256 pid = 0; pid < poolInfo.length; ++pid) {\n            updatePool(pid);\n        }\n    }\n\n    // |--------------------------------------|\n    // [20, 30, 40, 50, 60, 70, 80, 99999999]\n    // Return reward multiplier over the given _from to _to block.\n    function getMultiplier(uint256 _from, uint256 _to) public view returns (uint256) {\n        uint256 result;\n        if (_from < START_BLOCK) return 0;\n\n        for (uint256 i = 0; i < HALVING_AT_BLOCK.length; i++) {\n            uint256 endBlock = HALVING_AT_BLOCK[i];\n\n            if (_to <= endBlock) {\n                uint256 m = _to.sub(_from).mul(REWARD_MULTIPLIER[i]);\n                return result.add(m);\n            }\n\n            if (_from < endBlock) {\n                uint256 m = endBlock.sub(_from).mul(REWARD_MULTIPLIER[i]);\n                _from = endBlock;\n                result = result.add(m);\n            }\n        }\n\n        return result;\n    }\n\n    function getPoolReward(uint256 _from, uint256 _to, uint256 _allocPoint) public view returns (uint256 forDev, uint256 forFarmer, uint256 forLP, uint256 forCom, uint256 forFounders) {\n        uint256 multiplier = getMultiplier(_from, _to);\n        uint256 amount = multiplier.mul(REWARD_PER_BLOCK).mul(_allocPoint).div(totalAllocPoint);\n        uint256 QuicCanMint = Quic.cap().sub(Quic.totalSupply());\n\n        if (QuicCanMint < amount) {\n            forDev = 0;\n\t\t\tforFarmer = QuicCanMint;\n\t\t\tforLP = 0;\n\t\t\tforCom = 0;\n\t\t\tforFounders = 0;\n        }\n        else {\n            forDev = amount.mul(PERCENT_FOR_DEV).div(100);\n\t\t\tforFarmer = amount;\n\t\t\tforLP = amount.mul(PERCENT_FOR_LP).div(100);\n\t\t\tforCom = amount.mul(PERCENT_FOR_COM).div(100);\n\t\t\tforFounders = amount.mul(PERCENT_FOR_FOUNDERS).div(100);\n        }\n    }\n\n    function updatePool(uint256 _pid) public {\n        (bool delegateCallStatus, ) = transactionsContract.delegatecall(\n            abi.encodeWithSignature(\"updatePool(uint256)\", _pid)\n        );\n        require(delegateCallStatus, \"UDCF\");\n    }\n\n    // View function to see pending Quic on frontend.\n    function pendingReward(uint256 _pid, address _user) external view returns (uint256) {\n        PoolInfo storage pool = poolInfo[_pid];\n        UserInfo storage user = userInfo[_pid][_user];\n        uint256 accQuicPerShare = pool.accQuicPerShare;\n        uint256 lpSupply = pool.lpToken.balanceOf(address(this));\n        if (block.number > pool.lastRewardBlock && lpSupply > 0) {\n            uint256 QuicForFarmer;\n            (, QuicForFarmer, , ,) = getPoolReward(pool.lastRewardBlock, block.number, pool.allocPoint);\n            accQuicPerShare = accQuicPerShare.add(QuicForFarmer.mul(1e12).div(lpSupply));\n\n        }\n        return user.amount.mul(accQuicPerShare).div(1e12).sub(user.rewardDebt);\n    }\n\n    function claimReward(uint256 _pid) public {\n        updatePool(_pid);\n        _harvest(_pid);\n    }\n\n    // lock 85% of reward if it come from bounus time\n    function _harvest(uint256 _pid) internal {\n        PoolInfo storage pool = poolInfo[_pid];\n        UserInfo storage user = userInfo[_pid][msg.sender];\n\n        if (user.amount > 0) {\n            uint256 pending = user.amount.mul(pool.accQuicPerShare).div(1e12).sub(user.rewardDebt);\n            uint256 masterBal = Quic.balanceOf(address(this));\n\n            if (pending > masterBal) {\n                pending = masterBal;\n            }\n            \n            if(pending > 0) {\n                Quic.transfer(msg.sender, pending);\n                uint256 lockAmount = 0;\n                if (user.rewardDebtAtBlock <= FINISH_BONUS_AT_BLOCK) {\n                    lockAmount = pending.mul(PERCENT_LOCK_BONUS_REWARD).div(100);\n                    Quic.lock(msg.sender, lockAmount);\n                }\n\n                user.rewardDebtAtBlock = block.number;\n\n                emit SendQuicReward(msg.sender, _pid, pending, lockAmount);\n            }\n\n            user.rewardDebt = user.amount.mul(pool.accQuicPerShare).div(1e12);\n        }\n    }\n\n    // Deposit LP tokens to QuicMasterFarmer for $QUIC allocation.\n    function deposit(uint256 _pid, uint256 _amount, address _ref) public {\n        (bool delegateCallStatus, ) = transactionsContract.delegatecall(\n            abi.encodeWithSignature(\"deposit(uint256,uint256,address)\", _pid, _amount, _ref)\n        );\n        require(delegateCallStatus, \"DDCF\");\n    }\n\n  // Withdraw LP tokens from QuicMasterFarmer.\n    function withdraw(uint256 _pid, uint256 _amount, address _ref) public {\n        (bool delegateCallStatus, ) = transactionsContract.delegatecall(\n            abi.encodeWithSignature(\"withdraw(uint256,uint256,address)\", _pid, _amount, _ref)\n        );\n        require(delegateCallStatus, \"WDCF\");\n    }\n\n\n    // Withdraw without caring about rewards. EMERGENCY ONLY. This has the same 25% fee as same block withdrawals to prevent abuse of thisfunction.\n    function emergencyWithdraw(uint256 _pid) public {\n        (bool delegateCallStatus, ) = transactionsContract.delegatecall(\n            abi.encodeWithSignature(\"emergencyWithdraw(uint256)\", _pid)\n        );\n        require(delegateCallStatus, \"EDCF\");\n    }\n\n    // Safe Quic transfer function, just in case if rounding error causes pool to not have enough Quic.\n    function safeQuicTransfer(address _to, uint256 _amount) internal {\n        (bool delegateCallStatus, ) = transactionsContract.delegatecall(\n            abi.encodeWithSignature(\"safeQuicTransfer(address,uint256)\", _to, _amount)\n        );\n        require(delegateCallStatus, \"SDCF\");\n    }\n    function getGlobalAmount(address _user) public view returns(uint256) {\n        return userGlobalInfo[_user].globalAmount;\n    }\n    \n     function getGlobalRefAmount(address _user) public view returns(uint256) {\n        return userGlobalInfo[_user].globalRefAmount;\n    }\n    \n    function getTotalRefs(address _user) public view returns(uint256) {\n        return userGlobalInfo[_user].totalReferals;\n    }\n    \n    function getRefValueOf(address _user, address _user2) public view returns(uint256) {\n        return  userGlobalInfo[_user].referrals[_user2];   \n    }\n\n    // Update dev address by the previous dev.\n    function dev(address _devaddr) public onlyAuthorized {\n        devaddr = _devaddr;\n    }\n    \n    // Update Finish Bonus Block\n    function bonusFinishUpdate(uint256 _newFinish) public onlyAuthorized {\n        FINISH_BONUS_AT_BLOCK = _newFinish;\n    }\n    \n    // Update Halving At Block\n    function halvingUpdate(uint256[] memory _newHalving) public onlyAuthorized {\n        HALVING_AT_BLOCK = _newHalving;\n    }\n    \n    // Update Liquidityaddr\n    function lpUpdate(address _newLP) public onlyAuthorized {\n       liquidityaddr = _newLP;\n    }\n    \n    // Update comfundaddr\n    function comUpdate(address _newCom) public onlyAuthorized {\n       comfundaddr = _newCom;\n    }\n    \n    // Update founderaddr\n    function founderUpdate(address _newFounder) public onlyAuthorized {\n       founderaddr = _newFounder;\n    }\n    \n    // Update Reward Per Block\n    function rewardUpdate(uint256 _newReward) public onlyAuthorized {\n       REWARD_PER_BLOCK = _newReward;\n    }\n    \n    // Update Rewards Mulitplier Array\n    function rewardMulUpdate(uint256[] memory _newMulReward) public onlyAuthorized {\n       REWARD_MULTIPLIER = _newMulReward;\n    }\n    \n    // Update % lock for general users\n    function lockUpdate(uint _newlock) public onlyAuthorized {\n       PERCENT_LOCK_BONUS_REWARD = _newlock;\n    }\n    \n    // Update % lock for dev\n    function lockdevUpdate(uint _newdevlock) public onlyAuthorized {\n       PERCENT_FOR_DEV = _newdevlock;\n    }\n    \n    // Update % lock for LP\n    function locklpUpdate(uint _newlplock) public onlyAuthorized {\n       PERCENT_FOR_LP = _newlplock;\n    }\n    \n    // Update % lock for COM\n    function lockcomUpdate(uint _newcomlock) public onlyAuthorized {\n       PERCENT_FOR_COM = _newcomlock;\n    }\n    \n    // Update % lock for Founders\n    function lockfounderUpdate(uint _newfounderlock) public onlyAuthorized {\n       PERCENT_FOR_FOUNDERS = _newfounderlock;\n    }\n    \n    // Update START_BLOCK\n    function startblockUpdate(uint _newstartblock) public onlyAuthorized {\n       START_BLOCK = _newstartblock;\n    }\n\n    function getNewRewardPerBlock(uint256 pid1) public view returns (uint256) {\n        uint256 multiplier = getMultiplier(block.number -1, block.number);\n        if (pid1 == 0) {\n            return multiplier.mul(REWARD_PER_BLOCK);\n        }\n        else {\n            return multiplier\n                .mul(REWARD_PER_BLOCK)\n                .mul(poolInfo[pid1 - 1].allocPoint)\n                .div(totalAllocPoint);\n        }\n    }\n\t\n\tfunction reviseWithdraw(uint _pid, address _user, uint256 _block) public onlyAuthorized() {\n\t   userInfo[_pid][_user].lastWithdrawBlock = _block;\n\t    \n\t}\n\t\n\tfunction reviseDeposit(uint _pid, address _user, uint256 _block) public onlyAuthorized() {\n\t   userInfo[_pid][_user].firstDepositBlock = _block;\n\t    \n\t}\n\t\n\tfunction setStageStarts(uint[] memory _blockStarts) public onlyAuthorized() {\n        blockDeltaStartStage = _blockStarts;\n    }\n    \n    function setStageEnds(uint[] memory _blockEnds) public onlyAuthorized() {\n        blockDeltaEndStage = _blockEnds;\n    }\n    \n    function setUserFeeStage(uint[] memory _userFees) public onlyAuthorized() {\n        userFeeStage = _userFees;\n    }\n    \n    function setDevFeeStage(uint[] memory _devFees) public onlyAuthorized() {\n        devFeeStage = _devFees;\n    }\n    \n    function setUserDepFee(uint _usrDepFees) public onlyAuthorized() {\n        userDepFee = _usrDepFees;\n    }\n\n}",
  "sourcePath": "/Users/mark.wagner/Dropbox/projects/quic.finance/contracts/QuicMasterFarmer.sol",
  "compiler": {
    "name": "solc",
    "version": "0.6.12+commit.27d51765.Emscripten.clang"
  },
  "schemaVersion": "3.3.4",
  "updatedAt": "2021-05-13T19:31:39.471Z",
  "networkType": "ethereum",
  "devdoc": {
    "kind": "dev",
    "methods": {
      "owner()": {
        "details": "Returns the address of the current owner."
      },
      "previousOwner()": {
        "details": "Returns the address of the previous owner."
      },
      "renounceOwnership()": {
        "details": "Leaves the contract without owner. It will not be possible to call `onlyOwner` functions anymore. Can only be called by the current owner. NOTE: Renouncing ownership will leave the contract without an owner, thereby removing any functionality that is only available to the owner."
      },
      "transferOwnership(address)": {
        "details": "Transfers ownership of the contract to a new account (`newOwner`). Can only be called by the current owner."
      }
    },
    "version": 1
  },
  "userdoc": {
    "kind": "user",
    "methods": {},
    "version": 1
  }
}