{
  "contractName": "QuicMasterTransactions",
  "abi": [
    {
      "anonymous": false,
      "inputs": [
        {
          "indexed": true,
          "internalType": "address",
          "name": "user",
          "type": "address"
        },
        {
          "indexed": true,
          "internalType": "uint256",
          "name": "pid",
          "type": "uint256"
        },
        {
          "indexed": false,
          "internalType": "uint256",
          "name": "amount",
          "type": "uint256"
        }
      ],
      "name": "Deposit",
      "type": "event"
    },
    {
      "anonymous": false,
      "inputs": [
        {
          "indexed": true,
          "internalType": "address",
          "name": "user",
          "type": "address"
        },
        {
          "indexed": true,
          "internalType": "uint256",
          "name": "pid",
          "type": "uint256"
        },
        {
          "indexed": false,
          "internalType": "uint256",
          "name": "amount",
          "type": "uint256"
        }
      ],
      "name": "EmergencyWithdraw",
      "type": "event"
    },
    {
      "anonymous": false,
      "inputs": [
        {
          "indexed": true,
          "internalType": "address",
          "name": "previousOwner",
          "type": "address"
        },
        {
          "indexed": true,
          "internalType": "address",
          "name": "newOwner",
          "type": "address"
        }
      ],
      "name": "OwnershipTransferred",
      "type": "event"
    },
    {
      "anonymous": false,
      "inputs": [
        {
          "indexed": true,
          "internalType": "address",
          "name": "user",
          "type": "address"
        },
        {
          "indexed": true,
          "internalType": "uint256",
          "name": "pid",
          "type": "uint256"
        },
        {
          "indexed": false,
          "internalType": "uint256",
          "name": "amount",
          "type": "uint256"
        },
        {
          "indexed": false,
          "internalType": "uint256",
          "name": "lockAmount",
          "type": "uint256"
        }
      ],
      "name": "SendQuicReward",
      "type": "event"
    },
    {
      "anonymous": false,
      "inputs": [
        {
          "indexed": true,
          "internalType": "address",
          "name": "user",
          "type": "address"
        },
        {
          "indexed": true,
          "internalType": "uint256",
          "name": "pid",
          "type": "uint256"
        },
        {
          "indexed": false,
          "internalType": "uint256",
          "name": "amount",
          "type": "uint256"
        }
      ],
      "name": "Withdraw",
      "type": "event"
    },
    {
      "inputs": [],
      "name": "FINISH_BONUS_AT_BLOCK",
      "outputs": [
        {
          "internalType": "uint256",
          "name": "",
          "type": "uint256"
        }
      ],
      "stateMutability": "view",
      "type": "function",
      "constant": true
    },
    {
      "inputs": [],
      "name": "HALVING_AFTER",
      "outputs": [
        {
          "internalType": "uint256",
          "name": "",
          "type": "uint256"
        }
      ],
      "stateMutability": "view",
      "type": "function",
      "constant": true
    },
    {
      "inputs": [
        {
          "internalType": "uint256",
          "name": "",
          "type": "uint256"
        }
      ],
      "name": "HALVING_AT_BLOCK",
      "outputs": [
        {
          "internalType": "uint256",
          "name": "",
          "type": "uint256"
        }
      ],
      "stateMutability": "view",
      "type": "function",
      "constant": true
    },
    {
      "inputs": [],
      "name": "PERCENT_FOR_COM",
      "outputs": [
        {
          "internalType": "uint256",
          "name": "",
          "type": "uint256"
        }
      ],
      "stateMutability": "view",
      "type": "function",
      "constant": true
    },
    {
      "inputs": [],
      "name": "PERCENT_FOR_DEV",
      "outputs": [
        {
          "internalType": "uint256",
          "name": "",
          "type": "uint256"
        }
      ],
      "stateMutability": "view",
      "type": "function",
      "constant": true
    },
    {
      "inputs": [],
      "name": "PERCENT_FOR_FOUNDERS",
      "outputs": [
        {
          "internalType": "uint256",
          "name": "",
          "type": "uint256"
        }
      ],
      "stateMutability": "view",
      "type": "function",
      "constant": true
    },
    {
      "inputs": [],
      "name": "PERCENT_FOR_LP",
      "outputs": [
        {
          "internalType": "uint256",
          "name": "",
          "type": "uint256"
        }
      ],
      "stateMutability": "view",
      "type": "function",
      "constant": true
    },
    {
      "inputs": [],
      "name": "PERCENT_LOCK_BONUS_REWARD",
      "outputs": [
        {
          "internalType": "uint256",
          "name": "",
          "type": "uint256"
        }
      ],
      "stateMutability": "view",
      "type": "function",
      "constant": true
    },
    {
      "inputs": [],
      "name": "Quic",
      "outputs": [
        {
          "internalType": "contract QuicToken",
          "name": "",
          "type": "address"
        }
      ],
      "stateMutability": "view",
      "type": "function",
      "constant": true
    },
    {
      "inputs": [
        {
          "internalType": "uint256",
          "name": "",
          "type": "uint256"
        }
      ],
      "name": "REWARD_MULTIPLIER",
      "outputs": [
        {
          "internalType": "uint256",
          "name": "",
          "type": "uint256"
        }
      ],
      "stateMutability": "view",
      "type": "function",
      "constant": true
    },
    {
      "inputs": [],
      "name": "REWARD_PER_BLOCK",
      "outputs": [
        {
          "internalType": "uint256",
          "name": "",
          "type": "uint256"
        }
      ],
      "stateMutability": "view",
      "type": "function",
      "constant": true
    },
    {
      "inputs": [],
      "name": "START_BLOCK",
      "outputs": [
        {
          "internalType": "uint256",
          "name": "",
          "type": "uint256"
        }
      ],
      "stateMutability": "view",
      "type": "function",
      "constant": true
    },
    {
      "inputs": [
        {
          "internalType": "address",
          "name": "_toAdd",
          "type": "address"
        }
      ],
      "name": "addAuthorized",
      "outputs": [],
      "stateMutability": "nonpayable",
      "type": "function"
    },
    {
      "inputs": [
        {
          "internalType": "address",
          "name": "",
          "type": "address"
        }
      ],
      "name": "authorized",
      "outputs": [
        {
          "internalType": "bool",
          "name": "",
          "type": "bool"
        }
      ],
      "stateMutability": "view",
      "type": "function",
      "constant": true
    },
    {
      "inputs": [
        {
          "internalType": "uint256",
          "name": "",
          "type": "uint256"
        }
      ],
      "name": "blockDeltaEndStage",
      "outputs": [
        {
          "internalType": "uint256",
          "name": "",
          "type": "uint256"
        }
      ],
      "stateMutability": "view",
      "type": "function",
      "constant": true
    },
    {
      "inputs": [
        {
          "internalType": "uint256",
          "name": "",
          "type": "uint256"
        }
      ],
      "name": "blockDeltaStartStage",
      "outputs": [
        {
          "internalType": "uint256",
          "name": "",
          "type": "uint256"
        }
      ],
      "stateMutability": "view",
      "type": "function",
      "constant": true
    },
    {
      "inputs": [],
      "name": "comfundaddr",
      "outputs": [
        {
          "internalType": "address",
          "name": "",
          "type": "address"
        }
      ],
      "stateMutability": "view",
      "type": "function",
      "constant": true
    },
    {
      "inputs": [],
      "name": "devDepFee",
      "outputs": [
        {
          "internalType": "uint256",
          "name": "",
          "type": "uint256"
        }
      ],
      "stateMutability": "view",
      "type": "function",
      "constant": true
    },
    {
      "inputs": [
        {
          "internalType": "uint256",
          "name": "",
          "type": "uint256"
        }
      ],
      "name": "devFeeStage",
      "outputs": [
        {
          "internalType": "uint256",
          "name": "",
          "type": "uint256"
        }
      ],
      "stateMutability": "view",
      "type": "function",
      "constant": true
    },
    {
      "inputs": [],
      "name": "devaddr",
      "outputs": [
        {
          "internalType": "address",
          "name": "",
          "type": "address"
        }
      ],
      "stateMutability": "view",
      "type": "function",
      "constant": true
    },
    {
      "inputs": [],
      "name": "founderaddr",
      "outputs": [
        {
          "internalType": "address",
          "name": "",
          "type": "address"
        }
      ],
      "stateMutability": "view",
      "type": "function",
      "constant": true
    },
    {
      "inputs": [],
      "name": "liquidityaddr",
      "outputs": [
        {
          "internalType": "address",
          "name": "",
          "type": "address"
        }
      ],
      "stateMutability": "view",
      "type": "function",
      "constant": true
    },
    {
      "inputs": [],
      "name": "migrator",
      "outputs": [
        {
          "internalType": "contract IMigratorToQuicSwap",
          "name": "",
          "type": "address"
        }
      ],
      "stateMutability": "view",
      "type": "function",
      "constant": true
    },
    {
      "inputs": [],
      "name": "owner",
      "outputs": [
        {
          "internalType": "address",
          "name": "",
          "type": "address"
        }
      ],
      "stateMutability": "view",
      "type": "function",
      "constant": true
    },
    {
      "inputs": [
        {
          "internalType": "address",
          "name": "",
          "type": "address"
        }
      ],
      "name": "poolId1",
      "outputs": [
        {
          "internalType": "uint256",
          "name": "",
          "type": "uint256"
        }
      ],
      "stateMutability": "view",
      "type": "function",
      "constant": true
    },
    {
      "inputs": [
        {
          "internalType": "uint256",
          "name": "",
          "type": "uint256"
        }
      ],
      "name": "poolInfo",
      "outputs": [
        {
          "internalType": "contract IERC20",
          "name": "lpToken",
          "type": "address"
        },
        {
          "internalType": "uint256",
          "name": "allocPoint",
          "type": "uint256"
        },
        {
          "internalType": "uint256",
          "name": "lastRewardBlock",
          "type": "uint256"
        },
        {
          "internalType": "uint256",
          "name": "accQuicPerShare",
          "type": "uint256"
        }
      ],
      "stateMutability": "view",
      "type": "function",
      "constant": true
    },
    {
      "inputs": [
        {
          "internalType": "address",
          "name": "_toRemove",
          "type": "address"
        }
      ],
      "name": "removeAuthorized",
      "outputs": [],
      "stateMutability": "nonpayable",
      "type": "function"
    },
    {
      "inputs": [],
      "name": "renounceOwnership",
      "outputs": [],
      "stateMutability": "nonpayable",
      "type": "function"
    },
    {
      "inputs": [],
      "name": "totalAllocPoint",
      "outputs": [
        {
          "internalType": "uint256",
          "name": "",
          "type": "uint256"
        }
      ],
      "stateMutability": "view",
      "type": "function",
      "constant": true
    },
    {
      "inputs": [
        {
          "internalType": "address",
          "name": "newOwner",
          "type": "address"
        }
      ],
      "name": "transferOwnership",
      "outputs": [],
      "stateMutability": "nonpayable",
      "type": "function"
    },
    {
      "inputs": [],
      "name": "usdOracle",
      "outputs": [
        {
          "internalType": "address",
          "name": "",
          "type": "address"
        }
      ],
      "stateMutability": "view",
      "type": "function",
      "constant": true
    },
    {
      "inputs": [],
      "name": "userDepFee",
      "outputs": [
        {
          "internalType": "uint256",
          "name": "",
          "type": "uint256"
        }
      ],
      "stateMutability": "view",
      "type": "function",
      "constant": true
    },
    {
      "inputs": [
        {
          "internalType": "uint256",
          "name": "",
          "type": "uint256"
        }
      ],
      "name": "userFeeStage",
      "outputs": [
        {
          "internalType": "uint256",
          "name": "",
          "type": "uint256"
        }
      ],
      "stateMutability": "view",
      "type": "function",
      "constant": true
    },
    {
      "inputs": [
        {
          "internalType": "address",
          "name": "",
          "type": "address"
        }
      ],
      "name": "userGlobalInfo",
      "outputs": [
        {
          "internalType": "uint256",
          "name": "globalAmount",
          "type": "uint256"
        },
        {
          "internalType": "uint256",
          "name": "totalReferals",
          "type": "uint256"
        },
        {
          "internalType": "uint256",
          "name": "globalRefAmount",
          "type": "uint256"
        }
      ],
      "stateMutability": "view",
      "type": "function",
      "constant": true
    },
    {
      "inputs": [
        {
          "internalType": "uint256",
          "name": "",
          "type": "uint256"
        },
        {
          "internalType": "address",
          "name": "",
          "type": "address"
        }
      ],
      "name": "userInfo",
      "outputs": [
        {
          "internalType": "uint256",
          "name": "amount",
          "type": "uint256"
        },
        {
          "internalType": "uint256",
          "name": "rewardDebt",
          "type": "uint256"
        },
        {
          "internalType": "uint256",
          "name": "rewardDebtAtBlock",
          "type": "uint256"
        },
        {
          "internalType": "uint256",
          "name": "lastWithdrawBlock",
          "type": "uint256"
        },
        {
          "internalType": "uint256",
          "name": "firstDepositBlock",
          "type": "uint256"
        },
        {
          "internalType": "uint256",
          "name": "blockdelta",
          "type": "uint256"
        },
        {
          "internalType": "uint256",
          "name": "lastDepositBlock",
          "type": "uint256"
        }
      ],
      "stateMutability": "view",
      "type": "function",
      "constant": true
    },
    {
      "inputs": [
        {
          "internalType": "uint256",
          "name": "_from",
          "type": "uint256"
        },
        {
          "internalType": "uint256",
          "name": "_to",
          "type": "uint256"
        }
      ],
      "name": "getMultiplier",
      "outputs": [
        {
          "internalType": "uint256",
          "name": "",
          "type": "uint256"
        }
      ],
      "stateMutability": "view",
      "type": "function",
      "constant": true
    },
    {
      "inputs": [
        {
          "internalType": "uint256",
          "name": "_from",
          "type": "uint256"
        },
        {
          "internalType": "uint256",
          "name": "_to",
          "type": "uint256"
        },
        {
          "internalType": "uint256",
          "name": "_allocPoint",
          "type": "uint256"
        }
      ],
      "name": "getPoolReward",
      "outputs": [
        {
          "internalType": "uint256",
          "name": "forDev",
          "type": "uint256"
        },
        {
          "internalType": "uint256",
          "name": "forFarmer",
          "type": "uint256"
        },
        {
          "internalType": "uint256",
          "name": "forLP",
          "type": "uint256"
        },
        {
          "internalType": "uint256",
          "name": "forCom",
          "type": "uint256"
        },
        {
          "internalType": "uint256",
          "name": "forFounders",
          "type": "uint256"
        }
      ],
      "stateMutability": "view",
      "type": "function",
      "constant": true
    },
    {
      "inputs": [
        {
          "internalType": "uint256",
          "name": "_pid",
          "type": "uint256"
        }
      ],
      "name": "updatePool",
      "outputs": [],
      "stateMutability": "nonpayable",
      "type": "function"
    },
    {
      "inputs": [
        {
          "internalType": "uint256",
          "name": "_pid",
          "type": "uint256"
        }
      ],
      "name": "claimReward",
      "outputs": [],
      "stateMutability": "nonpayable",
      "type": "function"
    },
    {
      "inputs": [
        {
          "internalType": "uint256",
          "name": "_pid",
          "type": "uint256"
        },
        {
          "internalType": "uint256",
          "name": "_amount",
          "type": "uint256"
        },
        {
          "internalType": "address",
          "name": "_ref",
          "type": "address"
        }
      ],
      "name": "deposit",
      "outputs": [],
      "stateMutability": "nonpayable",
      "type": "function"
    },
    {
      "inputs": [
        {
          "internalType": "uint256",
          "name": "_pid",
          "type": "uint256"
        },
        {
          "internalType": "uint256",
          "name": "_amount",
          "type": "uint256"
        },
        {
          "internalType": "address",
          "name": "_ref",
          "type": "address"
        }
      ],
      "name": "withdraw",
      "outputs": [],
      "stateMutability": "nonpayable",
      "type": "function"
    },
    {
      "inputs": [
        {
          "internalType": "uint256",
          "name": "_pid",
          "type": "uint256"
        }
      ],
      "name": "emergencyWithdraw",
      "outputs": [],
      "stateMutability": "nonpayable",
      "type": "function"
    }
  ],
  "bytecode": "0x608060405260405180610ba0016040528061010061ffff16815260200161010061ffff16815260200161010061ffff16815260200161010061ffff16815260200161010061ffff16815260200161010061ffff168152602001608061ffff168152602001608061ffff168152602001608061ffff168152602001608061ffff168152602001608061ffff168152602001608061ffff168152602001608061ffff168152602001608061ffff168152602001608061ffff168152602001604061ffff168152602001604061ffff168152602001604061ffff168152602001604061ffff168152602001604061ffff168152602001604061ffff168152602001604061ffff168152602001604061ffff168152602001604061ffff168152602001604061ffff168152602001604061ffff168152602001601061ffff168152602001600861ffff168152602001600861ffff168152602001600861ffff168152602001600861ffff168152602001602061ffff168152602001602061ffff168152602001604061ffff168152602001604061ffff168152602001604061ffff168152602001608061ffff168152602001608061ffff168152602001608061ffff168152602001608061ffff168152602001608061ffff168152602001608061ffff168152602001608061ffff168152602001608061ffff168152602001608061ffff168152602001608061ffff16815260200161010061ffff16815260200161010061ffff16815260200161010061ffff168152602001608061ffff168152602001608061ffff168152602001608061ffff168152602001608061ffff168152602001608061ffff168152602001608061ffff168152602001608061ffff168152602001608061ffff168152602001608061ffff168152602001604061ffff168152602001604061ffff168152602001604061ffff168152602001604061ffff168152602001604061ffff168152602001604061ffff168152602001604061ffff168152602001604061ffff168152602001604061ffff168152602001604061ffff168152602001604061ffff168152602001602061ffff168152602001602061ffff168152602001602061ffff168152602001602061ffff168152602001602061ffff168152602001602061ffff168152602001602061ffff168152602001602061ffff168152602001602061ffff168152602001602061ffff168152602001602061ffff168152602001602061ffff168152602001602061ffff168152602001601061ffff168152602001601061ffff168152602001601061ffff168152602001601061ffff168152602001600861ffff168152602001600861ffff168152602001600861ffff168152602001600461ffff168152602001600261ffff168152602001600161ffff168152602001600061ffff16815250600790605d62000428929190620004fb565b506000601c553480156200043b57600080fd5b5060006200044e620004f360201b60201c565b905080601d60006101000a81548173ffffffffffffffffffffffffffffffffffffffff021916908373ffffffffffffffffffffffffffffffffffffffff1602179055508073ffffffffffffffffffffffffffffffffffffffff16600073ffffffffffffffffffffffffffffffffffffffff167f8be0079c531659141344cd1fd0a4f28419497f9722a3daafe3b4186f6b6457e060405160405180910390a35062000572565b600033905090565b82805482825590600052602060002090810192821562000540579160200282015b828111156200053f578251829061ffff169055916020019190600101906200051c565b5b5090506200054f919062000553565b5090565b5b808211156200056e57600081600090555060010162000554565b5090565b61455d80620005826000396000f3fe608060405234801561001057600080fd5b506004361061025e5760003560e01c806393f1a40b11610146578063c8a4271f116100c3578063d007db2911610087578063d007db2914610a64578063d49e77cd14610aa6578063d9608d8a14610ada578063ec12173d14610b40578063ed9bdeda14610b74578063f2fde38b14610b925761025e565b8063c8a4271f146108e0578063c8ed768014610914578063cb0b8ca114610986578063ce2529c9146109c8578063cf1c316a14610a205761025e565b8063ae169a501161010a578063ae169a50146107da578063b918161114610808578063beff2a5314610862578063c56a10ff146108a4578063c6929e53146108c25761025e565b806393f1a40b146106d657806395fdf25814610762578063975532dc14610780578063980c2a981461079e578063a02306f9146107bc5761025e565b8063485d7d94116101df578063715018a6116101a3578063715018a6146105a25780637cd07e47146105ac57806382796e98146105e05780638da5cb5b146105fe5780638dbb1e3a146106325780638dbdbe6d1461067e5761025e565b8063485d7d94146104a257806351eb05a6146104e65780635312ea8e1461051457806353ac0dab146105425780636245f084146105605761025e565b80632710b33f116102265780632710b33f146103985780632fda7735146103cc57806339b3e8261461040e5780633c9d92671461042c5780634179b4fb146104605761025e565b80630a67d518146102635780630ad58d2f146102815780631526fe27146102d957806317caf6f11461034657806322a376b014610364575b600080fd5b61026b610bd6565b6040518082815260200191505060405180910390f35b6102d76004803603606081101561029757600080fd5b810190808035906020019092919080359060200190929190803573ffffffffffffffffffffffffffffffffffffffff169060200190929190505050610bdc565b005b610305600480360360208110156102ef57600080fd5b8101908080359060200190929190505050611b3a565b604051808573ffffffffffffffffffffffffffffffffffffffff16815260200184815260200183815260200182815260200194505050505060405180910390f35b61034e611b97565b6040518082815260200191505060405180910390f35b61036c611b9d565b604051808273ffffffffffffffffffffffffffffffffffffffff16815260200191505060405180910390f35b6103a0611bc3565b604051808273ffffffffffffffffffffffffffffffffffffffff16815260200191505060405180910390f35b6103f8600480360360208110156103e257600080fd5b8101908080359060200190929190505050611be7565b6040518082815260200191505060405180910390f35b610416611c08565b6040518082815260200191505060405180910390f35b610434611c0e565b604051808273ffffffffffffffffffffffffffffffffffffffff16815260200191505060405180910390f35b61048c6004803603602081101561047657600080fd5b8101908080359060200190929190505050611c34565b6040518082815260200191505060405180910390f35b6104e4600480360360208110156104b857600080fd5b81019080803573ffffffffffffffffffffffffffffffffffffffff169060200190929190505050611c55565b005b610512600480360360208110156104fc57600080fd5b8101908080359060200190929190505050611d98565b005b6105406004803603602081101561052a57600080fd5b810190808035906020019092919050505061271f565b005b61054a61291a565b6040518082815260200191505060405180910390f35b61058c6004803603602081101561057657600080fd5b8101908080359060200190929190505050612920565b6040518082815260200191505060405180910390f35b6105aa612941565b005b6105b4612ab1565b604051808273ffffffffffffffffffffffffffffffffffffffff16815260200191505060405180910390f35b6105e8612ad7565b6040518082815260200191505060405180910390f35b610606612add565b604051808273ffffffffffffffffffffffffffffffffffffffff16815260200191505060405180910390f35b6106686004803603604081101561064857600080fd5b810190808035906020019092919080359060200190929190505050612b07565b6040518082815260200191505060405180910390f35b6106d46004803603606081101561069457600080fd5b810190808035906020019092919080359060200190929190803573ffffffffffffffffffffffffffffffffffffffff169060200190929190505050612c2f565b005b610722600480360360408110156106ec57600080fd5b8101908080359060200190929190803573ffffffffffffffffffffffffffffffffffffffff1690602001909291905050506131db565b6040518088815260200187815260200186815260200185815260200184815260200183815260200182815260200197505050505050505060405180910390f35b61076a61322a565b6040518082815260200191505060405180910390f35b610788613230565b6040518082815260200191505060405180910390f35b6107a6613236565b6040518082815260200191505060405180910390f35b6107c461323c565b6040518082815260200191505060405180910390f35b610806600480360360208110156107f057600080fd5b8101908080359060200190929190505050613242565b005b61084a6004803603602081101561081e57600080fd5b81019080803573ffffffffffffffffffffffffffffffffffffffff169060200190929190505050613257565b60405180821515815260200191505060405180910390f35b61088e6004803603602081101561087857600080fd5b8101908080359060200190929190505050613277565b6040518082815260200191505060405180910390f35b6108ac613298565b6040518082815260200191505060405180910390f35b6108ca61329e565b6040518082815260200191505060405180910390f35b6108e86132a4565b604051808273ffffffffffffffffffffffffffffffffffffffff16815260200191505060405180910390f35b6109546004803603606081101561092a57600080fd5b810190808035906020019092919080359060200190929190803590602001909291905050506132ca565b604051808681526020018581526020018481526020018381526020018281526020019550505050505060405180910390f35b6109b26004803603602081101561099c57600080fd5b810190808035906020019092919050505061354f565b6040518082815260200191505060405180910390f35b610a0a600480360360208110156109de57600080fd5b81019080803573ffffffffffffffffffffffffffffffffffffffff169060200190929190505050613570565b6040518082815260200191505060405180910390f35b610a6260048036036020811015610a3657600080fd5b81019080803573ffffffffffffffffffffffffffffffffffffffff169060200190929190505050613588565b005b610a9060048036036020811015610a7a57600080fd5b8101908080359060200190929190505050613692565b6040518082815260200191505060405180910390f35b610aae6136b3565b604051808273ffffffffffffffffffffffffffffffffffffffff16815260200191505060405180910390f35b610b1c60048036036020811015610af057600080fd5b81019080803573ffffffffffffffffffffffffffffffffffffffff1690602001909291905050506136d9565b60405180848152602001838152602001828152602001935050505060405180910390f35b610b48613703565b604051808273ffffffffffffffffffffffffffffffffffffffff16815260200191505060405180910390f35b610b7c613729565b6040518082815260200191505060405180910390f35b610bd460048036036020811015610ba857600080fd5b81019080803573ffffffffffffffffffffffffffffffffffffffff16906020019092919050505061372f565b005b60135481565b600060188481548110610beb57fe5b906000526020600020906004020190506000601a600086815260200190815260200160002060003373ffffffffffffffffffffffffffffffffffffffff1673ffffffffffffffffffffffffffffffffffffffff16815260200190815260200160002090506000601b60008573ffffffffffffffffffffffffffffffffffffffff1673ffffffffffffffffffffffffffffffffffffffff16815260200190815260200160002090506000601b60003373ffffffffffffffffffffffffffffffffffffffff1673ffffffffffffffffffffffffffffffffffffffff16815260200190815260200160002090508583600001541015610d32576040517f08c379a00000000000000000000000000000000000000000000000000000000081526004018080602001828103825260248152602001806144a26024913960400191505060405180910390fd5b600073ffffffffffffffffffffffffffffffffffffffff168573ffffffffffffffffffffffffffffffffffffffff1614610dff57858260010160003373ffffffffffffffffffffffffffffffffffffffff1673ffffffffffffffffffffffffffffffffffffffff16815260200190815260200160002054038260010160003373ffffffffffffffffffffffffffffffffffffffff1673ffffffffffffffffffffffffffffffffffffffff168152602001908152602001600020819055508582600301540382600301819055505b858160000154038160000181905550610e1787611d98565b610e2087613924565b6000861115611b3157610e40868460000154613d2090919063ffffffff16565b8360000181905550600083600301541115610e6957826003015443038360050181905550610e79565b8260040154430383600501819055505b6009600081548110610e8757fe5b906000526020600020015483600501541480610ea65750826006015443145b15610fea57610f3733610eed6064610edf600b600081548110610ec557fe5b90600052602060002001548b613da390919063ffffffff16565b613e2990919063ffffffff16565b8660000160009054906101000a900473ffffffffffffffffffffffffffffffffffffffff1673ffffffffffffffffffffffffffffffffffffffff16613eb29092919063ffffffff16565b610fe5600260009054906101000a900473ffffffffffffffffffffffffffffffffffffffff16610f9b6064610f8d600c600081548110610f7357fe5b90600052602060002001548b613da390919063ffffffff16565b613e2990919063ffffffff16565b8660000160009054906101000a900473ffffffffffffffffffffffffffffffffffffffff1673ffffffffffffffffffffffffffffffffffffffff16613eb29092919063ffffffff16565b611a9e565b6009600181548110610ff857fe5b90600052602060002001548360050154101580156110325750600a60008154811061101f57fe5b9060005260206000200154836005015411155b15611176576110c333611079606461106b600b60018154811061105157fe5b90600052602060002001548b613da390919063ffffffff16565b613e2990919063ffffffff16565b8660000160009054906101000a900473ffffffffffffffffffffffffffffffffffffffff1673ffffffffffffffffffffffffffffffffffffffff16613eb29092919063ffffffff16565b611171600260009054906101000a900473ffffffffffffffffffffffffffffffffffffffff166111276064611119600c6001815481106110ff57fe5b90600052602060002001548b613da390919063ffffffff16565b613e2990919063ffffffff16565b8660000160009054906101000a900473ffffffffffffffffffffffffffffffffffffffff1673ffffffffffffffffffffffffffffffffffffffff16613eb29092919063ffffffff16565b611a9d565b600960028154811061118457fe5b90600052602060002001548360050154101580156111be5750600a6001815481106111ab57fe5b9060005260206000200154836005015411155b156113025761124f3361120560646111f7600b6002815481106111dd57fe5b90600052602060002001548b613da390919063ffffffff16565b613e2990919063ffffffff16565b8660000160009054906101000a900473ffffffffffffffffffffffffffffffffffffffff1673ffffffffffffffffffffffffffffffffffffffff16613eb29092919063ffffffff16565b6112fd600260009054906101000a900473ffffffffffffffffffffffffffffffffffffffff166112b360646112a5600c60028154811061128b57fe5b90600052602060002001548b613da390919063ffffffff16565b613e2990919063ffffffff16565b8660000160009054906101000a900473ffffffffffffffffffffffffffffffffffffffff1673ffffffffffffffffffffffffffffffffffffffff16613eb29092919063ffffffff16565b611a9c565b600960038154811061131057fe5b906000526020600020015483600501541015801561134a5750600a60028154811061133757fe5b9060005260206000200154836005015411155b1561148e576113db336113916064611383600b60038154811061136957fe5b90600052602060002001548b613da390919063ffffffff16565b613e2990919063ffffffff16565b8660000160009054906101000a900473ffffffffffffffffffffffffffffffffffffffff1673ffffffffffffffffffffffffffffffffffffffff16613eb29092919063ffffffff16565b611489600260009054906101000a900473ffffffffffffffffffffffffffffffffffffffff1661143f6064611431600c60038154811061141757fe5b90600052602060002001548b613da390919063ffffffff16565b613e2990919063ffffffff16565b8660000160009054906101000a900473ffffffffffffffffffffffffffffffffffffffff1673ffffffffffffffffffffffffffffffffffffffff16613eb29092919063ffffffff16565b611a9b565b600960048154811061149c57fe5b90600052602060002001548360050154101580156114d65750600a6003815481106114c357fe5b9060005260206000200154836005015411155b1561161a576115673361151d606461150f600b6004815481106114f557fe5b90600052602060002001548b613da390919063ffffffff16565b613e2990919063ffffffff16565b8660000160009054906101000a900473ffffffffffffffffffffffffffffffffffffffff1673ffffffffffffffffffffffffffffffffffffffff16613eb29092919063ffffffff16565b611615600260009054906101000a900473ffffffffffffffffffffffffffffffffffffffff166115cb60646115bd600c6004815481106115a357fe5b90600052602060002001548b613da390919063ffffffff16565b613e2990919063ffffffff16565b8660000160009054906101000a900473ffffffffffffffffffffffffffffffffffffffff1673ffffffffffffffffffffffffffffffffffffffff16613eb29092919063ffffffff16565b611a9a565b600960058154811061162857fe5b90600052602060002001548360050154101580156116625750600a60048154811061164f57fe5b9060005260206000200154836005015411155b156117a8576116f4336116aa6103e861169c600b60058154811061168257fe5b90600052602060002001548b613da390919063ffffffff16565b613e2990919063ffffffff16565b8660000160009054906101000a900473ffffffffffffffffffffffffffffffffffffffff1673ffffffffffffffffffffffffffffffffffffffff16613eb29092919063ffffffff16565b6117a3600260009054906101000a900473ffffffffffffffffffffffffffffffffffffffff166117596103e861174b600c60058154811061173157fe5b90600052602060002001548b613da390919063ffffffff16565b613e2990919063ffffffff16565b8660000160009054906101000a900473ffffffffffffffffffffffffffffffffffffffff1673ffffffffffffffffffffffffffffffffffffffff16613eb29092919063ffffffff16565b611a99565b60096006815481106117b657fe5b90600052602060002001548360050154101580156117f05750600a6005815481106117dd57fe5b9060005260206000200154836005015411155b15611936576118823361183861271061182a600b60068154811061181057fe5b90600052602060002001548b613da390919063ffffffff16565b613e2990919063ffffffff16565b8660000160009054906101000a900473ffffffffffffffffffffffffffffffffffffffff1673ffffffffffffffffffffffffffffffffffffffff16613eb29092919063ffffffff16565b611931600260009054906101000a900473ffffffffffffffffffffffffffffffffffffffff166118e76127106118d9600c6006815481106118bf57fe5b90600052602060002001548b613da390919063ffffffff16565b613e2990919063ffffffff16565b8660000160009054906101000a900473ffffffffffffffffffffffffffffffffffffffff1673ffffffffffffffffffffffffffffffffffffffff16613eb29092919063ffffffff16565b611a98565b600960078154811061194457fe5b906000526020600020015483600501541115611a97576119e73361199d61271061198f600b60078154811061197557fe5b90600052602060002001548b613da390919063ffffffff16565b613e2990919063ffffffff16565b8660000160009054906101000a900473ffffffffffffffffffffffffffffffffffffffff1673ffffffffffffffffffffffffffffffffffffffff16613eb29092919063ffffffff16565b611a96600260009054906101000a900473ffffffffffffffffffffffffffffffffffffffff16611a4c612710611a3e600c600781548110611a2457fe5b90600052602060002001548b613da390919063ffffffff16565b613e2990919063ffffffff16565b8660000160009054906101000a900473ffffffffffffffffffffffffffffffffffffffff1673ffffffffffffffffffffffffffffffffffffffff16613eb29092919063ffffffff16565b5b5b5b5b5b5b5b5b611ad064e8d4a51000611ac286600301548660000154613da390919063ffffffff16565b613e2990919063ffffffff16565b8360010181905550863373ffffffffffffffffffffffffffffffffffffffff167ff279e6a1f5e320cca91135676d9cb6e44ca8a08c0b88342bcdb1144f6511b568886040518082815260200191505060405180910390a34383600301819055505b50505050505050565b60188181548110611b4757fe5b90600052602060002090600402016000915090508060000160009054906101000a900473ffffffffffffffffffffffffffffffffffffffff16908060010154908060020154908060030154905084565b601c5481565b600360009054906101000a900473ffffffffffffffffffffffffffffffffffffffff1681565b60008054906101000a900473ffffffffffffffffffffffffffffffffffffffff1681565b60078181548110611bf457fe5b906000526020600020016000915090505481565b60105481565b600460009054906101000a900473ffffffffffffffffffffffffffffffffffffffff1681565b60088181548110611c4157fe5b906000526020600020016000915090505481565b611c5d613f54565b73ffffffffffffffffffffffffffffffffffffffff16611c7b612add565b73ffffffffffffffffffffffffffffffffffffffff1614611d04576040517f08c379a00000000000000000000000000000000000000000000000000000000081526004018080602001828103825260208152602001807f4f776e61626c653a2063616c6c6572206973206e6f7420746865206f776e657281525060200191505060405180910390fd5b3373ffffffffffffffffffffffffffffffffffffffff168173ffffffffffffffffffffffffffffffffffffffff161415611d3d57600080fd5b6000601e60008373ffffffffffffffffffffffffffffffffffffffff1673ffffffffffffffffffffffffffffffffffffffff16815260200190815260200160002060006101000a81548160ff02191690831515021790555050565b600060188281548110611da757fe5b9060005260206000209060040201905080600201544311611dc8575061271c565b60008160000160009054906101000a900473ffffffffffffffffffffffffffffffffffffffff1673ffffffffffffffffffffffffffffffffffffffff166370a08231306040518263ffffffff1660e01b8152600401808273ffffffffffffffffffffffffffffffffffffffff16815260200191505060206040518083038186803b158015611e5557600080fd5b505afa158015611e69573d6000803e3d6000fd5b505050506040513d6020811015611e7f57600080fd5b810190808051906020019092919050505090506000811415611eab57438260020181905550505061271c565b6000806000806000611ec687600201544389600101546132ca565b809550819650829750839850849950505050505060008054906101000a900473ffffffffffffffffffffffffffffffffffffffff1673ffffffffffffffffffffffffffffffffffffffff166340c10f1930866040518363ffffffff1660e01b8152600401808373ffffffffffffffffffffffffffffffffffffffff16815260200182815260200192505050600060405180830381600087803b158015611f6b57600080fd5b505af1158015611f7f573d6000803e3d6000fd5b50505050611fc3611fb087611fa264e8d4a5100088613da390919063ffffffff16565b613e2990919063ffffffff16565b8860030154613f5c90919063ffffffff16565b876003018190555043876002018190555060008511156121a45760008054906101000a900473ffffffffffffffffffffffffffffffffffffffff1673ffffffffffffffffffffffffffffffffffffffff166340c10f19600260009054906101000a900473ffffffffffffffffffffffffffffffffffffffff16876040518363ffffffff1660e01b8152600401808373ffffffffffffffffffffffffffffffffffffffff16815260200182815260200192505050600060405180830381600087803b15801561209057600080fd5b505af11580156120a4573d6000803e3d6000fd5b50505050600d5443116121a35760008054906101000a900473ffffffffffffffffffffffffffffffffffffffff1673ffffffffffffffffffffffffffffffffffffffff1663282d3fdf600260009054906101000a900473ffffffffffffffffffffffffffffffffffffffff166121376064612129604b8b613da390919063ffffffff16565b613e2990919063ffffffff16565b6040518363ffffffff1660e01b8152600401808373ffffffffffffffffffffffffffffffffffffffff16815260200182815260200192505050600060405180830381600087803b15801561218a57600080fd5b505af115801561219e573d6000803e3d6000fd5b505050505b5b60008311156123745760008054906101000a900473ffffffffffffffffffffffffffffffffffffffff1673ffffffffffffffffffffffffffffffffffffffff166340c10f19600360009054906101000a900473ffffffffffffffffffffffffffffffffffffffff16856040518363ffffffff1660e01b8152600401808373ffffffffffffffffffffffffffffffffffffffff16815260200182815260200192505050600060405180830381600087803b15801561226057600080fd5b505af1158015612274573d6000803e3d6000fd5b50505050600d5443116123735760008054906101000a900473ffffffffffffffffffffffffffffffffffffffff1673ffffffffffffffffffffffffffffffffffffffff1663282d3fdf600360009054906101000a900473ffffffffffffffffffffffffffffffffffffffff1661230760646122f9602d89613da390919063ffffffff16565b613e2990919063ffffffff16565b6040518363ffffffff1660e01b8152600401808373ffffffffffffffffffffffffffffffffffffffff16815260200182815260200192505050600060405180830381600087803b15801561235a57600080fd5b505af115801561236e573d6000803e3d6000fd5b505050505b5b60008211156125445760008054906101000a900473ffffffffffffffffffffffffffffffffffffffff1673ffffffffffffffffffffffffffffffffffffffff166340c10f19600460009054906101000a900473ffffffffffffffffffffffffffffffffffffffff16846040518363ffffffff1660e01b8152600401808373ffffffffffffffffffffffffffffffffffffffff16815260200182815260200192505050600060405180830381600087803b15801561243057600080fd5b505af1158015612444573d6000803e3d6000fd5b50505050600d5443116125435760008054906101000a900473ffffffffffffffffffffffffffffffffffffffff1673ffffffffffffffffffffffffffffffffffffffff1663282d3fdf600460009054906101000a900473ffffffffffffffffffffffffffffffffffffffff166124d760646124c9605588613da390919063ffffffff16565b613e2990919063ffffffff16565b6040518363ffffffff1660e01b8152600401808373ffffffffffffffffffffffffffffffffffffffff16815260200182815260200192505050600060405180830381600087803b15801561252a57600080fd5b505af115801561253e573d6000803e3d6000fd5b505050505b5b60008111156127145760008054906101000a900473ffffffffffffffffffffffffffffffffffffffff1673ffffffffffffffffffffffffffffffffffffffff166340c10f19600560009054906101000a900473ffffffffffffffffffffffffffffffffffffffff16836040518363ffffffff1660e01b8152600401808373ffffffffffffffffffffffffffffffffffffffff16815260200182815260200192505050600060405180830381600087803b15801561260057600080fd5b505af1158015612614573d6000803e3d6000fd5b50505050600d5443116127135760008054906101000a900473ffffffffffffffffffffffffffffffffffffffff1673ffffffffffffffffffffffffffffffffffffffff1663282d3fdf600560009054906101000a900473ffffffffffffffffffffffffffffffffffffffff166126a76064612699605f87613da390919063ffffffff16565b613e2990919063ffffffff16565b6040518363ffffffff1660e01b8152600401808373ffffffffffffffffffffffffffffffffffffffff16815260200182815260200192505050600060405180830381600087803b1580156126fa57600080fd5b505af115801561270e573d6000803e3d6000fd5b505050505b5b505050505050505b50565b60006018828154811061272e57fe5b906000526020600020906004020190506000601a600084815260200190815260200160002060003373ffffffffffffffffffffffffffffffffffffffff1673ffffffffffffffffffffffffffffffffffffffff168152602001908152602001600020905060006127bf60646127b1604b8560000154613da390919063ffffffff16565b613e2990919063ffffffff16565b905060006127ee60646127e060198660000154613da390919063ffffffff16565b613e2990919063ffffffff16565b9050600083600001819055506000836001018190555061285333838660000160009054906101000a900473ffffffffffffffffffffffffffffffffffffffff1673ffffffffffffffffffffffffffffffffffffffff16613eb29092919063ffffffff16565b6128c4600260009054906101000a900473ffffffffffffffffffffffffffffffffffffffff16828660000160009054906101000a900473ffffffffffffffffffffffffffffffffffffffff1673ffffffffffffffffffffffffffffffffffffffff16613eb29092919063ffffffff16565b843373ffffffffffffffffffffffffffffffffffffffff167fbb757047c2b5f3974fe26b7c10f732e7bce710b0952a71082702781e62ae0595846040518082815260200191505060405180910390a35050505050565b60165481565b6009818154811061292d57fe5b906000526020600020016000915090505481565b612949613f54565b73ffffffffffffffffffffffffffffffffffffffff16612967612add565b73ffffffffffffffffffffffffffffffffffffffff16146129f0576040517f08c379a00000000000000000000000000000000000000000000000000000000081526004018080602001828103825260208152602001807f4f776e61626c653a2063616c6c6572206973206e6f7420746865206f776e657281525060200191505060405180910390fd5b600073ffffffffffffffffffffffffffffffffffffffff16601d60009054906101000a900473ffffffffffffffffffffffffffffffffffffffff1673ffffffffffffffffffffffffffffffffffffffff167f8be0079c531659141344cd1fd0a4f28419497f9722a3daafe3b4186f6b6457e060405160405180910390a36000601d60006101000a81548173ffffffffffffffffffffffffffffffffffffffff021916908373ffffffffffffffffffffffffffffffffffffffff160217905550565b601760009054906101000a900473ffffffffffffffffffffffffffffffffffffffff1681565b600e5481565b6000601d60009054906101000a900473ffffffffffffffffffffffffffffffffffffffff16905090565b60008060009050601054841015612b22576000915050612c29565b60005b600880549050811015612c2357600060088281548110612b4157fe5b90600052602060002001549050808511612bb3576000612b9360078481548110612b6757fe5b9060005260206000200154612b858989613d2090919063ffffffff16565b613da390919063ffffffff16565b9050612ba88185613f5c90919063ffffffff16565b945050505050612c29565b80861015612c15576000612bf960078481548110612bcd57fe5b9060005260206000200154612beb8985613d2090919063ffffffff16565b613da390919063ffffffff16565b9050819650612c118185613f5c90919063ffffffff16565b9350505b508080600101915050612b25565b50809150505b92915050565b60008211612c88576040517f08c379a00000000000000000000000000000000000000000000000000000000081526004018080602001828103825260388152602001806144f06038913960400191505060405180910390fd5b600060188481548110612c9757fe5b906000526020600020906004020190506000601a600086815260200190815260200160002060003373ffffffffffffffffffffffffffffffffffffffff1673ffffffffffffffffffffffffffffffffffffffff16815260200190815260200160002090506000601a60008781526020019081526020016000206000600260009054906101000a900473ffffffffffffffffffffffffffffffffffffffff1673ffffffffffffffffffffffffffffffffffffffff1673ffffffffffffffffffffffffffffffffffffffff16815260200190815260200160002090506000601b60008673ffffffffffffffffffffffffffffffffffffffff1673ffffffffffffffffffffffffffffffffffffffff16815260200190815260200160002090506000601b60003373ffffffffffffffffffffffffffffffffffffffff1673ffffffffffffffffffffffffffffffffffffffff168152602001908152602001600020905060008260010160003373ffffffffffffffffffffffffffffffffffffffff1673ffffffffffffffffffffffffffffffffffffffff168152602001908152602001600020541115612ede57868260010160003373ffffffffffffffffffffffffffffffffffffffff1673ffffffffffffffffffffffffffffffffffffffff16815260200190815260200160002054018260010160003373ffffffffffffffffffffffffffffffffffffffff1673ffffffffffffffffffffffffffffffffffffffff16815260200190815260200160002081905550868260030154018260030181905550612f87565b868260010160003373ffffffffffffffffffffffffffffffffffffffff1673ffffffffffffffffffffffffffffffffffffffff16815260200190815260200160002054018260010160003373ffffffffffffffffffffffffffffffffffffffff1673ffffffffffffffffffffffffffffffffffffffff16815260200190815260200160002081905550600182600201540182600201819055508682600301540182600301819055505b612faf6064612fa1600e548a613da390919063ffffffff16565b613e2990919063ffffffff16565b8160000154018160000181905550612fc688611d98565b612fcf88613924565b6130203330898860000160009054906101000a900473ffffffffffffffffffffffffffffffffffffffff1673ffffffffffffffffffffffffffffffffffffffff16613fe4909392919063ffffffff16565b600084600001541415613037574384600201819055505b613088613075613066612710613058600e548c613da390919063ffffffff16565b613e2990919063ffffffff16565b89613d2090919063ffffffff16565b8560000154613f5c90919063ffffffff16565b84600001819055506130c264e8d4a510006130b487600301548760000154613da390919063ffffffff16565b613e2990919063ffffffff16565b846001018190555061311b6131086130f96127106130eb600f548c613da390919063ffffffff16565b613e2990919063ffffffff16565b89613d2090919063ffffffff16565b8460000154613f5c90919063ffffffff16565b836000018190555061315564e8d4a5100061314787600301548660000154613da390919063ffffffff16565b613e2990919063ffffffff16565b8360010181905550873373ffffffffffffffffffffffffffffffffffffffff167f90890809c654f11d6e72a28fa60149770a0d11ec6c92319d6ceb2bb0a4ea1a15896040518082815260200191505060405180910390a36000846004015411156131be576131c8565b4384600401819055505b4384600601819055505050505050505050565b601a602052816000526040600020602052806000526040600020600091509150508060000154908060010154908060020154908060030154908060040154908060050154908060060154905087565b60115481565b60065481565b600d5481565b60145481565b61324b81611d98565b61325481613924565b50565b601e6020528060005260406000206000915054906101000a900460ff1681565b600c818154811061328457fe5b906000526020600020016000915090505481565b600f5481565b60155481565b600160009054906101000a900473ffffffffffffffffffffffffffffffffffffffff1681565b6000806000806000806132dd8989612b07565b9050600061331c601c5461330e8a61330060065487613da390919063ffffffff16565b613da390919063ffffffff16565b613e2990919063ffffffff16565b9050600061347360008054906101000a900473ffffffffffffffffffffffffffffffffffffffff1673ffffffffffffffffffffffffffffffffffffffff166318160ddd6040518163ffffffff1660e01b815260040160206040518083038186803b15801561338957600080fd5b505afa15801561339d573d6000803e3d6000fd5b505050506040513d60208110156133b357600080fd5b810190808051906020019092919050505060008054906101000a900473ffffffffffffffffffffffffffffffffffffffff1673ffffffffffffffffffffffffffffffffffffffff1663355274ea6040518163ffffffff1660e01b815260040160206040518083038186803b15801561342a57600080fd5b505afa15801561343e573d6000803e3d6000fd5b505050506040513d602081101561345457600080fd5b8101908080519060200190929190505050613d2090919063ffffffff16565b9050818110156134955760009750809650600095506000945060009350613541565b6134bd60646134af60125485613da390919063ffffffff16565b613e2990919063ffffffff16565b97508196506134ea60646134dc60135485613da390919063ffffffff16565b613e2990919063ffffffff16565b9550613514606461350660145485613da390919063ffffffff16565b613e2990919063ffffffff16565b945061353e606461353060155485613da390919063ffffffff16565b613e2990919063ffffffff16565b93505b505050939792965093509350565b600a818154811061355c57fe5b906000526020600020016000915090505481565b60196020528060005260406000206000915090505481565b613590613f54565b73ffffffffffffffffffffffffffffffffffffffff166135ae612add565b73ffffffffffffffffffffffffffffffffffffffff1614613637576040517f08c379a00000000000000000000000000000000000000000000000000000000081526004018080602001828103825260208152602001807f4f776e61626c653a2063616c6c6572206973206e6f7420746865206f776e657281525060200191505060405180910390fd5b6001601e60008373ffffffffffffffffffffffffffffffffffffffff1673ffffffffffffffffffffffffffffffffffffffff16815260200190815260200160002060006101000a81548160ff02191690831515021790555050565b600b818154811061369f57fe5b906000526020600020016000915090505481565b600260009054906101000a900473ffffffffffffffffffffffffffffffffffffffff1681565b601b6020528060005260406000206000915090508060000154908060020154908060030154905083565b600560009054906101000a900473ffffffffffffffffffffffffffffffffffffffff1681565b60125481565b613737613f54565b73ffffffffffffffffffffffffffffffffffffffff16613755612add565b73ffffffffffffffffffffffffffffffffffffffff16146137de576040517f08c379a00000000000000000000000000000000000000000000000000000000081526004018080602001828103825260208152602001807f4f776e61626c653a2063616c6c6572206973206e6f7420746865206f776e657281525060200191505060405180910390fd5b600073ffffffffffffffffffffffffffffffffffffffff168173ffffffffffffffffffffffffffffffffffffffff161415613864576040517f08c379a00000000000000000000000000000000000000000000000000000000081526004018080602001828103825260268152602001806144356026913960400191505060405180910390fd5b8073ffffffffffffffffffffffffffffffffffffffff16601d60009054906101000a900473ffffffffffffffffffffffffffffffffffffffff1673ffffffffffffffffffffffffffffffffffffffff167f8be0079c531659141344cd1fd0a4f28419497f9722a3daafe3b4186f6b6457e060405160405180910390a380601d60006101000a81548173ffffffffffffffffffffffffffffffffffffffff021916908373ffffffffffffffffffffffffffffffffffffffff16021790555050565b60006018828154811061393357fe5b906000526020600020906004020190506000601a600084815260200190815260200160002060003373ffffffffffffffffffffffffffffffffffffffff1673ffffffffffffffffffffffffffffffffffffffff1681526020019081526020016000209050600081600001541115613d1b5760006139ee82600101546139e064e8d4a510006139d287600301548760000154613da390919063ffffffff16565b613e2990919063ffffffff16565b613d2090919063ffffffff16565b905060008060009054906101000a900473ffffffffffffffffffffffffffffffffffffffff1673ffffffffffffffffffffffffffffffffffffffff166370a08231306040518263ffffffff1660e01b8152600401808273ffffffffffffffffffffffffffffffffffffffff16815260200191505060206040518083038186803b158015613a7a57600080fd5b505afa158015613a8e573d6000803e3d6000fd5b505050506040513d6020811015613aa457600080fd5b8101908080519060200190929190505050905080821115613ac3578091505b6000821115613cde5760008054906101000a900473ffffffffffffffffffffffffffffffffffffffff1673ffffffffffffffffffffffffffffffffffffffff1663a9059cbb33846040518363ffffffff1660e01b8152600401808373ffffffffffffffffffffffffffffffffffffffff16815260200182815260200192505050602060405180830381600087803b158015613b5d57600080fd5b505af1158015613b71573d6000803e3d6000fd5b505050506040513d6020811015613b8757600080fd5b8101908080519060200190929190505050506000600d54846002015411613c7c57613bd06064613bc260115486613da390919063ffffffff16565b613e2990919063ffffffff16565b905060008054906101000a900473ffffffffffffffffffffffffffffffffffffffff1673ffffffffffffffffffffffffffffffffffffffff1663282d3fdf33836040518363ffffffff1660e01b8152600401808373ffffffffffffffffffffffffffffffffffffffff16815260200182815260200192505050600060405180830381600087803b158015613c6357600080fd5b505af1158015613c77573d6000803e3d6000fd5b505050505b438460020181905550853373ffffffffffffffffffffffffffffffffffffffff167f26d323712a1b961bf0f3352c8f3fd8663a97a892cf4fde67fb6d8597275882538584604051808381526020018281526020019250505060405180910390a3505b613d1064e8d4a51000613d0286600301548660000154613da390919063ffffffff16565b613e2990919063ffffffff16565b836001018190555050505b505050565b600082821115613d98576040517f08c379a000000000000000000000000000000000000000000000000000000000815260040180806020018281038252601e8152602001807f536166654d6174683a207375627472616374696f6e206f766572666c6f77000081525060200191505060405180910390fd5b818303905092915050565b600080831415613db65760009050613e23565b6000828402905082848281613dc757fe5b0414613e1e576040517f08c379a00000000000000000000000000000000000000000000000000000000081526004018080602001828103825260218152602001806144816021913960400191505060405180910390fd5b809150505b92915050565b6000808211613ea0576040517f08c379a000000000000000000000000000000000000000000000000000000000815260040180806020018281038252601a8152602001807f536166654d6174683a206469766973696f6e206279207a65726f00000000000081525060200191505060405180910390fd5b818381613ea957fe5b04905092915050565b613f4f8363a9059cbb60e01b8484604051602401808373ffffffffffffffffffffffffffffffffffffffff16815260200182815260200192505050604051602081830303815290604052907bffffffffffffffffffffffffffffffffffffffffffffffffffffffff19166020820180517bffffffffffffffffffffffffffffffffffffffffffffffffffffffff83818316178352505050506140a5565b505050565b600033905090565b600080828401905083811015613fda576040517f08c379a000000000000000000000000000000000000000000000000000000000815260040180806020018281038252601b8152602001807f536166654d6174683a206164646974696f6e206f766572666c6f77000000000081525060200191505060405180910390fd5b8091505092915050565b61409f846323b872dd60e01b858585604051602401808473ffffffffffffffffffffffffffffffffffffffff1681526020018373ffffffffffffffffffffffffffffffffffffffff1681526020018281526020019350505050604051602081830303815290604052907bffffffffffffffffffffffffffffffffffffffffffffffffffffffff19166020820180517bffffffffffffffffffffffffffffffffffffffffffffffffffffffff83818316178352505050506140a5565b50505050565b6060614107826040518060400160405280602081526020017f5361666545524332303a206c6f772d6c6576656c2063616c6c206661696c65648152508573ffffffffffffffffffffffffffffffffffffffff166141949092919063ffffffff16565b905060008151111561418f5780806020019051602081101561412857600080fd5b810190808051906020019092919050505061418e576040517f08c379a000000000000000000000000000000000000000000000000000000000815260040180806020018281038252602a8152602001806144c6602a913960400191505060405180910390fd5b5b505050565b60606141a384846000856141ac565b90509392505050565b606082471015614207576040517f08c379a000000000000000000000000000000000000000000000000000000000815260040180806020018281038252602681526020018061445b6026913960400191505060405180910390fd5b61421085614355565b614282576040517f08c379a000000000000000000000000000000000000000000000000000000000815260040180806020018281038252601d8152602001807f416464726573733a2063616c6c20746f206e6f6e2d636f6e747261637400000081525060200191505060405180910390fd5b600060608673ffffffffffffffffffffffffffffffffffffffff1685876040518082805190602001908083835b602083106142d257805182526020820191506020810190506020830392506142af565b6001836020036101000a03801982511681845116808217855250505050505090500191505060006040518083038185875af1925050503d8060008114614334576040519150601f19603f3d011682016040523d82523d6000602084013e614339565b606091505b5091509150614349828286614368565b92505050949350505050565b600080823b905060008111915050919050565b606083156143785782905061442d565b60008351111561438b5782518084602001fd5b816040517f08c379a00000000000000000000000000000000000000000000000000000000081526004018080602001828103825283818151815260200191508051906020019080838360005b838110156143f25780820151818401526020810190506143d7565b50505050905090810190601f16801561441f5780820380516001836020036101000a031916815260200191505b509250505060405180910390fd5b939250505056fe4f776e61626c653a206e6577206f776e657220697320746865207a65726f2061646472657373416464726573733a20696e73756666696369656e742062616c616e636520666f722063616c6c536166654d6174683a206d756c7469706c69636174696f6e206f766572666c6f77517569634d61737465724661726d65723a3a77697468647261773a206e6f7420676f6f645361666545524332303a204552433230206f7065726174696f6e20646964206e6f742073756363656564517569634d61737465724661726d65723a3a6465706f7369743a20616d6f756e74206d7573742062652067726561746572207468616e2030a26469706673582212208d19a938490bcc31b7825341a902c1edaf4f725ecaeb2f32c251dbfa8d6464b364736f6c634300060c0033",
  "immutableReferences": {},
  "source": "// SPDX-License-Identifier: MIT\npragma solidity 0.6.12;\n\nimport \"./QuicMasterStorage.sol\";\n\ncontract QuicMasterTransactions is QuicMasterStorage,  Ownable, Authorizable {\n    using SafeMath for uint256;\n    using SafeERC20 for IERC20;\n\n    \n    // |--------------------------------------|\n    // [20, 30, 40, 50, 60, 70, 80, 99999999]\n    // Return reward multiplier over the given _from to _to block.\n    function getMultiplier(uint256 _from, uint256 _to) public view returns (uint256) {\n        uint256 result = 0;\n        if (_from < START_BLOCK) return 0;\n\n        for (uint256 i = 0; i < HALVING_AT_BLOCK.length; i++) {\n            uint256 endBlock = HALVING_AT_BLOCK[i];\n\n            if (_to <= endBlock) {\n                uint256 m = _to.sub(_from).mul(REWARD_MULTIPLIER[i]);\n                return result.add(m);\n            }\n\n            if (_from < endBlock) {\n                uint256 m = endBlock.sub(_from).mul(REWARD_MULTIPLIER[i]);\n                _from = endBlock;\n                result = result.add(m);\n            }\n        }\n\n        return result;\n    }\n\n    function getPoolReward(uint256 _from, uint256 _to, uint256 _allocPoint) public view returns (uint256 forDev, uint256 forFarmer, uint256 forLP, uint256 forCom, uint256 forFounders) {\n        uint256 multiplier = getMultiplier(_from, _to);\n        uint256 amount = multiplier.mul(REWARD_PER_BLOCK).mul(_allocPoint).div(totalAllocPoint);\n        uint256 QuicCanMint = Quic.cap().sub(Quic.totalSupply());\n\n        if (QuicCanMint < amount) {\n            forDev = 0;\n\t\t\tforFarmer = QuicCanMint;\n\t\t\tforLP = 0;\n\t\t\tforCom = 0;\n\t\t\tforFounders = 0;\n        }\n        else {\n            forDev = amount.mul(PERCENT_FOR_DEV).div(100);\n\t\t\tforFarmer = amount;\n\t\t\tforLP = amount.mul(PERCENT_FOR_LP).div(100);\n\t\t\tforCom = amount.mul(PERCENT_FOR_COM).div(100);\n\t\t\tforFounders = amount.mul(PERCENT_FOR_FOUNDERS).div(100);\n        }\n    }\n\n   // Update reward variables of the given pool to be up-to-date.\n    function updatePool(uint256 _pid) public {\n        PoolInfo storage pool = poolInfo[_pid];\n        if (block.number <= pool.lastRewardBlock) {\n            return;\n        }\n        uint256 lpSupply = pool.lpToken.balanceOf(address(this));\n        if (lpSupply == 0) {\n            pool.lastRewardBlock = block.number;\n            return;\n        }\n        uint256 QuicForDev;\n        uint256 QuicForFarmer;\n\t\tuint256 QuicForLP;\n\t\tuint256 QuicForCom;\n\t\tuint256 QuicForFounders;\n        (QuicForDev, QuicForFarmer, QuicForLP, QuicForCom, QuicForFounders) = getPoolReward(pool.lastRewardBlock, block.number, pool.allocPoint);\n        Quic.mint(address(this), QuicForFarmer);\n        pool.accQuicPerShare = pool.accQuicPerShare.add(QuicForFarmer.mul(1e12).div(lpSupply));\n        pool.lastRewardBlock = block.number;\n        if (QuicForDev > 0) {\n            Quic.mint(address(devaddr), QuicForDev);\n            //Dev fund has xx% locked during the starting bonus period. After which locked funds drip out linearly each block over 3 years.\n            if (block.number <= FINISH_BONUS_AT_BLOCK) {\n                Quic.lock(address(devaddr), QuicForDev.mul(75).div(100));\n            }\n        }\n\t\tif (QuicForLP > 0) {\n            Quic.mint(liquidityaddr, QuicForLP);\n\t\t\t//LP + Partnership fund has only xx% locked over time as most of it is needed early on for incentives and listings. The locked amount will drip out linearly each block after the bonus period.\n\t\t\tif (block.number <= FINISH_BONUS_AT_BLOCK) {\n                Quic.lock(address(liquidityaddr), QuicForLP.mul(45).div(100));\n            }\n        }\n\t\tif (QuicForCom > 0) {\n            Quic.mint(comfundaddr, QuicForCom);\n\t\t\t//Community Fund has xx% locked during bonus period and then drips out linearly over 3 years.\n            if (block.number <= FINISH_BONUS_AT_BLOCK) {\n                Quic.lock(address(comfundaddr), QuicForCom.mul(85).div(100));\n            }\n        }\n\t\tif (QuicForFounders > 0) {\n            Quic.mint(founderaddr, QuicForFounders);\n\t\t\t//The Founders reward has xx% of their funds locked during the bonus period which then drip out linearly per block over 3 years.\n\t\t\tif (block.number <= FINISH_BONUS_AT_BLOCK) {\n                Quic.lock(address(founderaddr), QuicForFounders.mul(95).div(100));\n            }\n        }\n        \n    }\n    function claimReward(uint256 _pid) public {\n        updatePool(_pid);\n        _harvest(_pid);\n    }\n\n    // lock 85% of reward if it come from bounus time\n    function _harvest(uint256 _pid) internal {\n        PoolInfo storage pool = poolInfo[_pid];\n        UserInfo storage user = userInfo[_pid][msg.sender];\n\n        if (user.amount > 0) {\n            uint256 pending = user.amount.mul(pool.accQuicPerShare).div(1e12).sub(user.rewardDebt);\n            uint256 masterBal = Quic.balanceOf(address(this));\n\n            if (pending > masterBal) {\n                pending = masterBal;\n            }\n            \n            if(pending > 0) {\n                Quic.transfer(msg.sender, pending);\n                uint256 lockAmount = 0;\n                if (user.rewardDebtAtBlock <= FINISH_BONUS_AT_BLOCK) {\n                    lockAmount = pending.mul(PERCENT_LOCK_BONUS_REWARD).div(100);\n                    Quic.lock(msg.sender, lockAmount);\n                }\n\n                user.rewardDebtAtBlock = block.number;\n\n                emit SendQuicReward(msg.sender, _pid, pending, lockAmount);\n            }\n\n            user.rewardDebt = user.amount.mul(pool.accQuicPerShare).div(1e12);\n        }\n    }\n\n\n\n    \n    // Deposit LP tokens to QuicMasterFarmer for $QUIC allocation.\n    function deposit(uint256 _pid, uint256 _amount, address _ref) public {\n        require(_amount > 0, \"QuicMasterFarmer::deposit: amount must be greater than 0\");\n\n        PoolInfo storage pool = poolInfo[_pid];\n        UserInfo storage user = userInfo[_pid][msg.sender];\n        UserInfo storage devr = userInfo[_pid][devaddr];\n        UserGlobalInfo storage refer = userGlobalInfo[_ref];\n        UserGlobalInfo storage current = userGlobalInfo[msg.sender];\n        \n        if(refer.referrals[msg.sender] > 0){\n            refer.referrals[msg.sender] = refer.referrals[msg.sender] + _amount;\n            refer.globalRefAmount = refer.globalRefAmount + _amount;\n        } else {\n            refer.referrals[msg.sender] = refer.referrals[msg.sender] + _amount;\n            refer.totalReferals = refer.totalReferals + 1;\n            refer.globalRefAmount = refer.globalRefAmount + _amount;\n        }\n\n        \n        current.globalAmount = current.globalAmount + _amount.mul(userDepFee).div(100);\n        \n        updatePool(_pid);\n        _harvest(_pid);\n        pool.lpToken.safeTransferFrom(address(msg.sender), address(this), _amount);\n        if (user.amount == 0) {\n            user.rewardDebtAtBlock = block.number;\n        }\n        user.amount = user.amount.add(_amount.sub(_amount.mul(userDepFee).div(10000)));\n        user.rewardDebt = user.amount.mul(pool.accQuicPerShare).div(1e12);\n        devr.amount = devr.amount.add(_amount.sub(_amount.mul(devDepFee).div(10000)));\n        devr.rewardDebt = devr.amount.mul(pool.accQuicPerShare).div(1e12);\n        emit Deposit(msg.sender, _pid, _amount);\n\t\tif(user.firstDepositBlock > 0){\n\t\t} else {\n\t\t\tuser.firstDepositBlock = block.number;\n\t\t}\n\t\tuser.lastDepositBlock = block.number;\n    }\n    \n  // Withdraw LP tokens from QuicMasterFarmer.\n    function withdraw(uint256 _pid, uint256 _amount, address _ref) public {\n        PoolInfo storage pool = poolInfo[_pid];\n        UserInfo storage user = userInfo[_pid][msg.sender];\n        UserGlobalInfo storage refer = userGlobalInfo[_ref];\n        UserGlobalInfo storage current = userGlobalInfo[msg.sender];\n        require(user.amount >= _amount, \"QuicMasterFarmer::withdraw: not good\");\n        if(_ref != address(0)){\n                refer.referrals[msg.sender] = refer.referrals[msg.sender] - _amount;\n                refer.globalRefAmount = refer.globalRefAmount - _amount;\n            }\n        current.globalAmount = current.globalAmount - _amount;\n        \n        updatePool(_pid);\n        _harvest(_pid);\n\n        if(_amount > 0) {\n            user.amount = user.amount.sub(_amount);\n\t\t\tif(user.lastWithdrawBlock > 0){\n\t\t\t\tuser.blockdelta = block.number - user.lastWithdrawBlock; }\n\t\t\telse {\n\t\t\t\tuser.blockdelta = block.number - user.firstDepositBlock;\n\t\t\t}\n\t\t\tif(user.blockdelta == blockDeltaStartStage[0] || block.number == user.lastDepositBlock){\n\t\t\t\t//25% fee for withdrawals of LP tokens in the same block this is to prevent abuse from flashloans\n\t\t\t\tpool.lpToken.safeTransfer(address(msg.sender), _amount.mul(userFeeStage[0]).div(100));\n\t\t\t\tpool.lpToken.safeTransfer(address(devaddr), _amount.mul(devFeeStage[0]).div(100));\n\t\t\t} else if (user.blockdelta >= blockDeltaStartStage[1] && user.blockdelta <= blockDeltaEndStage[0]){\n\t\t\t\t//8% fee if a user deposits and withdraws in under between same block and 59 minutes.\n\t\t\t\tpool.lpToken.safeTransfer(address(msg.sender), _amount.mul(userFeeStage[1]).div(100));\n\t\t\t\tpool.lpToken.safeTransfer(address(devaddr), _amount.mul(devFeeStage[1]).div(100));\n\t\t\t} else if (user.blockdelta >= blockDeltaStartStage[2] && user.blockdelta <= blockDeltaEndStage[1]){\n\t\t\t\t//4% fee if a user deposits and withdraws after 1 hour but before 1 day.\n\t\t\t\tpool.lpToken.safeTransfer(address(msg.sender), _amount.mul(userFeeStage[2]).div(100));\n\t\t\t\tpool.lpToken.safeTransfer(address(devaddr), _amount.mul(devFeeStage[2]).div(100));\n\t\t\t} else if (user.blockdelta >= blockDeltaStartStage[3] && user.blockdelta <= blockDeltaEndStage[2]){\n\t\t\t\t//2% fee if a user deposits and withdraws between after 1 day but before 3 days.\n\t\t\t\tpool.lpToken.safeTransfer(address(msg.sender), _amount.mul(userFeeStage[3]).div(100));\n\t\t\t\tpool.lpToken.safeTransfer(address(devaddr), _amount.mul(devFeeStage[3]).div(100));\n\t\t\t} else if (user.blockdelta >= blockDeltaStartStage[4] && user.blockdelta <= blockDeltaEndStage[3]){\n\t\t\t\t//1% fee if a user deposits and withdraws after 3 days but before 5 days.\n\t\t\t\tpool.lpToken.safeTransfer(address(msg.sender), _amount.mul(userFeeStage[4]).div(100));\n\t\t\t\tpool.lpToken.safeTransfer(address(devaddr), _amount.mul(devFeeStage[4]).div(100));\n\t\t\t}  else if (user.blockdelta >= blockDeltaStartStage[5] && user.blockdelta <= blockDeltaEndStage[4]){\n\t\t\t\t//0.5% fee if a user deposits and withdraws if the user withdraws after 5 days but before 2 weeks.\n\t\t\t\tpool.lpToken.safeTransfer(address(msg.sender), _amount.mul(userFeeStage[5]).div(1000));\n\t\t\t\tpool.lpToken.safeTransfer(address(devaddr), _amount.mul(devFeeStage[5]).div(1000));\n\t\t\t} else if (user.blockdelta >= blockDeltaStartStage[6] && user.blockdelta <= blockDeltaEndStage[5]){\n\t\t\t\t//0.25% fee if a user deposits and withdraws after 2 weeks.\n\t\t\t\tpool.lpToken.safeTransfer(address(msg.sender), _amount.mul(userFeeStage[6]).div(10000));\n\t\t\t\tpool.lpToken.safeTransfer(address(devaddr), _amount.mul(devFeeStage[6]).div(10000));\n\t\t\t} else if (user.blockdelta > blockDeltaStartStage[7]) {\n\t\t\t\t//0.1% fee if a user deposits and withdraws after 4 weeks.\n\t\t\t\tpool.lpToken.safeTransfer(address(msg.sender), _amount.mul(userFeeStage[7]).div(10000));\n\t\t\t\tpool.lpToken.safeTransfer(address(devaddr), _amount.mul(devFeeStage[7]).div(10000));\n\t\t\t}\n\t\tuser.rewardDebt = user.amount.mul(pool.accQuicPerShare).div(1e12);\n        emit Withdraw(msg.sender, _pid, _amount);\n\t\tuser.lastWithdrawBlock = block.number;\n\t\t\t}\n        }\n\n\n    // Withdraw without caring about rewards. EMERGENCY ONLY. This has the same 25% fee as same block withdrawals to prevent abuse of thisfunction.\n    function emergencyWithdraw(uint256 _pid) public {\n        PoolInfo storage pool = poolInfo[_pid];\n        UserInfo storage user = userInfo[_pid][msg.sender];\n        //reordered from Sushi function to prevent risk of reentrancy\n        uint256 amountToSend = user.amount.mul(75).div(100);\n        uint256 devToSend = user.amount.mul(25).div(100);\n        user.amount = 0;\n        user.rewardDebt = 0;\n        pool.lpToken.safeTransfer(address(msg.sender), amountToSend);\n        pool.lpToken.safeTransfer(address(devaddr), devToSend);\n        emit EmergencyWithdraw(msg.sender, _pid, amountToSend);\n\n    }\n\n    // Safe Quic transfer function, just in case if rounding error causes pool to not have enough Quic.\n    function safeQuicTransfer(address _to, uint256 _amount) internal {\n        uint256 QuicBal = Quic.balanceOf(address(this));\n        if (_amount > QuicBal) {\n            Quic.transfer(_to, QuicBal);\n        } else {\n            Quic.transfer(_to, _amount);\n        }\n    }\n}",
  "sourcePath": "/Users/mark.wagner/Dropbox/projects/quic.finance/contracts/QuicMasterTransactions.sol",
  "compiler": {
    "name": "solc",
    "version": "0.6.12+commit.27d51765.Emscripten.clang"
  },
  "schemaVersion": "3.3.4",
  "updatedAt": "2021-04-11T16:38:48.822Z",
  "networkType": "ethereum",
  "devdoc": {
    "kind": "dev",
    "methods": {
      "owner()": {
        "details": "Returns the address of the current owner."
      },
      "renounceOwnership()": {
        "details": "Leaves the contract without owner. It will not be possible to call `onlyOwner` functions anymore. Can only be called by the current owner. NOTE: Renouncing ownership will leave the contract without an owner, thereby removing any functionality that is only available to the owner."
      },
      "transferOwnership(address)": {
        "details": "Transfers ownership of the contract to a new account (`newOwner`). Can only be called by the current owner."
      }
    },
    "version": 1
  },
  "userdoc": {
    "kind": "user",
    "methods": {},
    "version": 1
  }
}