{
  "contractName": "QuicMasterStorage",
  "abi": [
    {
      "anonymous": false,
      "inputs": [
        {
          "indexed": true,
          "internalType": "address",
          "name": "user",
          "type": "address"
        },
        {
          "indexed": true,
          "internalType": "uint256",
          "name": "pid",
          "type": "uint256"
        },
        {
          "indexed": false,
          "internalType": "uint256",
          "name": "amount",
          "type": "uint256"
        }
      ],
      "name": "Deposit",
      "type": "event"
    },
    {
      "anonymous": false,
      "inputs": [
        {
          "indexed": true,
          "internalType": "address",
          "name": "user",
          "type": "address"
        },
        {
          "indexed": true,
          "internalType": "uint256",
          "name": "pid",
          "type": "uint256"
        },
        {
          "indexed": false,
          "internalType": "uint256",
          "name": "amount",
          "type": "uint256"
        }
      ],
      "name": "EmergencyWithdraw",
      "type": "event"
    },
    {
      "anonymous": false,
      "inputs": [
        {
          "indexed": true,
          "internalType": "address",
          "name": "user",
          "type": "address"
        },
        {
          "indexed": true,
          "internalType": "uint256",
          "name": "pid",
          "type": "uint256"
        },
        {
          "indexed": false,
          "internalType": "uint256",
          "name": "amount",
          "type": "uint256"
        },
        {
          "indexed": false,
          "internalType": "uint256",
          "name": "lockAmount",
          "type": "uint256"
        }
      ],
      "name": "SendQuicReward",
      "type": "event"
    },
    {
      "anonymous": false,
      "inputs": [
        {
          "indexed": true,
          "internalType": "address",
          "name": "user",
          "type": "address"
        },
        {
          "indexed": true,
          "internalType": "uint256",
          "name": "pid",
          "type": "uint256"
        },
        {
          "indexed": false,
          "internalType": "uint256",
          "name": "amount",
          "type": "uint256"
        }
      ],
      "name": "Withdraw",
      "type": "event"
    },
    {
      "inputs": [],
      "name": "FINISH_BONUS_AT_BLOCK",
      "outputs": [
        {
          "internalType": "uint256",
          "name": "",
          "type": "uint256"
        }
      ],
      "stateMutability": "view",
      "type": "function"
    },
    {
      "inputs": [],
      "name": "HALVING_AFTER",
      "outputs": [
        {
          "internalType": "uint256",
          "name": "",
          "type": "uint256"
        }
      ],
      "stateMutability": "view",
      "type": "function"
    },
    {
      "inputs": [
        {
          "internalType": "uint256",
          "name": "",
          "type": "uint256"
        }
      ],
      "name": "HALVING_AT_BLOCK",
      "outputs": [
        {
          "internalType": "uint256",
          "name": "",
          "type": "uint256"
        }
      ],
      "stateMutability": "view",
      "type": "function"
    },
    {
      "inputs": [],
      "name": "PERCENT_FOR_COM",
      "outputs": [
        {
          "internalType": "uint256",
          "name": "",
          "type": "uint256"
        }
      ],
      "stateMutability": "view",
      "type": "function"
    },
    {
      "inputs": [],
      "name": "PERCENT_FOR_DEV",
      "outputs": [
        {
          "internalType": "uint256",
          "name": "",
          "type": "uint256"
        }
      ],
      "stateMutability": "view",
      "type": "function"
    },
    {
      "inputs": [],
      "name": "PERCENT_FOR_FOUNDERS",
      "outputs": [
        {
          "internalType": "uint256",
          "name": "",
          "type": "uint256"
        }
      ],
      "stateMutability": "view",
      "type": "function"
    },
    {
      "inputs": [],
      "name": "PERCENT_FOR_LP",
      "outputs": [
        {
          "internalType": "uint256",
          "name": "",
          "type": "uint256"
        }
      ],
      "stateMutability": "view",
      "type": "function"
    },
    {
      "inputs": [],
      "name": "PERCENT_LOCK_BONUS_REWARD",
      "outputs": [
        {
          "internalType": "uint256",
          "name": "",
          "type": "uint256"
        }
      ],
      "stateMutability": "view",
      "type": "function"
    },
    {
      "inputs": [],
      "name": "Quic",
      "outputs": [
        {
          "internalType": "contract QuicToken",
          "name": "",
          "type": "address"
        }
      ],
      "stateMutability": "view",
      "type": "function"
    },
    {
      "inputs": [
        {
          "internalType": "uint256",
          "name": "",
          "type": "uint256"
        }
      ],
      "name": "REWARD_MULTIPLIER",
      "outputs": [
        {
          "internalType": "uint256",
          "name": "",
          "type": "uint256"
        }
      ],
      "stateMutability": "view",
      "type": "function"
    },
    {
      "inputs": [],
      "name": "REWARD_PER_BLOCK",
      "outputs": [
        {
          "internalType": "uint256",
          "name": "",
          "type": "uint256"
        }
      ],
      "stateMutability": "view",
      "type": "function"
    },
    {
      "inputs": [],
      "name": "START_BLOCK",
      "outputs": [
        {
          "internalType": "uint256",
          "name": "",
          "type": "uint256"
        }
      ],
      "stateMutability": "view",
      "type": "function"
    },
    {
      "inputs": [
        {
          "internalType": "uint256",
          "name": "",
          "type": "uint256"
        }
      ],
      "name": "blockDeltaEndStage",
      "outputs": [
        {
          "internalType": "uint256",
          "name": "",
          "type": "uint256"
        }
      ],
      "stateMutability": "view",
      "type": "function"
    },
    {
      "inputs": [
        {
          "internalType": "uint256",
          "name": "",
          "type": "uint256"
        }
      ],
      "name": "blockDeltaStartStage",
      "outputs": [
        {
          "internalType": "uint256",
          "name": "",
          "type": "uint256"
        }
      ],
      "stateMutability": "view",
      "type": "function"
    },
    {
      "inputs": [],
      "name": "comfundaddr",
      "outputs": [
        {
          "internalType": "address",
          "name": "",
          "type": "address"
        }
      ],
      "stateMutability": "view",
      "type": "function"
    },
    {
      "inputs": [],
      "name": "devDepFee",
      "outputs": [
        {
          "internalType": "uint256",
          "name": "",
          "type": "uint256"
        }
      ],
      "stateMutability": "view",
      "type": "function"
    },
    {
      "inputs": [
        {
          "internalType": "uint256",
          "name": "",
          "type": "uint256"
        }
      ],
      "name": "devFeeStage",
      "outputs": [
        {
          "internalType": "uint256",
          "name": "",
          "type": "uint256"
        }
      ],
      "stateMutability": "view",
      "type": "function"
    },
    {
      "inputs": [],
      "name": "devaddr",
      "outputs": [
        {
          "internalType": "address",
          "name": "",
          "type": "address"
        }
      ],
      "stateMutability": "view",
      "type": "function"
    },
    {
      "inputs": [],
      "name": "founderaddr",
      "outputs": [
        {
          "internalType": "address",
          "name": "",
          "type": "address"
        }
      ],
      "stateMutability": "view",
      "type": "function"
    },
    {
      "inputs": [],
      "name": "liquidityaddr",
      "outputs": [
        {
          "internalType": "address",
          "name": "",
          "type": "address"
        }
      ],
      "stateMutability": "view",
      "type": "function"
    },
    {
      "inputs": [],
      "name": "migrator",
      "outputs": [
        {
          "internalType": "contract IMigratorToQuicSwap",
          "name": "",
          "type": "address"
        }
      ],
      "stateMutability": "view",
      "type": "function"
    },
    {
      "inputs": [
        {
          "internalType": "address",
          "name": "",
          "type": "address"
        }
      ],
      "name": "poolId1",
      "outputs": [
        {
          "internalType": "uint256",
          "name": "",
          "type": "uint256"
        }
      ],
      "stateMutability": "view",
      "type": "function"
    },
    {
      "inputs": [
        {
          "internalType": "uint256",
          "name": "",
          "type": "uint256"
        }
      ],
      "name": "poolInfo",
      "outputs": [
        {
          "internalType": "contract IERC20",
          "name": "lpToken",
          "type": "address"
        },
        {
          "internalType": "uint256",
          "name": "allocPoint",
          "type": "uint256"
        },
        {
          "internalType": "uint256",
          "name": "lastRewardBlock",
          "type": "uint256"
        },
        {
          "internalType": "uint256",
          "name": "accQuicPerShare",
          "type": "uint256"
        }
      ],
      "stateMutability": "view",
      "type": "function"
    },
    {
      "inputs": [],
      "name": "totalAllocPoint",
      "outputs": [
        {
          "internalType": "uint256",
          "name": "",
          "type": "uint256"
        }
      ],
      "stateMutability": "view",
      "type": "function"
    },
    {
      "inputs": [],
      "name": "usdOracle",
      "outputs": [
        {
          "internalType": "address",
          "name": "",
          "type": "address"
        }
      ],
      "stateMutability": "view",
      "type": "function"
    },
    {
      "inputs": [],
      "name": "userDepFee",
      "outputs": [
        {
          "internalType": "uint256",
          "name": "",
          "type": "uint256"
        }
      ],
      "stateMutability": "view",
      "type": "function"
    },
    {
      "inputs": [
        {
          "internalType": "uint256",
          "name": "",
          "type": "uint256"
        }
      ],
      "name": "userFeeStage",
      "outputs": [
        {
          "internalType": "uint256",
          "name": "",
          "type": "uint256"
        }
      ],
      "stateMutability": "view",
      "type": "function"
    },
    {
      "inputs": [
        {
          "internalType": "address",
          "name": "",
          "type": "address"
        }
      ],
      "name": "userGlobalInfo",
      "outputs": [
        {
          "internalType": "uint256",
          "name": "globalAmount",
          "type": "uint256"
        },
        {
          "internalType": "uint256",
          "name": "totalReferals",
          "type": "uint256"
        },
        {
          "internalType": "uint256",
          "name": "globalRefAmount",
          "type": "uint256"
        }
      ],
      "stateMutability": "view",
      "type": "function"
    },
    {
      "inputs": [
        {
          "internalType": "uint256",
          "name": "",
          "type": "uint256"
        },
        {
          "internalType": "address",
          "name": "",
          "type": "address"
        }
      ],
      "name": "userInfo",
      "outputs": [
        {
          "internalType": "uint256",
          "name": "amount",
          "type": "uint256"
        },
        {
          "internalType": "uint256",
          "name": "rewardDebt",
          "type": "uint256"
        },
        {
          "internalType": "uint256",
          "name": "rewardDebtAtBlock",
          "type": "uint256"
        },
        {
          "internalType": "uint256",
          "name": "lastWithdrawBlock",
          "type": "uint256"
        },
        {
          "internalType": "uint256",
          "name": "firstDepositBlock",
          "type": "uint256"
        },
        {
          "internalType": "uint256",
          "name": "blockdelta",
          "type": "uint256"
        },
        {
          "internalType": "uint256",
          "name": "lastDepositBlock",
          "type": "uint256"
        }
      ],
      "stateMutability": "view",
      "type": "function"
    }
  ],
  "bytecode": "0x608060405260405180610ba0016040528061010061ffff16815260200161010061ffff16815260200161010061ffff16815260200161010061ffff16815260200161010061ffff16815260200161010061ffff168152602001608061ffff168152602001608061ffff168152602001608061ffff168152602001608061ffff168152602001608061ffff168152602001608061ffff168152602001608061ffff168152602001608061ffff168152602001608061ffff168152602001604061ffff168152602001604061ffff168152602001604061ffff168152602001604061ffff168152602001604061ffff168152602001604061ffff168152602001604061ffff168152602001604061ffff168152602001604061ffff168152602001604061ffff168152602001604061ffff168152602001601061ffff168152602001600861ffff168152602001600861ffff168152602001600861ffff168152602001600861ffff168152602001602061ffff168152602001602061ffff168152602001604061ffff168152602001604061ffff168152602001604061ffff168152602001608061ffff168152602001608061ffff168152602001608061ffff168152602001608061ffff168152602001608061ffff168152602001608061ffff168152602001608061ffff168152602001608061ffff168152602001608061ffff168152602001608061ffff16815260200161010061ffff16815260200161010061ffff16815260200161010061ffff168152602001608061ffff168152602001608061ffff168152602001608061ffff168152602001608061ffff168152602001608061ffff168152602001608061ffff168152602001608061ffff168152602001608061ffff168152602001608061ffff168152602001604061ffff168152602001604061ffff168152602001604061ffff168152602001604061ffff168152602001604061ffff168152602001604061ffff168152602001604061ffff168152602001604061ffff168152602001604061ffff168152602001604061ffff168152602001604061ffff168152602001602061ffff168152602001602061ffff168152602001602061ffff168152602001602061ffff168152602001602061ffff168152602001602061ffff168152602001602061ffff168152602001602061ffff168152602001602061ffff168152602001602061ffff168152602001602061ffff168152602001602061ffff168152602001602061ffff168152602001601061ffff168152602001601061ffff168152602001601061ffff168152602001601061ffff168152602001600861ffff168152602001600861ffff168152602001600861ffff168152602001600461ffff168152602001600261ffff168152602001600161ffff168152602001600061ffff16815250600790605d61042692919061043e565b506000601c5534801561043857600080fd5b506104ae565b828054828255906000526020600020908101928215610480579160200282015b8281111561047f578251829061ffff1690559160200191906001019061045e565b5b50905061048d9190610491565b5090565b5b808211156104aa576000816000905550600101610492565b5090565b610b25806104bd6000396000f3fe608060405234801561001057600080fd5b50600436106101cf5760003560e01c806395fdf25811610104578063c8a4271f116100a2578063d49e77cd11610071578063d49e77cd146106ff578063d9608d8a14610733578063ec12173d14610799578063ed9bdeda146107cd576101cf565b8063c8a4271f146105ef578063cb0b8ca114610623578063ce2529c914610665578063d007db29146106bd576101cf565b8063a02306f9116100de578063a02306f914610553578063beff2a5314610571578063c56a10ff146105b3578063c6929e53146105d1576101cf565b806395fdf258146104f9578063975532dc14610517578063980c2a9814610535576101cf565b80633c9d9267116101715780636245f0841161014b5780636245f084146103d95780637cd07e471461041b57806382796e981461044f57806393f1a40b1461046d576101cf565b80633c9d9267146103455780634179b4fb1461037957806353ac0dab146103bb576101cf565b806322a376b0116101ad57806322a376b01461027d5780632710b33f146102b15780632fda7735146102e557806339b3e82614610327576101cf565b80630a67d518146101d45780631526fe27146101f257806317caf6f11461025f575b600080fd5b6101dc6107eb565b6040518082815260200191505060405180910390f35b61021e6004803603602081101561020857600080fd5b81019080803590602001909291905050506107f1565b604051808573ffffffffffffffffffffffffffffffffffffffff16815260200184815260200183815260200182815260200194505050505060405180910390f35b61026761084e565b6040518082815260200191505060405180910390f35b610285610854565b604051808273ffffffffffffffffffffffffffffffffffffffff16815260200191505060405180910390f35b6102b961087a565b604051808273ffffffffffffffffffffffffffffffffffffffff16815260200191505060405180910390f35b610311600480360360208110156102fb57600080fd5b810190808035906020019092919050505061089e565b6040518082815260200191505060405180910390f35b61032f6108bf565b6040518082815260200191505060405180910390f35b61034d6108c5565b604051808273ffffffffffffffffffffffffffffffffffffffff16815260200191505060405180910390f35b6103a56004803603602081101561038f57600080fd5b81019080803590602001909291905050506108eb565b6040518082815260200191505060405180910390f35b6103c361090c565b6040518082815260200191505060405180910390f35b610405600480360360208110156103ef57600080fd5b8101908080359060200190929190505050610912565b6040518082815260200191505060405180910390f35b610423610933565b604051808273ffffffffffffffffffffffffffffffffffffffff16815260200191505060405180910390f35b610457610959565b6040518082815260200191505060405180910390f35b6104b96004803603604081101561048357600080fd5b8101908080359060200190929190803573ffffffffffffffffffffffffffffffffffffffff16906020019092919050505061095f565b6040518088815260200187815260200186815260200185815260200184815260200183815260200182815260200197505050505050505060405180910390f35b6105016109ae565b6040518082815260200191505060405180910390f35b61051f6109b4565b6040518082815260200191505060405180910390f35b61053d6109ba565b6040518082815260200191505060405180910390f35b61055b6109c0565b6040518082815260200191505060405180910390f35b61059d6004803603602081101561058757600080fd5b81019080803590602001909291905050506109c6565b6040518082815260200191505060405180910390f35b6105bb6109e7565b6040518082815260200191505060405180910390f35b6105d96109ed565b6040518082815260200191505060405180910390f35b6105f76109f3565b604051808273ffffffffffffffffffffffffffffffffffffffff16815260200191505060405180910390f35b61064f6004803603602081101561063957600080fd5b8101908080359060200190929190505050610a19565b6040518082815260200191505060405180910390f35b6106a76004803603602081101561067b57600080fd5b81019080803573ffffffffffffffffffffffffffffffffffffffff169060200190929190505050610a3a565b6040518082815260200191505060405180910390f35b6106e9600480360360208110156106d357600080fd5b8101908080359060200190929190505050610a52565b6040518082815260200191505060405180910390f35b610707610a73565b604051808273ffffffffffffffffffffffffffffffffffffffff16815260200191505060405180910390f35b6107756004803603602081101561074957600080fd5b81019080803573ffffffffffffffffffffffffffffffffffffffff169060200190929190505050610a99565b60405180848152602001838152602001828152602001935050505060405180910390f35b6107a1610ac3565b604051808273ffffffffffffffffffffffffffffffffffffffff16815260200191505060405180910390f35b6107d5610ae9565b6040518082815260200191505060405180910390f35b60135481565b601881815481106107fe57fe5b90600052602060002090600402016000915090508060000160009054906101000a900473ffffffffffffffffffffffffffffffffffffffff16908060010154908060020154908060030154905084565b601c5481565b600360009054906101000a900473ffffffffffffffffffffffffffffffffffffffff1681565b60008054906101000a900473ffffffffffffffffffffffffffffffffffffffff1681565b600781815481106108ab57fe5b906000526020600020016000915090505481565b60105481565b600460009054906101000a900473ffffffffffffffffffffffffffffffffffffffff1681565b600881815481106108f857fe5b906000526020600020016000915090505481565b60165481565b6009818154811061091f57fe5b906000526020600020016000915090505481565b601760009054906101000a900473ffffffffffffffffffffffffffffffffffffffff1681565b600e5481565b601a602052816000526040600020602052806000526040600020600091509150508060000154908060010154908060020154908060030154908060040154908060050154908060060154905087565b60115481565b60065481565b600d5481565b60145481565b600c81815481106109d357fe5b906000526020600020016000915090505481565b600f5481565b60155481565b600160009054906101000a900473ffffffffffffffffffffffffffffffffffffffff1681565b600a8181548110610a2657fe5b906000526020600020016000915090505481565b60196020528060005260406000206000915090505481565b600b8181548110610a5f57fe5b906000526020600020016000915090505481565b600260009054906101000a900473ffffffffffffffffffffffffffffffffffffffff1681565b601b6020528060005260406000206000915090508060000154908060020154908060030154905083565b600560009054906101000a900473ffffffffffffffffffffffffffffffffffffffff1681565b6012548156fea2646970667358221220822fa1bbadd030dd92559bb559596992c3192fd1386dc87e283417d452238c9564736f6c634300060c0033",
  "immutableReferences": {},
  "source": "\n// SPDX-License-Identifier: MIT\npragma solidity 0.6.12;\n\nimport \"./QuicToken.sol\";\nimport \"./IMigratorToQuicSwap.sol\";\n\ncontract QuicMasterStorage {\n        // Info of each user.\n    struct UserInfo {\n        uint256 amount;     // How many LP tokens the user has provided.\n        uint256 rewardDebt; // Reward debt. See explanation below.\n        uint256 rewardDebtAtBlock; // the last block user stake\n\t\tuint256 lastWithdrawBlock; // the last block a user withdrew at.\n\t\tuint256 firstDepositBlock; // the last block a user deposited at.\n\t\tuint256 blockdelta; //time passed since withdrawals\n\t\tuint256 lastDepositBlock;\n        //\n        // We do some fancy math here. Basically, any point in time, the amount of Quics\n        // entitled to a user but is pending to be distributed is:\n        //\n        //   pending reward = (user.amount * pool.accQuicPerShare) - user.rewardDebt\n        //\n        // Whenever a user deposits or withdraws LP tokens to a pool. Here's what happens:\n        //   1. The pool's `accQuicPerShare` (and `lastRewardBlock`) gets updated.\n        //   2. User receives the pending reward sent to his/her address.\n        //   3. User's `amount` gets updated.\n        //   4. User's `rewardDebt` gets updated.\n    }\n\n    struct UserGlobalInfo {\n        uint256 globalAmount;\n        mapping(address => uint256) referrals;\n        uint256 totalReferals;\n        uint256 globalRefAmount;\n    }\n\n    // Info of each pool.\n    struct PoolInfo {\n        IERC20 lpToken;           // Address of LP token contract.\n        uint256 allocPoint;       // How many allocation points assigned to this pool. Quic to distribute per block.\n        uint256 lastRewardBlock;  // Last block number that Quic distribution occurs.\n        uint256 accQuicPerShare; // Accumulated Quic per share, times 1e12. See below.\n    }\n    // The Quic TOKEN!\n    QuicToken public Quic;\n    //An ETH/USDC Oracle (Chainlink)\n    address public usdOracle;\n    // Dev address.\n    address public devaddr;\n\t// LP address\n\taddress public liquidityaddr;\n\t// Community Fund Address\n\taddress public comfundaddr;\n\t// Founder Reward\n\taddress public founderaddr;\n    // Quic tokens created per block.\n    uint256 public REWARD_PER_BLOCK;\n    // Bonus muliplier for early Quic makers.\n    uint256[] public REWARD_MULTIPLIER =[256, 256, 256, 256, 256, 256, 128, 128, 128, 128, 128, 128, 128, 128, 128, 64, 64, 64, 64, 64, 64, 64, 64, 64, 64, 64, 16, 8, 8, 8, 8, 32, 32, 64, 64, 64, 128, 128, 128, 128, 128, 128, 128, 128, 128, 128, 256, 256, 256, 128, 128, 128, 128, 128, 128, 128, 128, 128, 64, 64, 64, 64, 64, 64, 64, 64, 64, 64, 64, 32, 32, 32, 32, 32, 32, 32, 32, 32, 32, 32, 32, 32, 16, 16, 16, 16, 8, 8, 8, 4, 2, 1, 0];\n    uint256[] public HALVING_AT_BLOCK; // init in constructor function\n    uint256[] public blockDeltaStartStage;\n    uint256[] public blockDeltaEndStage;\n    uint256[] public userFeeStage;\n    uint256[] public devFeeStage;\n    uint256 public FINISH_BONUS_AT_BLOCK;\n    uint256 public userDepFee;\n    uint256 public devDepFee;\n\n    // The block number when Quic mining starts.\n    uint256 public START_BLOCK;\n\n    uint256 public PERCENT_LOCK_BONUS_REWARD; // lock xx% of bounus reward in 3 year\n    uint256 public PERCENT_FOR_DEV; // dev bounties + partnerships\n\tuint256 public PERCENT_FOR_LP; // LP fund\n\tuint256 public PERCENT_FOR_COM; // community fund\n\tuint256 public PERCENT_FOR_FOUNDERS; // founders fund\n    uint256 public HALVING_AFTER;\n    // The migrator contract. It has a lot of power. Can only be set through governance (owner).\n    IMigratorToQuicSwap public migrator;\n\n    // Info of each pool.\n    PoolInfo[] public poolInfo;\n    mapping(address => uint256) public poolId1; // poolId1 count from 1, subtraction 1 before using with poolInfo\n    // Info of each user that stakes LP tokens. pid => user address => info\n    mapping (uint256 => mapping (address => UserInfo)) public userInfo;\n    mapping (address => UserGlobalInfo) public userGlobalInfo;\n    // Total allocation poitns. Must be the sum of all allocation points in all pools.\n    uint256 public totalAllocPoint = 0;\n\n    event Deposit(address indexed user, uint256 indexed pid, uint256 amount);\n    event Withdraw(address indexed user, uint256 indexed pid, uint256 amount);\n    event EmergencyWithdraw(address indexed user, uint256 indexed pid, uint256 amount);\n    event SendQuicReward(address indexed user, uint256 indexed pid, uint256 amount, uint256 lockAmount);\n\n}",
  "sourcePath": "/Users/mark.wagner/Dropbox/projects/quic.finance/contracts/QuicMasterStorage.sol",
  "compiler": {
    "name": "solc",
    "version": "0.6.12+commit.27d51765.Emscripten.clang"
  },
  "schemaVersion": "3.3.4",
  "updatedAt": "2021-04-09T19:04:34.034Z",
  "devdoc": {
    "kind": "dev",
    "methods": {},
    "version": 1
  },
  "userdoc": {
    "kind": "user",
    "methods": {},
    "version": 1
  }
}