{
  "contractName": "QuicMasterFarmer",
  "abi": [
    {
      "inputs": [
        {
          "internalType": "contract QuicToken",
          "name": "_Quic",
          "type": "address"
        },
        {
          "internalType": "address",
          "name": "_devaddr",
          "type": "address"
        },
        {
          "internalType": "address",
          "name": "_liquidityaddr",
          "type": "address"
        },
        {
          "internalType": "address",
          "name": "_comfundaddr",
          "type": "address"
        },
        {
          "internalType": "address",
          "name": "_founderaddr",
          "type": "address"
        },
        {
          "internalType": "uint256",
          "name": "_rewardPerBlock",
          "type": "uint256"
        },
        {
          "internalType": "uint256",
          "name": "_startBlock",
          "type": "uint256"
        },
        {
          "internalType": "uint256",
          "name": "_halvingAfterBlock",
          "type": "uint256"
        },
        {
          "internalType": "uint256",
          "name": "_userDepFee",
          "type": "uint256"
        },
        {
          "internalType": "uint256",
          "name": "_devDepFee",
          "type": "uint256"
        },
        {
          "internalType": "uint256[]",
          "name": "_blockDeltaStartStage",
          "type": "uint256[]"
        },
        {
          "internalType": "uint256[]",
          "name": "_blockDeltaEndStage",
          "type": "uint256[]"
        },
        {
          "internalType": "uint256[]",
          "name": "_userFeeStage",
          "type": "uint256[]"
        },
        {
          "internalType": "uint256[]",
          "name": "_devFeeStage",
          "type": "uint256[]"
        },
        {
          "internalType": "address",
          "name": "_transactionsContract",
          "type": "address"
        }
      ],
      "stateMutability": "nonpayable",
      "type": "constructor"
    },
    {
      "anonymous": false,
      "inputs": [
        {
          "indexed": true,
          "internalType": "address",
          "name": "user",
          "type": "address"
        },
        {
          "indexed": true,
          "internalType": "uint256",
          "name": "pid",
          "type": "uint256"
        },
        {
          "indexed": false,
          "internalType": "uint256",
          "name": "amount",
          "type": "uint256"
        }
      ],
      "name": "Deposit",
      "type": "event"
    },
    {
      "anonymous": false,
      "inputs": [
        {
          "indexed": true,
          "internalType": "address",
          "name": "user",
          "type": "address"
        },
        {
          "indexed": true,
          "internalType": "uint256",
          "name": "pid",
          "type": "uint256"
        },
        {
          "indexed": false,
          "internalType": "uint256",
          "name": "amount",
          "type": "uint256"
        }
      ],
      "name": "EmergencyWithdraw",
      "type": "event"
    },
    {
      "anonymous": false,
      "inputs": [
        {
          "indexed": true,
          "internalType": "address",
          "name": "previousOwner",
          "type": "address"
        },
        {
          "indexed": true,
          "internalType": "address",
          "name": "newOwner",
          "type": "address"
        }
      ],
      "name": "OwnershipTransferred",
      "type": "event"
    },
    {
      "anonymous": false,
      "inputs": [
        {
          "indexed": true,
          "internalType": "address",
          "name": "user",
          "type": "address"
        },
        {
          "indexed": true,
          "internalType": "uint256",
          "name": "pid",
          "type": "uint256"
        },
        {
          "indexed": false,
          "internalType": "uint256",
          "name": "amount",
          "type": "uint256"
        },
        {
          "indexed": false,
          "internalType": "uint256",
          "name": "lockAmount",
          "type": "uint256"
        }
      ],
      "name": "SendQuicReward",
      "type": "event"
    },
    {
      "anonymous": false,
      "inputs": [
        {
          "indexed": true,
          "internalType": "address",
          "name": "user",
          "type": "address"
        },
        {
          "indexed": true,
          "internalType": "uint256",
          "name": "pid",
          "type": "uint256"
        },
        {
          "indexed": false,
          "internalType": "uint256",
          "name": "amount",
          "type": "uint256"
        }
      ],
      "name": "Withdraw",
      "type": "event"
    },
    {
      "inputs": [],
      "name": "FINISH_BONUS_AT_BLOCK",
      "outputs": [
        {
          "internalType": "uint256",
          "name": "",
          "type": "uint256"
        }
      ],
      "stateMutability": "view",
      "type": "function",
      "constant": true
    },
    {
      "inputs": [],
      "name": "HALVING_AFTER",
      "outputs": [
        {
          "internalType": "uint256",
          "name": "",
          "type": "uint256"
        }
      ],
      "stateMutability": "view",
      "type": "function",
      "constant": true
    },
    {
      "inputs": [
        {
          "internalType": "uint256",
          "name": "",
          "type": "uint256"
        }
      ],
      "name": "HALVING_AT_BLOCK",
      "outputs": [
        {
          "internalType": "uint256",
          "name": "",
          "type": "uint256"
        }
      ],
      "stateMutability": "view",
      "type": "function",
      "constant": true
    },
    {
      "inputs": [],
      "name": "PERCENT_FOR_COM",
      "outputs": [
        {
          "internalType": "uint256",
          "name": "",
          "type": "uint256"
        }
      ],
      "stateMutability": "view",
      "type": "function",
      "constant": true
    },
    {
      "inputs": [],
      "name": "PERCENT_FOR_DEV",
      "outputs": [
        {
          "internalType": "uint256",
          "name": "",
          "type": "uint256"
        }
      ],
      "stateMutability": "view",
      "type": "function",
      "constant": true
    },
    {
      "inputs": [],
      "name": "PERCENT_FOR_FOUNDERS",
      "outputs": [
        {
          "internalType": "uint256",
          "name": "",
          "type": "uint256"
        }
      ],
      "stateMutability": "view",
      "type": "function",
      "constant": true
    },
    {
      "inputs": [],
      "name": "PERCENT_FOR_LP",
      "outputs": [
        {
          "internalType": "uint256",
          "name": "",
          "type": "uint256"
        }
      ],
      "stateMutability": "view",
      "type": "function",
      "constant": true
    },
    {
      "inputs": [],
      "name": "PERCENT_LOCK_BONUS_REWARD",
      "outputs": [
        {
          "internalType": "uint256",
          "name": "",
          "type": "uint256"
        }
      ],
      "stateMutability": "view",
      "type": "function",
      "constant": true
    },
    {
      "inputs": [],
      "name": "Quic",
      "outputs": [
        {
          "internalType": "contract QuicToken",
          "name": "",
          "type": "address"
        }
      ],
      "stateMutability": "view",
      "type": "function",
      "constant": true
    },
    {
      "inputs": [
        {
          "internalType": "uint256",
          "name": "",
          "type": "uint256"
        }
      ],
      "name": "REWARD_MULTIPLIER",
      "outputs": [
        {
          "internalType": "uint256",
          "name": "",
          "type": "uint256"
        }
      ],
      "stateMutability": "view",
      "type": "function",
      "constant": true
    },
    {
      "inputs": [],
      "name": "REWARD_PER_BLOCK",
      "outputs": [
        {
          "internalType": "uint256",
          "name": "",
          "type": "uint256"
        }
      ],
      "stateMutability": "view",
      "type": "function",
      "constant": true
    },
    {
      "inputs": [],
      "name": "START_BLOCK",
      "outputs": [
        {
          "internalType": "uint256",
          "name": "",
          "type": "uint256"
        }
      ],
      "stateMutability": "view",
      "type": "function",
      "constant": true
    },
    {
      "inputs": [
        {
          "internalType": "address",
          "name": "_toAdd",
          "type": "address"
        }
      ],
      "name": "addAuthorized",
      "outputs": [],
      "stateMutability": "nonpayable",
      "type": "function"
    },
    {
      "inputs": [
        {
          "internalType": "address",
          "name": "",
          "type": "address"
        }
      ],
      "name": "authorized",
      "outputs": [
        {
          "internalType": "bool",
          "name": "",
          "type": "bool"
        }
      ],
      "stateMutability": "view",
      "type": "function",
      "constant": true
    },
    {
      "inputs": [
        {
          "internalType": "uint256",
          "name": "",
          "type": "uint256"
        }
      ],
      "name": "blockDeltaEndStage",
      "outputs": [
        {
          "internalType": "uint256",
          "name": "",
          "type": "uint256"
        }
      ],
      "stateMutability": "view",
      "type": "function",
      "constant": true
    },
    {
      "inputs": [
        {
          "internalType": "uint256",
          "name": "",
          "type": "uint256"
        }
      ],
      "name": "blockDeltaStartStage",
      "outputs": [
        {
          "internalType": "uint256",
          "name": "",
          "type": "uint256"
        }
      ],
      "stateMutability": "view",
      "type": "function",
      "constant": true
    },
    {
      "inputs": [],
      "name": "comfundaddr",
      "outputs": [
        {
          "internalType": "address",
          "name": "",
          "type": "address"
        }
      ],
      "stateMutability": "view",
      "type": "function",
      "constant": true
    },
    {
      "inputs": [],
      "name": "devDepFee",
      "outputs": [
        {
          "internalType": "uint256",
          "name": "",
          "type": "uint256"
        }
      ],
      "stateMutability": "view",
      "type": "function",
      "constant": true
    },
    {
      "inputs": [
        {
          "internalType": "uint256",
          "name": "",
          "type": "uint256"
        }
      ],
      "name": "devFeeStage",
      "outputs": [
        {
          "internalType": "uint256",
          "name": "",
          "type": "uint256"
        }
      ],
      "stateMutability": "view",
      "type": "function",
      "constant": true
    },
    {
      "inputs": [],
      "name": "devaddr",
      "outputs": [
        {
          "internalType": "address",
          "name": "",
          "type": "address"
        }
      ],
      "stateMutability": "view",
      "type": "function",
      "constant": true
    },
    {
      "inputs": [],
      "name": "founderaddr",
      "outputs": [
        {
          "internalType": "address",
          "name": "",
          "type": "address"
        }
      ],
      "stateMutability": "view",
      "type": "function",
      "constant": true
    },
    {
      "inputs": [],
      "name": "liquidityaddr",
      "outputs": [
        {
          "internalType": "address",
          "name": "",
          "type": "address"
        }
      ],
      "stateMutability": "view",
      "type": "function",
      "constant": true
    },
    {
      "inputs": [],
      "name": "migrator",
      "outputs": [
        {
          "internalType": "contract IMigratorToQuicSwap",
          "name": "",
          "type": "address"
        }
      ],
      "stateMutability": "view",
      "type": "function",
      "constant": true
    },
    {
      "inputs": [],
      "name": "owner",
      "outputs": [
        {
          "internalType": "address",
          "name": "",
          "type": "address"
        }
      ],
      "stateMutability": "view",
      "type": "function",
      "constant": true
    },
    {
      "inputs": [
        {
          "internalType": "address",
          "name": "",
          "type": "address"
        }
      ],
      "name": "poolId1",
      "outputs": [
        {
          "internalType": "uint256",
          "name": "",
          "type": "uint256"
        }
      ],
      "stateMutability": "view",
      "type": "function",
      "constant": true
    },
    {
      "inputs": [
        {
          "internalType": "uint256",
          "name": "",
          "type": "uint256"
        }
      ],
      "name": "poolInfo",
      "outputs": [
        {
          "internalType": "contract IERC20",
          "name": "lpToken",
          "type": "address"
        },
        {
          "internalType": "uint256",
          "name": "allocPoint",
          "type": "uint256"
        },
        {
          "internalType": "uint256",
          "name": "lastRewardBlock",
          "type": "uint256"
        },
        {
          "internalType": "uint256",
          "name": "accQuicPerShare",
          "type": "uint256"
        }
      ],
      "stateMutability": "view",
      "type": "function",
      "constant": true
    },
    {
      "inputs": [
        {
          "internalType": "address",
          "name": "_toRemove",
          "type": "address"
        }
      ],
      "name": "removeAuthorized",
      "outputs": [],
      "stateMutability": "nonpayable",
      "type": "function"
    },
    {
      "inputs": [],
      "name": "renounceOwnership",
      "outputs": [],
      "stateMutability": "nonpayable",
      "type": "function"
    },
    {
      "inputs": [],
      "name": "totalAllocPoint",
      "outputs": [
        {
          "internalType": "uint256",
          "name": "",
          "type": "uint256"
        }
      ],
      "stateMutability": "view",
      "type": "function",
      "constant": true
    },
    {
      "inputs": [],
      "name": "transactionsContract",
      "outputs": [
        {
          "internalType": "address",
          "name": "",
          "type": "address"
        }
      ],
      "stateMutability": "view",
      "type": "function",
      "constant": true
    },
    {
      "inputs": [
        {
          "internalType": "address",
          "name": "newOwner",
          "type": "address"
        }
      ],
      "name": "transferOwnership",
      "outputs": [],
      "stateMutability": "nonpayable",
      "type": "function"
    },
    {
      "inputs": [],
      "name": "usdOracle",
      "outputs": [
        {
          "internalType": "address",
          "name": "",
          "type": "address"
        }
      ],
      "stateMutability": "view",
      "type": "function",
      "constant": true
    },
    {
      "inputs": [],
      "name": "userDepFee",
      "outputs": [
        {
          "internalType": "uint256",
          "name": "",
          "type": "uint256"
        }
      ],
      "stateMutability": "view",
      "type": "function",
      "constant": true
    },
    {
      "inputs": [
        {
          "internalType": "uint256",
          "name": "",
          "type": "uint256"
        }
      ],
      "name": "userFeeStage",
      "outputs": [
        {
          "internalType": "uint256",
          "name": "",
          "type": "uint256"
        }
      ],
      "stateMutability": "view",
      "type": "function",
      "constant": true
    },
    {
      "inputs": [
        {
          "internalType": "address",
          "name": "",
          "type": "address"
        }
      ],
      "name": "userGlobalInfo",
      "outputs": [
        {
          "internalType": "uint256",
          "name": "globalAmount",
          "type": "uint256"
        },
        {
          "internalType": "uint256",
          "name": "totalReferals",
          "type": "uint256"
        },
        {
          "internalType": "uint256",
          "name": "globalRefAmount",
          "type": "uint256"
        }
      ],
      "stateMutability": "view",
      "type": "function",
      "constant": true
    },
    {
      "inputs": [
        {
          "internalType": "uint256",
          "name": "",
          "type": "uint256"
        },
        {
          "internalType": "address",
          "name": "",
          "type": "address"
        }
      ],
      "name": "userInfo",
      "outputs": [
        {
          "internalType": "uint256",
          "name": "amount",
          "type": "uint256"
        },
        {
          "internalType": "uint256",
          "name": "rewardDebt",
          "type": "uint256"
        },
        {
          "internalType": "uint256",
          "name": "rewardDebtAtBlock",
          "type": "uint256"
        },
        {
          "internalType": "uint256",
          "name": "lastWithdrawBlock",
          "type": "uint256"
        },
        {
          "internalType": "uint256",
          "name": "firstDepositBlock",
          "type": "uint256"
        },
        {
          "internalType": "uint256",
          "name": "blockdelta",
          "type": "uint256"
        },
        {
          "internalType": "uint256",
          "name": "lastDepositBlock",
          "type": "uint256"
        }
      ],
      "stateMutability": "view",
      "type": "function",
      "constant": true
    },
    {
      "inputs": [],
      "name": "poolLength",
      "outputs": [
        {
          "internalType": "uint256",
          "name": "",
          "type": "uint256"
        }
      ],
      "stateMutability": "view",
      "type": "function",
      "constant": true
    },
    {
      "inputs": [],
      "name": "setup",
      "outputs": [],
      "stateMutability": "nonpayable",
      "type": "function"
    },
    {
      "inputs": [
        {
          "internalType": "uint256",
          "name": "_allocPoint",
          "type": "uint256"
        },
        {
          "internalType": "contract IERC20",
          "name": "_lpToken",
          "type": "address"
        },
        {
          "internalType": "bool",
          "name": "_withUpdate",
          "type": "bool"
        }
      ],
      "name": "add",
      "outputs": [],
      "stateMutability": "nonpayable",
      "type": "function"
    },
    {
      "inputs": [
        {
          "internalType": "uint256",
          "name": "_pid",
          "type": "uint256"
        },
        {
          "internalType": "uint256",
          "name": "_allocPoint",
          "type": "uint256"
        },
        {
          "internalType": "bool",
          "name": "_withUpdate",
          "type": "bool"
        }
      ],
      "name": "set",
      "outputs": [],
      "stateMutability": "nonpayable",
      "type": "function"
    },
    {
      "inputs": [
        {
          "internalType": "contract IMigratorToQuicSwap",
          "name": "_migrator",
          "type": "address"
        }
      ],
      "name": "setMigrator",
      "outputs": [],
      "stateMutability": "nonpayable",
      "type": "function"
    },
    {
      "inputs": [
        {
          "internalType": "uint256",
          "name": "_pid",
          "type": "uint256"
        }
      ],
      "name": "migrate",
      "outputs": [],
      "stateMutability": "nonpayable",
      "type": "function"
    },
    {
      "inputs": [],
      "name": "massUpdatePools",
      "outputs": [],
      "stateMutability": "nonpayable",
      "type": "function"
    },
    {
      "inputs": [
        {
          "internalType": "uint256",
          "name": "_pid",
          "type": "uint256"
        }
      ],
      "name": "updatePool",
      "outputs": [],
      "stateMutability": "nonpayable",
      "type": "function"
    },
    {
      "inputs": [
        {
          "internalType": "uint256",
          "name": "_from",
          "type": "uint256"
        },
        {
          "internalType": "uint256",
          "name": "_to",
          "type": "uint256"
        }
      ],
      "name": "getMultiplier",
      "outputs": [
        {
          "internalType": "uint256",
          "name": "",
          "type": "uint256"
        }
      ],
      "stateMutability": "view",
      "type": "function",
      "constant": true
    },
    {
      "inputs": [
        {
          "internalType": "uint256",
          "name": "_from",
          "type": "uint256"
        },
        {
          "internalType": "uint256",
          "name": "_to",
          "type": "uint256"
        },
        {
          "internalType": "uint256",
          "name": "_allocPoint",
          "type": "uint256"
        }
      ],
      "name": "getPoolReward",
      "outputs": [
        {
          "internalType": "uint256",
          "name": "forDev",
          "type": "uint256"
        },
        {
          "internalType": "uint256",
          "name": "forFarmer",
          "type": "uint256"
        },
        {
          "internalType": "uint256",
          "name": "forLP",
          "type": "uint256"
        },
        {
          "internalType": "uint256",
          "name": "forCom",
          "type": "uint256"
        },
        {
          "internalType": "uint256",
          "name": "forFounders",
          "type": "uint256"
        }
      ],
      "stateMutability": "view",
      "type": "function",
      "constant": true
    },
    {
      "inputs": [
        {
          "internalType": "uint256",
          "name": "_pid",
          "type": "uint256"
        },
        {
          "internalType": "address",
          "name": "_user",
          "type": "address"
        }
      ],
      "name": "pendingReward",
      "outputs": [
        {
          "internalType": "uint256",
          "name": "",
          "type": "uint256"
        }
      ],
      "stateMutability": "view",
      "type": "function",
      "constant": true
    },
    {
      "inputs": [
        {
          "internalType": "uint256",
          "name": "_pid",
          "type": "uint256"
        }
      ],
      "name": "claimReward",
      "outputs": [],
      "stateMutability": "nonpayable",
      "type": "function"
    },
    {
      "inputs": [
        {
          "internalType": "uint256",
          "name": "_pid",
          "type": "uint256"
        },
        {
          "internalType": "uint256",
          "name": "_amount",
          "type": "uint256"
        },
        {
          "internalType": "address",
          "name": "_ref",
          "type": "address"
        }
      ],
      "name": "deposit",
      "outputs": [],
      "stateMutability": "nonpayable",
      "type": "function"
    },
    {
      "inputs": [
        {
          "internalType": "uint256",
          "name": "_pid",
          "type": "uint256"
        },
        {
          "internalType": "uint256",
          "name": "_amount",
          "type": "uint256"
        },
        {
          "internalType": "address",
          "name": "_ref",
          "type": "address"
        }
      ],
      "name": "withdraw",
      "outputs": [],
      "stateMutability": "nonpayable",
      "type": "function"
    },
    {
      "inputs": [
        {
          "internalType": "uint256",
          "name": "_pid",
          "type": "uint256"
        }
      ],
      "name": "emergencyWithdraw",
      "outputs": [],
      "stateMutability": "nonpayable",
      "type": "function"
    },
    {
      "inputs": [
        {
          "internalType": "address",
          "name": "_user",
          "type": "address"
        }
      ],
      "name": "getGlobalAmount",
      "outputs": [
        {
          "internalType": "uint256",
          "name": "",
          "type": "uint256"
        }
      ],
      "stateMutability": "view",
      "type": "function",
      "constant": true
    },
    {
      "inputs": [
        {
          "internalType": "address",
          "name": "_user",
          "type": "address"
        }
      ],
      "name": "getGlobalRefAmount",
      "outputs": [
        {
          "internalType": "uint256",
          "name": "",
          "type": "uint256"
        }
      ],
      "stateMutability": "view",
      "type": "function",
      "constant": true
    },
    {
      "inputs": [
        {
          "internalType": "address",
          "name": "_user",
          "type": "address"
        }
      ],
      "name": "getTotalRefs",
      "outputs": [
        {
          "internalType": "uint256",
          "name": "",
          "type": "uint256"
        }
      ],
      "stateMutability": "view",
      "type": "function",
      "constant": true
    },
    {
      "inputs": [
        {
          "internalType": "address",
          "name": "_user",
          "type": "address"
        },
        {
          "internalType": "address",
          "name": "_user2",
          "type": "address"
        }
      ],
      "name": "getRefValueOf",
      "outputs": [
        {
          "internalType": "uint256",
          "name": "",
          "type": "uint256"
        }
      ],
      "stateMutability": "view",
      "type": "function",
      "constant": true
    },
    {
      "inputs": [
        {
          "internalType": "address",
          "name": "_devaddr",
          "type": "address"
        }
      ],
      "name": "dev",
      "outputs": [],
      "stateMutability": "nonpayable",
      "type": "function"
    },
    {
      "inputs": [
        {
          "internalType": "uint256",
          "name": "_newFinish",
          "type": "uint256"
        }
      ],
      "name": "bonusFinishUpdate",
      "outputs": [],
      "stateMutability": "nonpayable",
      "type": "function"
    },
    {
      "inputs": [
        {
          "internalType": "uint256[]",
          "name": "_newHalving",
          "type": "uint256[]"
        }
      ],
      "name": "halvingUpdate",
      "outputs": [],
      "stateMutability": "nonpayable",
      "type": "function"
    },
    {
      "inputs": [
        {
          "internalType": "address",
          "name": "_newLP",
          "type": "address"
        }
      ],
      "name": "lpUpdate",
      "outputs": [],
      "stateMutability": "nonpayable",
      "type": "function"
    },
    {
      "inputs": [
        {
          "internalType": "address",
          "name": "_newCom",
          "type": "address"
        }
      ],
      "name": "comUpdate",
      "outputs": [],
      "stateMutability": "nonpayable",
      "type": "function"
    },
    {
      "inputs": [
        {
          "internalType": "address",
          "name": "_newFounder",
          "type": "address"
        }
      ],
      "name": "founderUpdate",
      "outputs": [],
      "stateMutability": "nonpayable",
      "type": "function"
    },
    {
      "inputs": [
        {
          "internalType": "uint256",
          "name": "_newReward",
          "type": "uint256"
        }
      ],
      "name": "rewardUpdate",
      "outputs": [],
      "stateMutability": "nonpayable",
      "type": "function"
    },
    {
      "inputs": [
        {
          "internalType": "uint256[]",
          "name": "_newMulReward",
          "type": "uint256[]"
        }
      ],
      "name": "rewardMulUpdate",
      "outputs": [],
      "stateMutability": "nonpayable",
      "type": "function"
    },
    {
      "inputs": [
        {
          "internalType": "uint256",
          "name": "_newlock",
          "type": "uint256"
        }
      ],
      "name": "lockUpdate",
      "outputs": [],
      "stateMutability": "nonpayable",
      "type": "function"
    },
    {
      "inputs": [
        {
          "internalType": "uint256",
          "name": "_newdevlock",
          "type": "uint256"
        }
      ],
      "name": "lockdevUpdate",
      "outputs": [],
      "stateMutability": "nonpayable",
      "type": "function"
    },
    {
      "inputs": [
        {
          "internalType": "uint256",
          "name": "_newlplock",
          "type": "uint256"
        }
      ],
      "name": "locklpUpdate",
      "outputs": [],
      "stateMutability": "nonpayable",
      "type": "function"
    },
    {
      "inputs": [
        {
          "internalType": "uint256",
          "name": "_newcomlock",
          "type": "uint256"
        }
      ],
      "name": "lockcomUpdate",
      "outputs": [],
      "stateMutability": "nonpayable",
      "type": "function"
    },
    {
      "inputs": [
        {
          "internalType": "uint256",
          "name": "_newfounderlock",
          "type": "uint256"
        }
      ],
      "name": "lockfounderUpdate",
      "outputs": [],
      "stateMutability": "nonpayable",
      "type": "function"
    },
    {
      "inputs": [
        {
          "internalType": "uint256",
          "name": "_newstarblock",
          "type": "uint256"
        }
      ],
      "name": "starblockUpdate",
      "outputs": [],
      "stateMutability": "nonpayable",
      "type": "function"
    },
    {
      "inputs": [
        {
          "internalType": "uint256",
          "name": "pid1",
          "type": "uint256"
        }
      ],
      "name": "getNewRewardPerBlock",
      "outputs": [
        {
          "internalType": "uint256",
          "name": "",
          "type": "uint256"
        }
      ],
      "stateMutability": "view",
      "type": "function",
      "constant": true
    },
    {
      "inputs": [
        {
          "internalType": "uint256",
          "name": "_pid",
          "type": "uint256"
        }
      ],
      "name": "userDelta",
      "outputs": [
        {
          "internalType": "uint256",
          "name": "",
          "type": "uint256"
        }
      ],
      "stateMutability": "view",
      "type": "function",
      "constant": true
    },
    {
      "inputs": [
        {
          "internalType": "uint256",
          "name": "_pid",
          "type": "uint256"
        },
        {
          "internalType": "address",
          "name": "_user",
          "type": "address"
        },
        {
          "internalType": "uint256",
          "name": "_block",
          "type": "uint256"
        }
      ],
      "name": "reviseWithdraw",
      "outputs": [],
      "stateMutability": "nonpayable",
      "type": "function"
    },
    {
      "inputs": [
        {
          "internalType": "uint256",
          "name": "_pid",
          "type": "uint256"
        },
        {
          "internalType": "address",
          "name": "_user",
          "type": "address"
        },
        {
          "internalType": "uint256",
          "name": "_block",
          "type": "uint256"
        }
      ],
      "name": "reviseDeposit",
      "outputs": [],
      "stateMutability": "nonpayable",
      "type": "function"
    },
    {
      "inputs": [
        {
          "internalType": "uint256[]",
          "name": "_blockStarts",
          "type": "uint256[]"
        }
      ],
      "name": "setStageStarts",
      "outputs": [],
      "stateMutability": "nonpayable",
      "type": "function"
    },
    {
      "inputs": [
        {
          "internalType": "uint256[]",
          "name": "_blockEnds",
          "type": "uint256[]"
        }
      ],
      "name": "setStageEnds",
      "outputs": [],
      "stateMutability": "nonpayable",
      "type": "function"
    },
    {
      "inputs": [
        {
          "internalType": "uint256[]",
          "name": "_userFees",
          "type": "uint256[]"
        }
      ],
      "name": "setUserFeeStage",
      "outputs": [],
      "stateMutability": "nonpayable",
      "type": "function"
    },
    {
      "inputs": [
        {
          "internalType": "uint256[]",
          "name": "_devFees",
          "type": "uint256[]"
        }
      ],
      "name": "setDevFeeStage",
      "outputs": [],
      "stateMutability": "nonpayable",
      "type": "function"
    },
    {
      "inputs": [
        {
          "internalType": "uint256",
          "name": "_devDepFees",
          "type": "uint256"
        }
      ],
      "name": "setDevDepFee",
      "outputs": [],
      "stateMutability": "nonpayable",
      "type": "function"
    },
    {
      "inputs": [
        {
          "internalType": "uint256",
          "name": "_usrDepFees",
          "type": "uint256"
        }
      ],
      "name": "setUserDepFee",
      "outputs": [],
      "stateMutability": "nonpayable",
      "type": "function"
    }
  ],
  "bytecode": "0x608060405260405180610ba0016040528061010061ffff16815260200161010061ffff16815260200161010061ffff16815260200161010061ffff16815260200161010061ffff16815260200161010061ffff168152602001608061ffff168152602001608061ffff168152602001608061ffff168152602001608061ffff168152602001608061ffff168152602001608061ffff168152602001608061ffff168152602001608061ffff168152602001608061ffff168152602001604061ffff168152602001604061ffff168152602001604061ffff168152602001604061ffff168152602001604061ffff168152602001604061ffff168152602001604061ffff168152602001604061ffff168152602001604061ffff168152602001604061ffff168152602001604061ffff168152602001601061ffff168152602001600861ffff168152602001600861ffff168152602001600861ffff168152602001600861ffff168152602001602061ffff168152602001602061ffff168152602001604061ffff168152602001604061ffff168152602001604061ffff168152602001608061ffff168152602001608061ffff168152602001608061ffff168152602001608061ffff168152602001608061ffff168152602001608061ffff168152602001608061ffff168152602001608061ffff168152602001608061ffff168152602001608061ffff16815260200161010061ffff16815260200161010061ffff16815260200161010061ffff168152602001608061ffff168152602001608061ffff168152602001608061ffff168152602001608061ffff168152602001608061ffff168152602001608061ffff168152602001608061ffff168152602001608061ffff168152602001608061ffff168152602001604061ffff168152602001604061ffff168152602001604061ffff168152602001604061ffff168152602001604061ffff168152602001604061ffff168152602001604061ffff168152602001604061ffff168152602001604061ffff168152602001604061ffff168152602001604061ffff168152602001602061ffff168152602001602061ffff168152602001602061ffff168152602001602061ffff168152602001602061ffff168152602001602061ffff168152602001602061ffff168152602001602061ffff168152602001602061ffff168152602001602061ffff168152602001602061ffff168152602001602061ffff168152602001602061ffff168152602001601061ffff168152602001601061ffff168152602001601061ffff168152602001601061ffff168152602001600861ffff168152602001600861ffff168152602001600861ffff168152602001600461ffff168152602001600261ffff168152602001600161ffff168152602001600061ffff16815250600790605d6200042892919062000a11565b506000601c553480156200043b57600080fd5b50604051620063d9380380620063d983398181016040526101e08110156200046257600080fd5b810190808051906020019092919080519060200190929190805190602001909291908051906020019092919080519060200190929190805190602001909291908051906020019092919080519060200190929190805190602001909291908051906020019092919080516040519392919084640100000000821115620004e757600080fd5b83820191506020820185811115620004fe57600080fd5b82518660208202830111640100000000821117156200051c57600080fd5b8083526020830192505050908051906020019060200280838360005b838110156200055557808201518184015260208101905062000538565b50505050905001604052602001805160405193929190846401000000008211156200057f57600080fd5b838201915060208201858111156200059657600080fd5b8251866020820283011164010000000082111715620005b457600080fd5b8083526020830192505050908051906020019060200280838360005b83811015620005ed578082015181840152602081019050620005d0565b50505050905001604052602001805160405193929190846401000000008211156200061757600080fd5b838201915060208201858111156200062e57600080fd5b82518660208202830111640100000000821117156200064c57600080fd5b8083526020830192505050908051906020019060200280838360005b838110156200068557808201518184015260208101905062000668565b5050505090500160405260200180516040519392919084640100000000821115620006af57600080fd5b83820191506020820185811115620006c657600080fd5b8251866020820283011164010000000082111715620006e457600080fd5b8083526020830192505050908051906020019060200280838360005b838110156200071d57808201518184015260208101905062000700565b505050509050016040526020018051906020019092919050505060006200074962000a0960201b60201c565b905080601d60006101000a81548173ffffffffffffffffffffffffffffffffffffffff021916908373ffffffffffffffffffffffffffffffffffffffff1602179055508073ffffffffffffffffffffffffffffffffffffffff16600073ffffffffffffffffffffffffffffffffffffffff167f8be0079c531659141344cd1fd0a4f28419497f9722a3daafe3b4186f6b6457e060405160405180910390a3508e6000806101000a81548173ffffffffffffffffffffffffffffffffffffffff021916908373ffffffffffffffffffffffffffffffffffffffff1602179055508d600260006101000a81548173ffffffffffffffffffffffffffffffffffffffff021916908373ffffffffffffffffffffffffffffffffffffffff1602179055508c600360006101000a81548173ffffffffffffffffffffffffffffffffffffffff021916908373ffffffffffffffffffffffffffffffffffffffff1602179055508b600460006101000a81548173ffffffffffffffffffffffffffffffffffffffff021916908373ffffffffffffffffffffffffffffffffffffffff1602179055508a600560006101000a81548173ffffffffffffffffffffffffffffffffffffffff021916908373ffffffffffffffffffffffffffffffffffffffff16021790555089600681905550886010819055508760168190555086600e8190555085600f8190555084600990805190602001906200096792919062000a69565b5083600a90805190602001906200098092919062000a69565b5082600b90805190602001906200099992919062000a69565b5081600c9080519060200190620009b292919062000a69565b5080601f60006101000a81548173ffffffffffffffffffffffffffffffffffffffff021916908373ffffffffffffffffffffffffffffffffffffffff16021790555050505050505050505050505050505062000ada565b600033905090565b82805482825590600052602060002090810192821562000a56579160200282015b8281111562000a55578251829061ffff1690559160200191906001019062000a32565b5b50905062000a65919062000abb565b5090565b82805482825590600052602060002090810192821562000aa8579160200282015b8281111562000aa757825182559160200191906001019062000a8a565b5b50905062000ab7919062000abb565b5090565b5b8082111562000ad657600081600090555060010162000abc565b5090565b6158ef8062000aea6000396000f3fe608060405234801561001057600080fd5b50600436106104755760003560e01c806382386d5811610257578063c56a10ff11610146578063d49e77cd116100c3578063ec12173d11610087578063ec12173d146118b3578063ed9bdeda146118e7578063f2fde38b14611905578063f2ffc22c14611949578063fb0754331461197757610475565b8063d49e77cd1461173f578063d9608d8a14611773578063dd77b9fd146117d9578063de98852414611851578063e17f94c01461187f57610475565b8063c8ed76801161010a578063c8ed7680146115ad578063cb0b8ca11461161f578063ce2529c914611661578063cf1c316a146116b9578063d007db29146116fd57610475565b8063c56a10ff146114cb578063c663baa6146114e9578063c6929e5314611517578063c749d61414611535578063c8a4271f1461157957610475565b806395fdf258116101d4578063ae169a5011610198578063ae169a50146113c9578063b6066962146113f7578063b918161114611425578063ba0bba401461147f578063beff2a531461148957610475565b806395fdf258146112ef578063975532dc1461130d578063980c2a981461132b57806398969e8214611349578063a02306f9146113ab57610475565b80638da5cb5b1161021b5780638da5cb5b146111335780638dbb1e3a146111675780638dbdbe6d146111b3578063929c69711461120b57806393f1a40b1461126357610475565b806382386d5814610f0957806382796e9814610f61578063847bdaa414610f7f5780638cc883ce146110375780638d88a90e146110ef57610475565b806339b3e826116103735780635312ea8e116102f0578063630b5ba1116102b4578063630b5ba114610e4f57806364482f7914610e59578063715018a614610e9d5780637c39c9c914610ea75780637cd07e4714610ed557610475565b80635312ea8e14610d1157806353ac0dab14610d3f5780635c5e490b14610d5d5780636066debd14610db55780636245f08414610e0d57610475565b806346664064116103375780634666406414610aeb578063485d7d9414610ba35780634af0e3e114610be75780634dbf85ca14610c9f57806351eb05a614610ce357610475565b806339b3e826146109fb5780633c9d926714610a195780633d479cd514610a4d5780634179b4fb14610a7b578063454b060814610abd57610475565b806322a376b0116104015780632a7b0107116103c55780632a7b0107146107ad5780632fda77351461086557806330fb8e0e146108a7578063354affb7146108eb57806336ebcde6146109a357610475565b806322a376b0146106a557806323cf3118146106d9578063245b211d1461071d57806324b95c3e1461074b5780632710b33f1461077957610475565b80630ad58d2f116104485780630ad58d2f146105265780631526fe271461057e57806317caf6f1146105eb5780631d465c82146106095780631eaaa0451461064b57610475565b806301b689c01461047a578063081e3eda146104a857806309ae4d2c146104c65780630a67d51814610508575b600080fd5b6104a66004803603602081101561049057600080fd5b81019080803590602001909291905050506119a5565b005b6104b0611a42565b6040518082815260200191505060405180910390f35b6104f2600480360360208110156104dc57600080fd5b8101908080359060200190929190505050611a4f565b6040518082815260200191505060405180910390f35b610510611adc565b6040518082815260200191505060405180910390f35b61057c6004803603606081101561053c57600080fd5b810190808035906020019092919080359060200190929190803573ffffffffffffffffffffffffffffffffffffffff169060200190929190505050611ae2565b005b6105aa6004803603602081101561059457600080fd5b8101908080359060200190929190505050611cf0565b604051808573ffffffffffffffffffffffffffffffffffffffff16815260200184815260200183815260200182815260200194505050505060405180910390f35b6105f3611d4d565b6040518082815260200191505060405180910390f35b6106356004803603602081101561061f57600080fd5b8101908080359060200190929190505050611d53565b6040518082815260200191505060405180910390f35b6106a36004803603606081101561066157600080fd5b8101908080359060200190929190803573ffffffffffffffffffffffffffffffffffffffff169060200190929190803515159060200190929190505050611df0565b005b6106ad612094565b604051808273ffffffffffffffffffffffffffffffffffffffff16815260200191505060405180910390f35b61071b600480360360208110156106ef57600080fd5b81019080803573ffffffffffffffffffffffffffffffffffffffff1690602001909291905050506120ba565b005b6107496004803603602081101561073357600080fd5b81019080803590602001909291905050506121ad565b005b6107776004803603602081101561076157600080fd5b810190808035906020019092919050505061224a565b005b6107816122e7565b604051808273ffffffffffffffffffffffffffffffffffffffff16815260200191505060405180910390f35b610863600480360360208110156107c357600080fd5b81019080803590602001906401000000008111156107e057600080fd5b8201836020820111156107f257600080fd5b8035906020019184602083028401116401000000008311171561081457600080fd5b919080806020026020016040519081016040528093929190818152602001838360200280828437600081840152601f19601f82011690508083019250505050505050919291929050505061230b565b005b6108916004803603602081101561087b57600080fd5b81019080803590602001909291905050506123b8565b6040518082815260200191505060405180910390f35b6108e9600480360360208110156108bd57600080fd5b81019080803573ffffffffffffffffffffffffffffffffffffffff1690602001909291905050506123d9565b005b6109a16004803603602081101561090157600080fd5b810190808035906020019064010000000081111561091e57600080fd5b82018360208201111561093057600080fd5b8035906020019184602083028401116401000000008311171561095257600080fd5b919080806020026020016040519081016040528093929190818152602001838360200280828437600081840152601f19601f8201169050808301925050505050505091929192905050506124b0565b005b6109e5600480360360208110156109b957600080fd5b81019080803573ffffffffffffffffffffffffffffffffffffffff16906020019092919050505061255d565b6040518082815260200191505060405180910390f35b610a036125de565b6040518082815260200191505060405180910390f35b610a216125e4565b604051808273ffffffffffffffffffffffffffffffffffffffff16815260200191505060405180910390f35b610a7960048036036020811015610a6357600080fd5b810190808035906020019092919050505061260a565b005b610aa760048036036020811015610a9157600080fd5b81019080803590602001909291905050506126a7565b6040518082815260200191505060405180910390f35b610ae960048036036020811015610ad357600080fd5b81019080803590602001909291905050506126c8565b005b610ba160048036036020811015610b0157600080fd5b8101908080359060200190640100000000811115610b1e57600080fd5b820183602082011115610b3057600080fd5b80359060200191846020830284011164010000000083111715610b5257600080fd5b919080806020026020016040519081016040528093929190818152602001838360200280828437600081840152601f19601f820116905080830192505050505050509192919290505050612af2565b005b610be560048036036020811015610bb957600080fd5b81019080803573ffffffffffffffffffffffffffffffffffffffff169060200190929190505050612b9f565b005b610c9d60048036036020811015610bfd57600080fd5b8101908080359060200190640100000000811115610c1a57600080fd5b820183602082011115610c2c57600080fd5b80359060200191846020830284011164010000000083111715610c4e57600080fd5b919080806020026020016040519081016040528093929190818152602001838360200280828437600081840152601f19601f820116905080830192505050505050509192919290505050612ce2565b005b610ce160048036036020811015610cb557600080fd5b81019080803573ffffffffffffffffffffffffffffffffffffffff169060200190929190505050612d8f565b005b610d0f60048036036020811015610cf957600080fd5b8101908080359060200190929190505050612e66565b005b610d3d60048036036020811015610d2757600080fd5b810190808035906020019092919050505061304c565b005b610d47613232565b6040518082815260200191505060405180910390f35b610d9f60048036036020811015610d7357600080fd5b81019080803573ffffffffffffffffffffffffffffffffffffffff169060200190929190505050613238565b6040518082815260200191505060405180910390f35b610e0b60048036036060811015610dcb57600080fd5b8101908080359060200190929190803573ffffffffffffffffffffffffffffffffffffffff169060200190929190803590602001909291905050506132b9565b005b610e3960048036036020811015610e2357600080fd5b81019080803590602001909291905050506133af565b6040518082815260200191505060405180910390f35b610e576133d0565b005b610e9b60048036036060811015610e6f57600080fd5b8101908080359060200190929190803590602001909291908035151590602001909291905050506133fd565b005b610ea561352e565b005b610ed360048036036020811015610ebd57600080fd5b810190808035906020019092919050505061369e565b005b610edd61373b565b604051808273ffffffffffffffffffffffffffffffffffffffff16815260200191505060405180910390f35b610f5f60048036036060811015610f1f57600080fd5b8101908080359060200190929190803573ffffffffffffffffffffffffffffffffffffffff16906020019092919080359060200190929190505050613761565b005b610f69613857565b6040518082815260200191505060405180910390f35b61103560048036036020811015610f9557600080fd5b8101908080359060200190640100000000811115610fb257600080fd5b820183602082011115610fc457600080fd5b80359060200191846020830284011164010000000083111715610fe657600080fd5b919080806020026020016040519081016040528093929190818152602001838360200280828437600081840152601f19601f82011690508083019250505050505050919291929050505061385d565b005b6110ed6004803603602081101561104d57600080fd5b810190808035906020019064010000000081111561106a57600080fd5b82018360208201111561107c57600080fd5b8035906020019184602083028401116401000000008311171561109e57600080fd5b919080806020026020016040519081016040528093929190818152602001838360200280828437600081840152601f19601f82011690508083019250505050505050919291929050505061390a565b005b6111316004803603602081101561110557600080fd5b81019080803573ffffffffffffffffffffffffffffffffffffffff1690602001909291905050506139b7565b005b61113b613a8e565b604051808273ffffffffffffffffffffffffffffffffffffffff16815260200191505060405180910390f35b61119d6004803603604081101561117d57600080fd5b810190808035906020019092919080359060200190929190505050613ab8565b6040518082815260200191505060405180910390f35b611209600480360360608110156111c957600080fd5b810190808035906020019092919080359060200190929190803573ffffffffffffffffffffffffffffffffffffffff169060200190929190505050613be0565b005b61124d6004803603602081101561122157600080fd5b81019080803573ffffffffffffffffffffffffffffffffffffffff169060200190929190505050613dee565b6040518082815260200191505060405180910390f35b6112af6004803603604081101561127957600080fd5b8101908080359060200190929190803573ffffffffffffffffffffffffffffffffffffffff169060200190929190505050613e6f565b6040518088815260200187815260200186815260200185815260200184815260200183815260200182815260200197505050505050505060405180910390f35b6112f7613ebe565b6040518082815260200191505060405180910390f35b611315613ec4565b6040518082815260200191505060405180910390f35b611333613eca565b6040518082815260200191505060405180910390f35b6113956004803603604081101561135f57600080fd5b8101908080359060200190929190803573ffffffffffffffffffffffffffffffffffffffff169060200190929190505050613ed0565b6040518082815260200191505060405180910390f35b6113b36140e3565b6040518082815260200191505060405180910390f35b6113f5600480360360208110156113df57600080fd5b81019080803590602001909291905050506140e9565b005b6114236004803603602081101561140d57600080fd5b81019080803590602001909291905050506142cf565b005b6114676004803603602081101561143b57600080fd5b81019080803573ffffffffffffffffffffffffffffffffffffffff16906020019092919050505061436c565b60405180821515815260200191505060405180910390f35b61148761438c565b005b6114b56004803603602081101561149f57600080fd5b810190808035906020019092919050505061450c565b6040518082815260200191505060405180910390f35b6114d361452d565b6040518082815260200191505060405180910390f35b611515600480360360208110156114ff57600080fd5b8101908080359060200190929190505050614533565b005b61151f6145d0565b6040518082815260200191505060405180910390f35b6115776004803603602081101561154b57600080fd5b81019080803573ffffffffffffffffffffffffffffffffffffffff1690602001909291905050506145d6565b005b6115816146ad565b604051808273ffffffffffffffffffffffffffffffffffffffff16815260200191505060405180910390f35b6115ed600480360360608110156115c357600080fd5b810190808035906020019092919080359060200190929190803590602001909291905050506146d3565b604051808681526020018581526020018481526020018381526020018281526020019550505050505060405180910390f35b61164b6004803603602081101561163557600080fd5b8101908080359060200190929190505050614958565b6040518082815260200191505060405180910390f35b6116a36004803603602081101561167757600080fd5b81019080803573ffffffffffffffffffffffffffffffffffffffff169060200190929190505050614979565b6040518082815260200191505060405180910390f35b6116fb600480360360208110156116cf57600080fd5b81019080803573ffffffffffffffffffffffffffffffffffffffff169060200190929190505050614991565b005b6117296004803603602081101561171357600080fd5b8101908080359060200190929190505050614a9b565b6040518082815260200191505060405180910390f35b611747614abc565b604051808273ffffffffffffffffffffffffffffffffffffffff16815260200191505060405180910390f35b6117b56004803603602081101561178957600080fd5b81019080803573ffffffffffffffffffffffffffffffffffffffff169060200190929190505050614ae2565b60405180848152602001838152602001828152602001935050505060405180910390f35b61183b600480360360408110156117ef57600080fd5b81019080803573ffffffffffffffffffffffffffffffffffffffff169060200190929190803573ffffffffffffffffffffffffffffffffffffffff169060200190929190505050614b0c565b6040518082815260200191505060405180910390f35b61187d6004803603602081101561186757600080fd5b8101908080359060200190929190505050614ba1565b005b611887614c3e565b604051808273ffffffffffffffffffffffffffffffffffffffff16815260200191505060405180910390f35b6118bb614c64565b604051808273ffffffffffffffffffffffffffffffffffffffff16815260200191505060405180910390f35b6118ef614c8a565b6040518082815260200191505060405180910390f35b6119476004803603602081101561191b57600080fd5b81019080803573ffffffffffffffffffffffffffffffffffffffff169060200190929190505050614c90565b005b6119756004803603602081101561195f57600080fd5b8101908080359060200190929190505050614e85565b005b6119a36004803603602081101561198d57600080fd5b8101908080359060200190929190505050614f22565b005b601e60003373ffffffffffffffffffffffffffffffffffffffff1673ffffffffffffffffffffffffffffffffffffffff16815260200190815260200160002060009054906101000a900460ff1680611a2f57503373ffffffffffffffffffffffffffffffffffffffff16611a17613a8e565b73ffffffffffffffffffffffffffffffffffffffff16145b611a3857600080fd5b8060118190555050565b6000601880549050905090565b600080601a600084815260200190815260200160002060003373ffffffffffffffffffffffffffffffffffffffff1673ffffffffffffffffffffffffffffffffffffffff1681526020019081526020016000209050600081600301541115611ac65760008160030154430390508092505050611ad7565b600081600401544303905080925050505b919050565b60135481565b60006060601f60009054906101000a900473ffffffffffffffffffffffffffffffffffffffff1673ffffffffffffffffffffffffffffffffffffffff166301c9c380868686604051602401808481526020018381526020018273ffffffffffffffffffffffffffffffffffffffff16815260200193505050506040516020818303038152906040527f0ad58d2f000000000000000000000000000000000000000000000000000000007bffffffffffffffffffffffffffffffffffffffffffffffffffffffff19166020820180517bffffffffffffffffffffffffffffffffffffffffffffffffffffffff83818316178352505050506040518082805190602001908083835b60208310611c0b5780518252602082019150602081019050602083039250611be8565b6001836020036101000a0380198251168184511680821785525050505050509050019150506000604051808303818686f4925050503d8060008114611c6c576040519150601f19603f3d011682016040523d82523d6000602084013e611c71565b606091505b509150915081611ce9576040517f08c379a00000000000000000000000000000000000000000000000000000000081526004018080602001828103825260138152602001807f64656c656761746563616c6c206661696c65640000000000000000000000000081525060200191505060405180910390fd5b5050505050565b60188181548110611cfd57fe5b90600052602060002090600402016000915090508060000160009054906101000a900473ffffffffffffffffffffffffffffffffffffffff16908060010154908060020154908060030154905084565b601c5481565b600080611d636001430343613ab8565b90506000831415611d8b57611d8360065482614fbf90919063ffffffff16565b915050611deb565b611de7601c54611dd960186001870381548110611da457fe5b906000526020600020906004020160010154611dcb60065486614fbf90919063ffffffff16565b614fbf90919063ffffffff16565b61504590919063ffffffff16565b9150505b919050565b611df86150ce565b73ffffffffffffffffffffffffffffffffffffffff16611e16613a8e565b73ffffffffffffffffffffffffffffffffffffffff1614611e9f576040517f08c379a00000000000000000000000000000000000000000000000000000000081526004018080602001828103825260208152602001807f4f776e61626c653a2063616c6c6572206973206e6f7420746865206f776e657281525060200191505060405180910390fd5b6000601960008473ffffffffffffffffffffffffffffffffffffffff1673ffffffffffffffffffffffffffffffffffffffff1681526020019081526020016000205414611f37576040517f08c379a000000000000000000000000000000000000000000000000000000000815260040180806020018281038252602c815260200180615858602c913960400191505060405180910390fd5b8015611f4657611f456133d0565b5b60006010544311611f5957601054611f5b565b435b9050611f7284601c546150d690919063ffffffff16565b601c81905550600160188054905001601960008573ffffffffffffffffffffffffffffffffffffffff1673ffffffffffffffffffffffffffffffffffffffff16815260200190815260200160002081905550601860405180608001604052808573ffffffffffffffffffffffffffffffffffffffff1681526020018681526020018381526020016000815250908060018154018082558091505060019003906000526020600020906004020160009091909190915060008201518160000160006101000a81548173ffffffffffffffffffffffffffffffffffffffff021916908373ffffffffffffffffffffffffffffffffffffffff160217905550602082015181600101556040820151816002015560608201518160030155505050505050565b600360009054906101000a900473ffffffffffffffffffffffffffffffffffffffff1681565b6120c26150ce565b73ffffffffffffffffffffffffffffffffffffffff166120e0613a8e565b73ffffffffffffffffffffffffffffffffffffffff1614612169576040517f08c379a00000000000000000000000000000000000000000000000000000000081526004018080602001828103825260208152602001807f4f776e61626c653a2063616c6c6572206973206e6f7420746865206f776e657281525060200191505060405180910390fd5b80601760006101000a81548173ffffffffffffffffffffffffffffffffffffffff021916908373ffffffffffffffffffffffffffffffffffffffff16021790555050565b601e60003373ffffffffffffffffffffffffffffffffffffffff1673ffffffffffffffffffffffffffffffffffffffff16815260200190815260200160002060009054906101000a900460ff168061223757503373ffffffffffffffffffffffffffffffffffffffff1661221f613a8e565b73ffffffffffffffffffffffffffffffffffffffff16145b61224057600080fd5b80600d8190555050565b601e60003373ffffffffffffffffffffffffffffffffffffffff1673ffffffffffffffffffffffffffffffffffffffff16815260200190815260200160002060009054906101000a900460ff16806122d457503373ffffffffffffffffffffffffffffffffffffffff166122bc613a8e565b73ffffffffffffffffffffffffffffffffffffffff16145b6122dd57600080fd5b8060108190555050565b60008054906101000a900473ffffffffffffffffffffffffffffffffffffffff1681565b601e60003373ffffffffffffffffffffffffffffffffffffffff1673ffffffffffffffffffffffffffffffffffffffff16815260200190815260200160002060009054906101000a900460ff168061239557503373ffffffffffffffffffffffffffffffffffffffff1661237d613a8e565b73ffffffffffffffffffffffffffffffffffffffff16145b61239e57600080fd5b80600b90805190602001906123b4929190615735565b5050565b600781815481106123c557fe5b906000526020600020016000915090505481565b601e60003373ffffffffffffffffffffffffffffffffffffffff1673ffffffffffffffffffffffffffffffffffffffff16815260200190815260200160002060009054906101000a900460ff168061246357503373ffffffffffffffffffffffffffffffffffffffff1661244b613a8e565b73ffffffffffffffffffffffffffffffffffffffff16145b61246c57600080fd5b80600560006101000a81548173ffffffffffffffffffffffffffffffffffffffff021916908373ffffffffffffffffffffffffffffffffffffffff16021790555050565b601e60003373ffffffffffffffffffffffffffffffffffffffff1673ffffffffffffffffffffffffffffffffffffffff16815260200190815260200160002060009054906101000a900460ff168061253a57503373ffffffffffffffffffffffffffffffffffffffff16612522613a8e565b73ffffffffffffffffffffffffffffffffffffffff16145b61254357600080fd5b8060089080519060200190612559929190615735565b5050565b6000612567615782565b601b60008473ffffffffffffffffffffffffffffffffffffffff1673ffffffffffffffffffffffffffffffffffffffff168152602001908152602001600020604051806060016040529081600082015481526020016002820154815260200160038201548152505090508060200151915050919050565b60105481565b600460009054906101000a900473ffffffffffffffffffffffffffffffffffffffff1681565b601e60003373ffffffffffffffffffffffffffffffffffffffff1673ffffffffffffffffffffffffffffffffffffffff16815260200190815260200160002060009054906101000a900460ff168061269457503373ffffffffffffffffffffffffffffffffffffffff1661267c613a8e565b73ffffffffffffffffffffffffffffffffffffffff16145b61269d57600080fd5b8060068190555050565b600881815481106126b457fe5b906000526020600020016000915090505481565b600073ffffffffffffffffffffffffffffffffffffffff16601760009054906101000a900473ffffffffffffffffffffffffffffffffffffffff1673ffffffffffffffffffffffffffffffffffffffff16141561278d576040517f08c379a00000000000000000000000000000000000000000000000000000000081526004018080602001828103825260148152602001807f6d6967726174653a206e6f206d69677261746f7200000000000000000000000081525060200191505060405180910390fd5b60006018828154811061279c57fe5b9060005260206000209060040201905060008160000160009054906101000a900473ffffffffffffffffffffffffffffffffffffffff16905060008173ffffffffffffffffffffffffffffffffffffffff166370a08231306040518263ffffffff1660e01b8152600401808273ffffffffffffffffffffffffffffffffffffffff16815260200191505060206040518083038186803b15801561283e57600080fd5b505afa158015612852573d6000803e3d6000fd5b505050506040513d602081101561286857600080fd5b810190808051906020019092919050505090506128c8601760009054906101000a900473ffffffffffffffffffffffffffffffffffffffff16828473ffffffffffffffffffffffffffffffffffffffff1661515e9092919063ffffffff16565b6000601760009054906101000a900473ffffffffffffffffffffffffffffffffffffffff1673ffffffffffffffffffffffffffffffffffffffff1663ce5494bb846040518263ffffffff1660e01b8152600401808273ffffffffffffffffffffffffffffffffffffffff168152602001915050602060405180830381600087803b15801561295557600080fd5b505af1158015612969573d6000803e3d6000fd5b505050506040513d602081101561297f57600080fd5b810190808051906020019092919050505090508073ffffffffffffffffffffffffffffffffffffffff166370a08231306040518263ffffffff1660e01b8152600401808273ffffffffffffffffffffffffffffffffffffffff16815260200191505060206040518083038186803b1580156129f957600080fd5b505afa158015612a0d573d6000803e3d6000fd5b505050506040513d6020811015612a2357600080fd5b81019080805190602001909291905050508214612aa8576040517f08c379a000000000000000000000000000000000000000000000000000000000815260040180806020018281038252600c8152602001807f6d6967726174653a20626164000000000000000000000000000000000000000081525060200191505060405180910390fd5b808460000160006101000a81548173ffffffffffffffffffffffffffffffffffffffff021916908373ffffffffffffffffffffffffffffffffffffffff1602179055505050505050565b601e60003373ffffffffffffffffffffffffffffffffffffffff1673ffffffffffffffffffffffffffffffffffffffff16815260200190815260200160002060009054906101000a900460ff1680612b7c57503373ffffffffffffffffffffffffffffffffffffffff16612b64613a8e565b73ffffffffffffffffffffffffffffffffffffffff16145b612b8557600080fd5b8060079080519060200190612b9b929190615735565b5050565b612ba76150ce565b73ffffffffffffffffffffffffffffffffffffffff16612bc5613a8e565b73ffffffffffffffffffffffffffffffffffffffff1614612c4e576040517f08c379a00000000000000000000000000000000000000000000000000000000081526004018080602001828103825260208152602001807f4f776e61626c653a2063616c6c6572206973206e6f7420746865206f776e657281525060200191505060405180910390fd5b3373ffffffffffffffffffffffffffffffffffffffff168173ffffffffffffffffffffffffffffffffffffffff161415612c8757600080fd5b6000601e60008373ffffffffffffffffffffffffffffffffffffffff1673ffffffffffffffffffffffffffffffffffffffff16815260200190815260200160002060006101000a81548160ff02191690831515021790555050565b601e60003373ffffffffffffffffffffffffffffffffffffffff1673ffffffffffffffffffffffffffffffffffffffff16815260200190815260200160002060009054906101000a900460ff1680612d6c57503373ffffffffffffffffffffffffffffffffffffffff16612d54613a8e565b73ffffffffffffffffffffffffffffffffffffffff16145b612d7557600080fd5b80600a9080519060200190612d8b929190615735565b5050565b601e60003373ffffffffffffffffffffffffffffffffffffffff1673ffffffffffffffffffffffffffffffffffffffff16815260200190815260200160002060009054906101000a900460ff1680612e1957503373ffffffffffffffffffffffffffffffffffffffff16612e01613a8e565b73ffffffffffffffffffffffffffffffffffffffff16145b612e2257600080fd5b80600360006101000a81548173ffffffffffffffffffffffffffffffffffffffff021916908373ffffffffffffffffffffffffffffffffffffffff16021790555050565b60006060601f60009054906101000a900473ffffffffffffffffffffffffffffffffffffffff1673ffffffffffffffffffffffffffffffffffffffff166301c9c38084604051602401808281526020019150506040516020818303038152906040527f51eb05a6000000000000000000000000000000000000000000000000000000007bffffffffffffffffffffffffffffffffffffffffffffffffffffffff19166020820180517bffffffffffffffffffffffffffffffffffffffffffffffffffffffff83818316178352505050506040518082805190602001908083835b60208310612f695780518252602082019150602081019050602083039250612f46565b6001836020036101000a0380198251168184511680821785525050505050509050019150506000604051808303818686f4925050503d8060008114612fca576040519150601f19603f3d011682016040523d82523d6000602084013e612fcf565b606091505b509150915081613047576040517f08c379a00000000000000000000000000000000000000000000000000000000081526004018080602001828103825260138152602001807f64656c656761746563616c6c206661696c65640000000000000000000000000081525060200191505060405180910390fd5b505050565b60006060601f60009054906101000a900473ffffffffffffffffffffffffffffffffffffffff1673ffffffffffffffffffffffffffffffffffffffff166301c9c38084604051602401808281526020019150506040516020818303038152906040527f5312ea8e000000000000000000000000000000000000000000000000000000007bffffffffffffffffffffffffffffffffffffffffffffffffffffffff19166020820180517bffffffffffffffffffffffffffffffffffffffffffffffffffffffff83818316178352505050506040518082805190602001908083835b6020831061314f578051825260208201915060208101905060208303925061312c565b6001836020036101000a0380198251168184511680821785525050505050509050019150506000604051808303818686f4925050503d80600081146131b0576040519150601f19603f3d011682016040523d82523d6000602084013e6131b5565b606091505b50915091508161322d576040517f08c379a00000000000000000000000000000000000000000000000000000000081526004018080602001828103825260138152602001807f64656c656761746563616c6c206661696c65640000000000000000000000000081525060200191505060405180910390fd5b505050565b60165481565b6000613242615782565b601b60008473ffffffffffffffffffffffffffffffffffffffff1673ffffffffffffffffffffffffffffffffffffffff168152602001908152602001600020604051806060016040529081600082015481526020016002820154815260200160038201548152505090508060400151915050919050565b601e60003373ffffffffffffffffffffffffffffffffffffffff1673ffffffffffffffffffffffffffffffffffffffff16815260200190815260200160002060009054906101000a900460ff168061334357503373ffffffffffffffffffffffffffffffffffffffff1661332b613a8e565b73ffffffffffffffffffffffffffffffffffffffff16145b61334c57600080fd5b6000601a600085815260200190815260200160002060008473ffffffffffffffffffffffffffffffffffffffff1673ffffffffffffffffffffffffffffffffffffffff168152602001908152602001600020905081816003018190555050505050565b600981815481106133bc57fe5b906000526020600020016000915090505481565b6000601880549050905060005b818110156133f9576133ee81612e66565b8060010190506133dd565b5050565b6134056150ce565b73ffffffffffffffffffffffffffffffffffffffff16613423613a8e565b73ffffffffffffffffffffffffffffffffffffffff16146134ac576040517f08c379a00000000000000000000000000000000000000000000000000000000081526004018080602001828103825260208152602001807f4f776e61626c653a2063616c6c6572206973206e6f7420746865206f776e657281525060200191505060405180910390fd5b80156134bb576134ba6133d0565b5b613500826134f2601886815481106134cf57fe5b906000526020600020906004020160010154601c5461532390919063ffffffff16565b6150d690919063ffffffff16565b601c81905550816018848154811061351457fe5b906000526020600020906004020160010181905550505050565b6135366150ce565b73ffffffffffffffffffffffffffffffffffffffff16613554613a8e565b73ffffffffffffffffffffffffffffffffffffffff16146135dd576040517f08c379a00000000000000000000000000000000000000000000000000000000081526004018080602001828103825260208152602001807f4f776e61626c653a2063616c6c6572206973206e6f7420746865206f776e657281525060200191505060405180910390fd5b600073ffffffffffffffffffffffffffffffffffffffff16601d60009054906101000a900473ffffffffffffffffffffffffffffffffffffffff1673ffffffffffffffffffffffffffffffffffffffff167f8be0079c531659141344cd1fd0a4f28419497f9722a3daafe3b4186f6b6457e060405160405180910390a36000601d60006101000a81548173ffffffffffffffffffffffffffffffffffffffff021916908373ffffffffffffffffffffffffffffffffffffffff160217905550565b601e60003373ffffffffffffffffffffffffffffffffffffffff1673ffffffffffffffffffffffffffffffffffffffff16815260200190815260200160002060009054906101000a900460ff168061372857503373ffffffffffffffffffffffffffffffffffffffff16613710613a8e565b73ffffffffffffffffffffffffffffffffffffffff16145b61373157600080fd5b80600e8190555050565b601760009054906101000a900473ffffffffffffffffffffffffffffffffffffffff1681565b601e60003373ffffffffffffffffffffffffffffffffffffffff1673ffffffffffffffffffffffffffffffffffffffff16815260200190815260200160002060009054906101000a900460ff16806137eb57503373ffffffffffffffffffffffffffffffffffffffff166137d3613a8e565b73ffffffffffffffffffffffffffffffffffffffff16145b6137f457600080fd5b6000601a600085815260200190815260200160002060008473ffffffffffffffffffffffffffffffffffffffff1673ffffffffffffffffffffffffffffffffffffffff168152602001908152602001600020905081816004018190555050505050565b600e5481565b601e60003373ffffffffffffffffffffffffffffffffffffffff1673ffffffffffffffffffffffffffffffffffffffff16815260200190815260200160002060009054906101000a900460ff16806138e757503373ffffffffffffffffffffffffffffffffffffffff166138cf613a8e565b73ffffffffffffffffffffffffffffffffffffffff16145b6138f057600080fd5b8060099080519060200190613906929190615735565b5050565b601e60003373ffffffffffffffffffffffffffffffffffffffff1673ffffffffffffffffffffffffffffffffffffffff16815260200190815260200160002060009054906101000a900460ff168061399457503373ffffffffffffffffffffffffffffffffffffffff1661397c613a8e565b73ffffffffffffffffffffffffffffffffffffffff16145b61399d57600080fd5b80600c90805190602001906139b3929190615735565b5050565b601e60003373ffffffffffffffffffffffffffffffffffffffff1673ffffffffffffffffffffffffffffffffffffffff16815260200190815260200160002060009054906101000a900460ff1680613a4157503373ffffffffffffffffffffffffffffffffffffffff16613a29613a8e565b73ffffffffffffffffffffffffffffffffffffffff16145b613a4a57600080fd5b80600260006101000a81548173ffffffffffffffffffffffffffffffffffffffff021916908373ffffffffffffffffffffffffffffffffffffffff16021790555050565b6000601d60009054906101000a900473ffffffffffffffffffffffffffffffffffffffff16905090565b60008060009050601054841015613ad3576000915050613bda565b60005b600880549050811015613bd457600060088281548110613af257fe5b90600052602060002001549050808511613b64576000613b4460078481548110613b1857fe5b9060005260206000200154613b36898961532390919063ffffffff16565b614fbf90919063ffffffff16565b9050613b5981856150d690919063ffffffff16565b945050505050613bda565b80861015613bc6576000613baa60078481548110613b7e57fe5b9060005260206000200154613b9c898561532390919063ffffffff16565b614fbf90919063ffffffff16565b9050819650613bc281856150d690919063ffffffff16565b9350505b508080600101915050613ad6565b50809150505b92915050565b60006060601f60009054906101000a900473ffffffffffffffffffffffffffffffffffffffff1673ffffffffffffffffffffffffffffffffffffffff166301c9c380868686604051602401808481526020018381526020018273ffffffffffffffffffffffffffffffffffffffff16815260200193505050506040516020818303038152906040527f8dbdbe6d000000000000000000000000000000000000000000000000000000007bffffffffffffffffffffffffffffffffffffffffffffffffffffffff19166020820180517bffffffffffffffffffffffffffffffffffffffffffffffffffffffff83818316178352505050506040518082805190602001908083835b60208310613d095780518252602082019150602081019050602083039250613ce6565b6001836020036101000a0380198251168184511680821785525050505050509050019150506000604051808303818686f4925050503d8060008114613d6a576040519150601f19603f3d011682016040523d82523d6000602084013e613d6f565b606091505b509150915081613de7576040517f08c379a00000000000000000000000000000000000000000000000000000000081526004018080602001828103825260138152602001807f64656c656761746563616c6c206661696c65640000000000000000000000000081525060200191505060405180910390fd5b5050505050565b6000613df8615782565b601b60008473ffffffffffffffffffffffffffffffffffffffff1673ffffffffffffffffffffffffffffffffffffffff168152602001908152602001600020604051806060016040529081600082015481526020016002820154815260200160038201548152505090508060000151915050919050565b601a602052816000526040600020602052806000526040600020600091509150508060000154908060010154908060020154908060030154908060040154908060050154908060060154905087565b60115481565b60065481565b600d5481565b60008060188481548110613ee057fe5b906000526020600020906004020190506000601a600086815260200190815260200160002060008573ffffffffffffffffffffffffffffffffffffffff1673ffffffffffffffffffffffffffffffffffffffff168152602001908152602001600020905060008260030154905060008360000160009054906101000a900473ffffffffffffffffffffffffffffffffffffffff1673ffffffffffffffffffffffffffffffffffffffff166370a08231306040518263ffffffff1660e01b8152600401808273ffffffffffffffffffffffffffffffffffffffff16815260200191505060206040518083038186803b158015613fda57600080fd5b505afa158015613fee573d6000803e3d6000fd5b505050506040513d602081101561400457600080fd5b8101908080519060200190929190505050905083600201544311801561402a5750600081115b1561409357600061404485600201544387600101546146d3565b90919293509091509050508091505061408f6140808361407264e8d4a5100085614fbf90919063ffffffff16565b61504590919063ffffffff16565b846150d690919063ffffffff16565b9250505b6140d783600101546140c964e8d4a510006140bb868860000154614fbf90919063ffffffff16565b61504590919063ffffffff16565b61532390919063ffffffff16565b94505050505092915050565b60145481565b60006060601f60009054906101000a900473ffffffffffffffffffffffffffffffffffffffff1673ffffffffffffffffffffffffffffffffffffffff166301c9c38084604051602401808281526020019150506040516020818303038152906040527fae169a50000000000000000000000000000000000000000000000000000000007bffffffffffffffffffffffffffffffffffffffffffffffffffffffff19166020820180517bffffffffffffffffffffffffffffffffffffffffffffffffffffffff83818316178352505050506040518082805190602001908083835b602083106141ec57805182526020820191506020810190506020830392506141c9565b6001836020036101000a0380198251168184511680821785525050505050509050019150506000604051808303818686f4925050503d806000811461424d576040519150601f19603f3d011682016040523d82523d6000602084013e614252565b606091505b5091509150816142ca576040517f08c379a00000000000000000000000000000000000000000000000000000000081526004018080602001828103825260138152602001807f64656c656761746563616c6c206661696c65640000000000000000000000000081525060200191505060405180910390fd5b505050565b601e60003373ffffffffffffffffffffffffffffffffffffffff1673ffffffffffffffffffffffffffffffffffffffff16815260200190815260200160002060009054906101000a900460ff168061435957503373ffffffffffffffffffffffffffffffffffffffff16614341613a8e565b73ffffffffffffffffffffffffffffffffffffffff16145b61436257600080fd5b8060128190555050565b601e6020528060005260406000206000915054906101000a900460ff1681565b6143946150ce565b73ffffffffffffffffffffffffffffffffffffffff166143b2613a8e565b73ffffffffffffffffffffffffffffffffffffffff161461443b576040517f08c379a00000000000000000000000000000000000000000000000000000000081526004018080602001828103825260208152602001807f4f776e61626c653a2063616c6c6572206973206e6f7420746865206f776e657281525060200191505060405180910390fd5b60005b6001600780549050038110156144b557600061447c60105461446e600185016016546150d690919063ffffffff16565b6150d690919063ffffffff16565b9050600881908060018154018082558091505060019003906000526020600020016000909190919091505550808060010191505061443e565b5063018f7c94600d8190555060087fffffffffffffffffffffffffffffffffffffffffffffffffffffffffffffffff9080600181540180825580915050600190039060005260206000200160009091909190915055565b600c818154811061451957fe5b906000526020600020016000915090505481565b600f5481565b601e60003373ffffffffffffffffffffffffffffffffffffffff1673ffffffffffffffffffffffffffffffffffffffff16815260200190815260200160002060009054906101000a900460ff16806145bd57503373ffffffffffffffffffffffffffffffffffffffff166145a5613a8e565b73ffffffffffffffffffffffffffffffffffffffff16145b6145c657600080fd5b8060148190555050565b60155481565b601e60003373ffffffffffffffffffffffffffffffffffffffff1673ffffffffffffffffffffffffffffffffffffffff16815260200190815260200160002060009054906101000a900460ff168061466057503373ffffffffffffffffffffffffffffffffffffffff16614648613a8e565b73ffffffffffffffffffffffffffffffffffffffff16145b61466957600080fd5b80600460006101000a81548173ffffffffffffffffffffffffffffffffffffffff021916908373ffffffffffffffffffffffffffffffffffffffff16021790555050565b600160009054906101000a900473ffffffffffffffffffffffffffffffffffffffff1681565b6000806000806000806146e68989613ab8565b90506000614725601c546147178a61470960065487614fbf90919063ffffffff16565b614fbf90919063ffffffff16565b61504590919063ffffffff16565b9050600061487c60008054906101000a900473ffffffffffffffffffffffffffffffffffffffff1673ffffffffffffffffffffffffffffffffffffffff166318160ddd6040518163ffffffff1660e01b815260040160206040518083038186803b15801561479257600080fd5b505afa1580156147a6573d6000803e3d6000fd5b505050506040513d60208110156147bc57600080fd5b810190808051906020019092919050505060008054906101000a900473ffffffffffffffffffffffffffffffffffffffff1673ffffffffffffffffffffffffffffffffffffffff1663355274ea6040518163ffffffff1660e01b815260040160206040518083038186803b15801561483357600080fd5b505afa158015614847573d6000803e3d6000fd5b505050506040513d602081101561485d57600080fd5b810190808051906020019092919050505061532390919063ffffffff16565b90508181101561489e576000975080965060009550600094506000935061494a565b6148c660646148b860125485614fbf90919063ffffffff16565b61504590919063ffffffff16565b97508196506148f360646148e560135485614fbf90919063ffffffff16565b61504590919063ffffffff16565b955061491d606461490f60145485614fbf90919063ffffffff16565b61504590919063ffffffff16565b9450614947606461493960155485614fbf90919063ffffffff16565b61504590919063ffffffff16565b93505b505050939792965093509350565b600a818154811061496557fe5b906000526020600020016000915090505481565b60196020528060005260406000206000915090505481565b6149996150ce565b73ffffffffffffffffffffffffffffffffffffffff166149b7613a8e565b73ffffffffffffffffffffffffffffffffffffffff1614614a40576040517f08c379a00000000000000000000000000000000000000000000000000000000081526004018080602001828103825260208152602001807f4f776e61626c653a2063616c6c6572206973206e6f7420746865206f776e657281525060200191505060405180910390fd5b6001601e60008373ffffffffffffffffffffffffffffffffffffffff1673ffffffffffffffffffffffffffffffffffffffff16815260200190815260200160002060006101000a81548160ff02191690831515021790555050565b600b8181548110614aa857fe5b906000526020600020016000915090505481565b600260009054906101000a900473ffffffffffffffffffffffffffffffffffffffff1681565b601b6020528060005260406000206000915090508060000154908060020154908060030154905083565b600080601b60008573ffffffffffffffffffffffffffffffffffffffff1673ffffffffffffffffffffffffffffffffffffffff168152602001908152602001600020905060008160010160008573ffffffffffffffffffffffffffffffffffffffff1673ffffffffffffffffffffffffffffffffffffffff168152602001908152602001600020549050809250505092915050565b601e60003373ffffffffffffffffffffffffffffffffffffffff1673ffffffffffffffffffffffffffffffffffffffff16815260200190815260200160002060009054906101000a900460ff1680614c2b57503373ffffffffffffffffffffffffffffffffffffffff16614c13613a8e565b73ffffffffffffffffffffffffffffffffffffffff16145b614c3457600080fd5b8060158190555050565b601f60009054906101000a900473ffffffffffffffffffffffffffffffffffffffff1681565b600560009054906101000a900473ffffffffffffffffffffffffffffffffffffffff1681565b60125481565b614c986150ce565b73ffffffffffffffffffffffffffffffffffffffff16614cb6613a8e565b73ffffffffffffffffffffffffffffffffffffffff1614614d3f576040517f08c379a00000000000000000000000000000000000000000000000000000000081526004018080602001828103825260208152602001807f4f776e61626c653a2063616c6c6572206973206e6f7420746865206f776e657281525060200191505060405180910390fd5b600073ffffffffffffffffffffffffffffffffffffffff168173ffffffffffffffffffffffffffffffffffffffff161415614dc5576040517f08c379a00000000000000000000000000000000000000000000000000000000081526004018080602001828103825260268152602001806157c16026913960400191505060405180910390fd5b8073ffffffffffffffffffffffffffffffffffffffff16601d60009054906101000a900473ffffffffffffffffffffffffffffffffffffffff1673ffffffffffffffffffffffffffffffffffffffff167f8be0079c531659141344cd1fd0a4f28419497f9722a3daafe3b4186f6b6457e060405160405180910390a380601d60006101000a81548173ffffffffffffffffffffffffffffffffffffffff021916908373ffffffffffffffffffffffffffffffffffffffff16021790555050565b601e60003373ffffffffffffffffffffffffffffffffffffffff1673ffffffffffffffffffffffffffffffffffffffff16815260200190815260200160002060009054906101000a900460ff1680614f0f57503373ffffffffffffffffffffffffffffffffffffffff16614ef7613a8e565b73ffffffffffffffffffffffffffffffffffffffff16145b614f1857600080fd5b8060138190555050565b601e60003373ffffffffffffffffffffffffffffffffffffffff1673ffffffffffffffffffffffffffffffffffffffff16815260200190815260200160002060009054906101000a900460ff1680614fac57503373ffffffffffffffffffffffffffffffffffffffff16614f94613a8e565b73ffffffffffffffffffffffffffffffffffffffff16145b614fb557600080fd5b80600f8190555050565b600080831415614fd2576000905061503f565b6000828402905082848281614fe357fe5b041461503a576040517f08c379a000000000000000000000000000000000000000000000000000000000815260040180806020018281038252602181526020018061580d6021913960400191505060405180910390fd5b809150505b92915050565b60008082116150bc576040517f08c379a000000000000000000000000000000000000000000000000000000000815260040180806020018281038252601a8152602001807f536166654d6174683a206469766973696f6e206279207a65726f00000000000081525060200191505060405180910390fd5b8183816150c557fe5b04905092915050565b600033905090565b600080828401905083811015615154576040517f08c379a000000000000000000000000000000000000000000000000000000000815260040180806020018281038252601b8152602001807f536166654d6174683a206164646974696f6e206f766572666c6f77000000000081525060200191505060405180910390fd5b8091505092915050565b600081148061522c575060008373ffffffffffffffffffffffffffffffffffffffff1663dd62ed3e30856040518363ffffffff1660e01b8152600401808373ffffffffffffffffffffffffffffffffffffffff1681526020018273ffffffffffffffffffffffffffffffffffffffff1681526020019250505060206040518083038186803b1580156151ef57600080fd5b505afa158015615203573d6000803e3d6000fd5b505050506040513d602081101561521957600080fd5b8101908080519060200190929190505050145b615281576040517f08c379a00000000000000000000000000000000000000000000000000000000081526004018080602001828103825260368152602001806158846036913960400191505060405180910390fd5b61531e8363095ea7b360e01b8484604051602401808373ffffffffffffffffffffffffffffffffffffffff16815260200182815260200192505050604051602081830303815290604052907bffffffffffffffffffffffffffffffffffffffffffffffffffffffff19166020820180517bffffffffffffffffffffffffffffffffffffffffffffffffffffffff83818316178352505050506153a6565b505050565b60008282111561539b576040517f08c379a000000000000000000000000000000000000000000000000000000000815260040180806020018281038252601e8152602001807f536166654d6174683a207375627472616374696f6e206f766572666c6f77000081525060200191505060405180910390fd5b818303905092915050565b6060615408826040518060400160405280602081526020017f5361666545524332303a206c6f772d6c6576656c2063616c6c206661696c65648152508573ffffffffffffffffffffffffffffffffffffffff166154959092919063ffffffff16565b90506000815111156154905780806020019051602081101561542957600080fd5b810190808051906020019092919050505061548f576040517f08c379a000000000000000000000000000000000000000000000000000000000815260040180806020018281038252602a81526020018061582e602a913960400191505060405180910390fd5b5b505050565b60606154a484846000856154ad565b90509392505050565b606082471015615508576040517f08c379a00000000000000000000000000000000000000000000000000000000081526004018080602001828103825260268152602001806157e76026913960400191505060405180910390fd5b61551185615656565b615583576040517f08c379a000000000000000000000000000000000000000000000000000000000815260040180806020018281038252601d8152602001807f416464726573733a2063616c6c20746f206e6f6e2d636f6e747261637400000081525060200191505060405180910390fd5b600060608673ffffffffffffffffffffffffffffffffffffffff1685876040518082805190602001908083835b602083106155d357805182526020820191506020810190506020830392506155b0565b6001836020036101000a03801982511681845116808217855250505050505090500191505060006040518083038185875af1925050503d8060008114615635576040519150601f19603f3d011682016040523d82523d6000602084013e61563a565b606091505b509150915061564a828286615669565b92505050949350505050565b600080823b905060008111915050919050565b606083156156795782905061572e565b60008351111561568c5782518084602001fd5b816040517f08c379a00000000000000000000000000000000000000000000000000000000081526004018080602001828103825283818151815260200191508051906020019080838360005b838110156156f35780820151818401526020810190506156d8565b50505050905090810190601f1680156157205780820380516001836020036101000a031916815260200191505b509250505060405180910390fd5b9392505050565b828054828255906000526020600020908101928215615771579160200282015b82811115615770578251825591602001919060010190615755565b5b50905061577e91906157a3565b5090565b60405180606001604052806000815260200160008152602001600081525090565b5b808211156157bc5760008160009055506001016157a4565b509056fe4f776e61626c653a206e6577206f776e657220697320746865207a65726f2061646472657373416464726573733a20696e73756666696369656e742062616c616e636520666f722063616c6c536166654d6174683a206d756c7469706c69636174696f6e206f766572666c6f775361666545524332303a204552433230206f7065726174696f6e20646964206e6f742073756363656564517569634d61737465724661726d65723a3a6164643a206c7020697320616c726561647920696e20706f6f6c5361666545524332303a20617070726f76652066726f6d206e6f6e2d7a65726f20746f206e6f6e2d7a65726f20616c6c6f77616e6365a2646970667358221220a65ed6c2925416b43efc843008a23d45db4238c5289da24e9f90dd1205e1e10d64736f6c634300060c0033",
  "immutableReferences": {},
  "source": "// SPDX-License-Identifier: MIT\npragma solidity 0.6.12;\n\nimport \"./QuicMasterStorage.sol\";\n// QuicMasterFarmer is the master of Quic. He can make Quic and he is a fair guy.\n//\n// Note that it's ownable and the owner wields tremendous power. The ownership\n// will be transferred to a governance smart contract once Quic is sufficiently\n// distributed and the community can show to govern itself.\n//\ncontract QuicMasterFarmer is QuicMasterStorage, Ownable, Authorizable {\n    using SafeMath for uint256;\n    using SafeERC20 for IERC20;\n\n    address public transactionsContract;\n\n    constructor(\n        QuicToken _Quic,\n        address _devaddr,\n\t\taddress _liquidityaddr,\n\t\taddress _comfundaddr,\n\t\taddress _founderaddr,\n        uint256 _rewardPerBlock,\n        uint256 _startBlock,\n        uint256 _halvingAfterBlock,\n        uint256 _userDepFee,\n        uint256 _devDepFee,\n        uint256[] memory _blockDeltaStartStage,\n        uint256[] memory _blockDeltaEndStage,\n        uint256[] memory _userFeeStage,\n        uint256[] memory _devFeeStage,\n        address _transactionsContract\n    ) public {\n        Quic = _Quic;\n        devaddr = _devaddr;\n\t\tliquidityaddr = _liquidityaddr;\n\t\tcomfundaddr = _comfundaddr;\n\t\tfounderaddr = _founderaddr;\n        REWARD_PER_BLOCK = _rewardPerBlock;\n        START_BLOCK = _startBlock;\n        HALVING_AFTER = _halvingAfterBlock;\n\t    userDepFee = _userDepFee;\n\t    devDepFee = _devDepFee;\n\t    blockDeltaStartStage = _blockDeltaStartStage;\n\t    blockDeltaEndStage = _blockDeltaEndStage;\n\t    userFeeStage = _userFeeStage;\n\t    devFeeStage = _devFeeStage;\n        transactionsContract = _transactionsContract;\n    }\n\n    function poolLength() external view returns (uint256) {\n        return poolInfo.length;\n    }\n\n    function setup() public onlyOwner {\n        for (uint256 i = 0; i < REWARD_MULTIPLIER.length - 1; i++) {\n            uint256 halvingAtBlock = HALVING_AFTER.add(i + 1).add(START_BLOCK);\n            HALVING_AT_BLOCK.push(halvingAtBlock);\n        }\n        FINISH_BONUS_AT_BLOCK = 26180756;\n        HALVING_AT_BLOCK.push(uint256(-1));\n    }\n\n    // Add a new lp to the pool. Can only be called by the owner.\n    function add(uint256 _allocPoint, IERC20 _lpToken, bool _withUpdate) public onlyOwner {\n        require(poolId1[address(_lpToken)] == 0, \"QuicMasterFarmer::add: lp is already in pool\");\n        if (_withUpdate) {\n            massUpdatePools();\n        }\n        uint256 lastRewardBlock = block.number > START_BLOCK ? block.number : START_BLOCK;\n        totalAllocPoint = totalAllocPoint.add(_allocPoint);\n        poolId1[address(_lpToken)] = poolInfo.length + 1;\n        poolInfo.push(PoolInfo({\n            lpToken: _lpToken,\n            allocPoint: _allocPoint,\n            lastRewardBlock: lastRewardBlock,\n            accQuicPerShare: 0\n        }));\n    }\n\n     // Update the given pool's Quic allocation point. Can only be called by the owner.\n    function set(uint256 _pid, uint256 _allocPoint, bool _withUpdate) public onlyOwner {\n        if (_withUpdate) {\n            massUpdatePools();\n        }\n        totalAllocPoint = totalAllocPoint.sub(poolInfo[_pid].allocPoint).add(_allocPoint);\n        poolInfo[_pid].allocPoint = _allocPoint;\n    }\n\n    // Set the migrator contract. Can only be called by the owner.\n    function setMigrator(IMigratorToQuicSwap _migrator) public onlyOwner {\n        migrator = _migrator;\n    }\n\n    // Migrate lp token to another lp contract. Can be called by anyone. We trust that migrator contract is good.\n    function migrate(uint256 _pid) public {\n        require(address(migrator) != address(0), \"migrate: no migrator\");\n        PoolInfo storage pool = poolInfo[_pid];\n        IERC20 lpToken = pool.lpToken;\n        uint256 bal = lpToken.balanceOf(address(this));\n        lpToken.safeApprove(address(migrator), bal);\n        IERC20 newLpToken = migrator.migrate(lpToken);\n        require(bal == newLpToken.balanceOf(address(this)), \"migrate: bad\");\n        pool.lpToken = newLpToken;\n    }\n\n    // Update reward variables for all pools. Be careful of gas spending!\n    function massUpdatePools() public {\n        uint256 length = poolInfo.length;\n        for (uint256 pid = 0; pid < length; ++pid) {\n            updatePool(pid);\n        }\n    }\n\n   // Update reward variables of the given pool to be up-to-date.\n    function updatePool(uint256 _pid) public {\n        (bool delegateCallStatus, bytes memory result) = transactionsContract.delegatecall{gas:30000000}(\n            abi.encodeWithSignature(\"updatePool(uint256)\", _pid)\n        );\n        require(delegateCallStatus, \"delegatecall failed\");\n    }\n\n    // |--------------------------------------|\n    // [20, 30, 40, 50, 60, 70, 80, 99999999]\n    // Return reward multiplier over the given _from to _to block.\n    function getMultiplier(uint256 _from, uint256 _to) public view returns (uint256) {\n        uint256 result = 0;\n        if (_from < START_BLOCK) return 0;\n\n        for (uint256 i = 0; i < HALVING_AT_BLOCK.length; i++) {\n            uint256 endBlock = HALVING_AT_BLOCK[i];\n\n            if (_to <= endBlock) {\n                uint256 m = _to.sub(_from).mul(REWARD_MULTIPLIER[i]);\n                return result.add(m);\n            }\n\n            if (_from < endBlock) {\n                uint256 m = endBlock.sub(_from).mul(REWARD_MULTIPLIER[i]);\n                _from = endBlock;\n                result = result.add(m);\n            }\n        }\n\n        return result;\n    }\n\n    function getPoolReward(uint256 _from, uint256 _to, uint256 _allocPoint) public view returns (uint256 forDev, uint256 forFarmer, uint256 forLP, uint256 forCom, uint256 forFounders) {\n        uint256 multiplier = getMultiplier(_from, _to);\n        uint256 amount = multiplier.mul(REWARD_PER_BLOCK).mul(_allocPoint).div(totalAllocPoint);\n        uint256 QuicCanMint = Quic.cap().sub(Quic.totalSupply());\n\n        if (QuicCanMint < amount) {\n            forDev = 0;\n\t\t\tforFarmer = QuicCanMint;\n\t\t\tforLP = 0;\n\t\t\tforCom = 0;\n\t\t\tforFounders = 0;\n        }\n        else {\n            forDev = amount.mul(PERCENT_FOR_DEV).div(100);\n\t\t\tforFarmer = amount;\n\t\t\tforLP = amount.mul(PERCENT_FOR_LP).div(100);\n\t\t\tforCom = amount.mul(PERCENT_FOR_COM).div(100);\n\t\t\tforFounders = amount.mul(PERCENT_FOR_FOUNDERS).div(100);\n        }\n    }\n\n    // View function to see pending Quic on frontend.\n    function pendingReward(uint256 _pid, address _user) external view returns (uint256) {\n        PoolInfo storage pool = poolInfo[_pid];\n        UserInfo storage user = userInfo[_pid][_user];\n        uint256 accQuicPerShare = pool.accQuicPerShare;\n        uint256 lpSupply = pool.lpToken.balanceOf(address(this));\n        if (block.number > pool.lastRewardBlock && lpSupply > 0) {\n            uint256 QuicForFarmer;\n            (, QuicForFarmer, , ,) = getPoolReward(pool.lastRewardBlock, block.number, pool.allocPoint);\n            accQuicPerShare = accQuicPerShare.add(QuicForFarmer.mul(1e12).div(lpSupply));\n\n        }\n        return user.amount.mul(accQuicPerShare).div(1e12).sub(user.rewardDebt);\n    }\n\n    function claimReward(uint256 _pid) public {\n        (bool delegateCallStatus, bytes memory result) = transactionsContract.delegatecall{gas:30000000}(\n            abi.encodeWithSignature(\"claimReward(uint256)\", _pid)\n        );\n        require(delegateCallStatus, \"delegatecall failed\");\n    }\n\n    // lock 95% of reward if it come from bounus time\n    function _harvest(uint256 _pid) internal {\n        (bool delegateCallStatus, bytes memory result) = transactionsContract.delegatecall{gas:30000000}(\n            abi.encodeWithSignature(\"harvest(uint256)\", _pid)\n        );\n        require(delegateCallStatus, \"delegatecall failed\");\n    }\n\n    // Deposit LP tokens to QuicMasterFarmer for $QUIC allocation.\n    function deposit(uint256 _pid, uint256 _amount, address _ref) public {\n        (bool delegateCallStatus, bytes memory result) = transactionsContract.delegatecall{gas:30000000}(\n            abi.encodeWithSignature(\"deposit(uint256,uint256,address)\", _pid, _amount, _ref)\n        );\n        require(delegateCallStatus, \"delegatecall failed\");\n    }\n    \n  // Withdraw LP tokens from QuicMasterFarmer.\n    function withdraw(uint256 _pid, uint256 _amount, address _ref) public {\n        (bool delegateCallStatus, bytes memory result) = transactionsContract.delegatecall{gas:30000000}(\n            abi.encodeWithSignature(\"withdraw(uint256,uint256,address)\", _pid, _amount, _ref)\n        );\n        require(delegateCallStatus, \"delegatecall failed\");\n    }\n\n\n    // Withdraw without caring about rewards. EMERGENCY ONLY. This has the same 25% fee as same block withdrawals to prevent abuse of thisfunction.\n    function emergencyWithdraw(uint256 _pid) public {\n        (bool delegateCallStatus, bytes memory result) = transactionsContract.delegatecall{gas:30000000}(\n            abi.encodeWithSignature(\"emergencyWithdraw(uint256)\", _pid)\n        );\n        require(delegateCallStatus, \"delegatecall failed\");\n    }\n\n    // Safe Quic transfer function, just in case if rounding error causes pool to not have enough Quic.\n    function safeQuicTransfer(address _to, uint256 _amount) internal {\n        (bool delegateCallStatus, bytes memory result) = transactionsContract.delegatecall{gas:30000000}(\n            abi.encodeWithSignature(\"safeQuicTransfer(address,uint256)\", _to, _amount)\n        );\n        require(delegateCallStatus, \"delegatecall failed\");\n    }\n\n    function getGlobalAmount(address _user) public view returns(uint256) {\n        UserGlobalInfo memory current = userGlobalInfo[_user];\n        return current.globalAmount;\n    }\n    \n     function getGlobalRefAmount(address _user) public view returns(uint256) {\n        UserGlobalInfo memory current = userGlobalInfo[_user];\n        return current.globalRefAmount;\n    }\n    \n    function getTotalRefs(address _user) public view returns(uint256) {\n        UserGlobalInfo memory current = userGlobalInfo[_user];\n        return current.totalReferals;\n    }\n    \n    function getRefValueOf(address _user, address _user2) public view returns(uint256) {\n        UserGlobalInfo storage current = userGlobalInfo[_user];\n        uint256 a = current.referrals[_user2];\n        return a;\n    }\n\n    // Update dev address by the previous dev.\n    function dev(address _devaddr) public onlyAuthorized {\n        devaddr = _devaddr;\n    }\n    \n    // Update Finish Bonus Block\n    function bonusFinishUpdate(uint256 _newFinish) public onlyAuthorized {\n        FINISH_BONUS_AT_BLOCK = _newFinish;\n    }\n    \n    // Update Halving At Block\n    function halvingUpdate(uint256[] memory _newHalving) public onlyAuthorized {\n        HALVING_AT_BLOCK = _newHalving;\n    }\n    \n    // Update Liquidityaddr\n    function lpUpdate(address _newLP) public onlyAuthorized {\n       liquidityaddr = _newLP;\n    }\n    \n    // Update comfundaddr\n    function comUpdate(address _newCom) public onlyAuthorized {\n       comfundaddr = _newCom;\n    }\n    \n    // Update founderaddr\n    function founderUpdate(address _newFounder) public onlyAuthorized {\n       founderaddr = _newFounder;\n    }\n    \n    // Update Reward Per Block\n    function rewardUpdate(uint256 _newReward) public onlyAuthorized {\n       REWARD_PER_BLOCK = _newReward;\n    }\n    \n    // Update Rewards Mulitplier Array\n    function rewardMulUpdate(uint256[] memory _newMulReward) public onlyAuthorized {\n       REWARD_MULTIPLIER = _newMulReward;\n    }\n    \n    // Update % lock for general users\n    function lockUpdate(uint _newlock) public onlyAuthorized {\n       PERCENT_LOCK_BONUS_REWARD = _newlock;\n    }\n    \n    // Update % lock for dev\n    function lockdevUpdate(uint _newdevlock) public onlyAuthorized {\n       PERCENT_FOR_DEV = _newdevlock;\n    }\n    \n    // Update % lock for LP\n    function locklpUpdate(uint _newlplock) public onlyAuthorized {\n       PERCENT_FOR_LP = _newlplock;\n    }\n    \n    // Update % lock for COM\n    function lockcomUpdate(uint _newcomlock) public onlyAuthorized {\n       PERCENT_FOR_COM = _newcomlock;\n    }\n    \n    // Update % lock for Founders\n    function lockfounderUpdate(uint _newfounderlock) public onlyAuthorized {\n       PERCENT_FOR_FOUNDERS = _newfounderlock;\n    }\n    \n    // Update START_BLOCK\n    function starblockUpdate(uint _newstarblock) public onlyAuthorized {\n       START_BLOCK = _newstarblock;\n    }\n\n    function getNewRewardPerBlock(uint256 pid1) public view returns (uint256) {\n        uint256 multiplier = getMultiplier(block.number -1, block.number);\n        if (pid1 == 0) {\n            return multiplier.mul(REWARD_PER_BLOCK);\n        }\n        else {\n            return multiplier\n                .mul(REWARD_PER_BLOCK)\n                .mul(poolInfo[pid1 - 1].allocPoint)\n                .div(totalAllocPoint);\n        }\n    }\n\t\n\tfunction userDelta(uint256 _pid) public view returns (uint256) {\n        UserInfo storage user = userInfo[_pid][msg.sender];\n\t\tif (user.lastWithdrawBlock > 0) {\n\t\t\tuint256 estDelta = block.number - user.lastWithdrawBlock;\n\t\t\treturn estDelta;\n\t\t} else {\n\t\t    uint256 estDelta = block.number - user.firstDepositBlock;\n\t\t\treturn estDelta;\n\t\t}\n\t}\n\t\n\tfunction reviseWithdraw(uint _pid, address _user, uint256 _block) public onlyAuthorized() {\n\t   UserInfo storage user = userInfo[_pid][_user];\n\t   user.lastWithdrawBlock = _block;\n\t    \n\t}\n\t\n\tfunction reviseDeposit(uint _pid, address _user, uint256 _block) public onlyAuthorized() {\n\t   UserInfo storage user = userInfo[_pid][_user];\n\t   user.firstDepositBlock = _block;\n\t    \n\t}\n\t\n\tfunction setStageStarts(uint[] memory _blockStarts) public onlyAuthorized() {\n        blockDeltaStartStage = _blockStarts;\n    }\n    \n    function setStageEnds(uint[] memory _blockEnds) public onlyAuthorized() {\n        blockDeltaEndStage = _blockEnds;\n    }\n    \n    function setUserFeeStage(uint[] memory _userFees) public onlyAuthorized() {\n        userFeeStage = _userFees;\n    }\n    \n    function setDevFeeStage(uint[] memory _devFees) public onlyAuthorized() {\n        devFeeStage = _devFees;\n    }\n    \n    function setDevDepFee(uint _devDepFees) public onlyAuthorized() {\n        devDepFee = _devDepFees;\n    }\n    \n    function setUserDepFee(uint _usrDepFees) public onlyAuthorized() {\n        userDepFee = _usrDepFees;\n    }\n\n}",
  "sourcePath": "/Users/mark.wagner/Dropbox/projects/quic.finance/contracts/QuicMasterFarmer.sol",
  "compiler": {
    "name": "solc",
    "version": "0.6.12+commit.27d51765.Emscripten.clang"
  },
  "schemaVersion": "3.3.4",
  "updatedAt": "2021-04-11T16:38:48.848Z",
  "networkType": "ethereum",
  "devdoc": {
    "kind": "dev",
    "methods": {
      "owner()": {
        "details": "Returns the address of the current owner."
      },
      "renounceOwnership()": {
        "details": "Leaves the contract without owner. It will not be possible to call `onlyOwner` functions anymore. Can only be called by the current owner. NOTE: Renouncing ownership will leave the contract without an owner, thereby removing any functionality that is only available to the owner."
      },
      "transferOwnership(address)": {
        "details": "Transfers ownership of the contract to a new account (`newOwner`). Can only be called by the current owner."
      }
    },
    "version": 1
  },
  "userdoc": {
    "kind": "user",
    "methods": {},
    "version": 1
  }
}