{
  "contractName": "QuicMasterTransactions",
  "abi": [
    {
      "anonymous": false,
      "inputs": [
        {
          "indexed": true,
          "internalType": "address",
          "name": "user",
          "type": "address"
        },
        {
          "indexed": true,
          "internalType": "uint256",
          "name": "pid",
          "type": "uint256"
        },
        {
          "indexed": false,
          "internalType": "uint256",
          "name": "amount",
          "type": "uint256"
        }
      ],
      "name": "Deposit",
      "type": "event"
    },
    {
      "anonymous": false,
      "inputs": [
        {
          "indexed": true,
          "internalType": "address",
          "name": "user",
          "type": "address"
        },
        {
          "indexed": true,
          "internalType": "uint256",
          "name": "pid",
          "type": "uint256"
        },
        {
          "indexed": false,
          "internalType": "uint256",
          "name": "amount",
          "type": "uint256"
        }
      ],
      "name": "EmergencyWithdraw",
      "type": "event"
    },
    {
      "anonymous": false,
      "inputs": [
        {
          "indexed": true,
          "internalType": "address",
          "name": "previousOwner",
          "type": "address"
        },
        {
          "indexed": true,
          "internalType": "address",
          "name": "newOwner",
          "type": "address"
        }
      ],
      "name": "OwnershipTransferred",
      "type": "event"
    },
    {
      "anonymous": false,
      "inputs": [
        {
          "indexed": true,
          "internalType": "address",
          "name": "user",
          "type": "address"
        },
        {
          "indexed": true,
          "internalType": "uint256",
          "name": "pid",
          "type": "uint256"
        },
        {
          "indexed": false,
          "internalType": "uint256",
          "name": "amount",
          "type": "uint256"
        },
        {
          "indexed": false,
          "internalType": "uint256",
          "name": "lockAmount",
          "type": "uint256"
        }
      ],
      "name": "SendQuicReward",
      "type": "event"
    },
    {
      "anonymous": false,
      "inputs": [
        {
          "indexed": true,
          "internalType": "address",
          "name": "user",
          "type": "address"
        },
        {
          "indexed": true,
          "internalType": "uint256",
          "name": "pid",
          "type": "uint256"
        },
        {
          "indexed": false,
          "internalType": "uint256",
          "name": "amount",
          "type": "uint256"
        }
      ],
      "name": "Withdraw",
      "type": "event"
    },
    {
      "inputs": [],
      "name": "FINISH_BONUS_AT_BLOCK",
      "outputs": [
        {
          "internalType": "uint256",
          "name": "",
          "type": "uint256"
        }
      ],
      "stateMutability": "view",
      "type": "function",
      "constant": true
    },
    {
      "inputs": [],
      "name": "HALVING_AFTER",
      "outputs": [
        {
          "internalType": "uint256",
          "name": "",
          "type": "uint256"
        }
      ],
      "stateMutability": "view",
      "type": "function",
      "constant": true
    },
    {
      "inputs": [
        {
          "internalType": "uint256",
          "name": "",
          "type": "uint256"
        }
      ],
      "name": "HALVING_AT_BLOCK",
      "outputs": [
        {
          "internalType": "uint256",
          "name": "",
          "type": "uint256"
        }
      ],
      "stateMutability": "view",
      "type": "function",
      "constant": true
    },
    {
      "inputs": [],
      "name": "PERCENT_FOR_COM",
      "outputs": [
        {
          "internalType": "uint256",
          "name": "",
          "type": "uint256"
        }
      ],
      "stateMutability": "view",
      "type": "function",
      "constant": true
    },
    {
      "inputs": [],
      "name": "PERCENT_FOR_DEV",
      "outputs": [
        {
          "internalType": "uint256",
          "name": "",
          "type": "uint256"
        }
      ],
      "stateMutability": "view",
      "type": "function",
      "constant": true
    },
    {
      "inputs": [],
      "name": "PERCENT_FOR_FOUNDERS",
      "outputs": [
        {
          "internalType": "uint256",
          "name": "",
          "type": "uint256"
        }
      ],
      "stateMutability": "view",
      "type": "function",
      "constant": true
    },
    {
      "inputs": [],
      "name": "PERCENT_FOR_LP",
      "outputs": [
        {
          "internalType": "uint256",
          "name": "",
          "type": "uint256"
        }
      ],
      "stateMutability": "view",
      "type": "function",
      "constant": true
    },
    {
      "inputs": [],
      "name": "PERCENT_LOCK_BONUS_REWARD",
      "outputs": [
        {
          "internalType": "uint256",
          "name": "",
          "type": "uint256"
        }
      ],
      "stateMutability": "view",
      "type": "function",
      "constant": true
    },
    {
      "inputs": [],
      "name": "Quic",
      "outputs": [
        {
          "internalType": "contract QuicToken",
          "name": "",
          "type": "address"
        }
      ],
      "stateMutability": "view",
      "type": "function",
      "constant": true
    },
    {
      "inputs": [
        {
          "internalType": "uint256",
          "name": "",
          "type": "uint256"
        }
      ],
      "name": "REWARD_MULTIPLIER",
      "outputs": [
        {
          "internalType": "uint256",
          "name": "",
          "type": "uint256"
        }
      ],
      "stateMutability": "view",
      "type": "function",
      "constant": true
    },
    {
      "inputs": [],
      "name": "REWARD_PER_BLOCK",
      "outputs": [
        {
          "internalType": "uint256",
          "name": "",
          "type": "uint256"
        }
      ],
      "stateMutability": "view",
      "type": "function",
      "constant": true
    },
    {
      "inputs": [],
      "name": "START_BLOCK",
      "outputs": [
        {
          "internalType": "uint256",
          "name": "",
          "type": "uint256"
        }
      ],
      "stateMutability": "view",
      "type": "function",
      "constant": true
    },
    {
      "inputs": [
        {
          "internalType": "address",
          "name": "_toAdd",
          "type": "address"
        }
      ],
      "name": "addAuthorized",
      "outputs": [],
      "stateMutability": "nonpayable",
      "type": "function"
    },
    {
      "inputs": [
        {
          "internalType": "address",
          "name": "",
          "type": "address"
        }
      ],
      "name": "authorized",
      "outputs": [
        {
          "internalType": "bool",
          "name": "",
          "type": "bool"
        }
      ],
      "stateMutability": "view",
      "type": "function",
      "constant": true
    },
    {
      "inputs": [
        {
          "internalType": "uint256",
          "name": "",
          "type": "uint256"
        }
      ],
      "name": "blockDeltaEndStage",
      "outputs": [
        {
          "internalType": "uint256",
          "name": "",
          "type": "uint256"
        }
      ],
      "stateMutability": "view",
      "type": "function",
      "constant": true
    },
    {
      "inputs": [
        {
          "internalType": "uint256",
          "name": "",
          "type": "uint256"
        }
      ],
      "name": "blockDeltaStartStage",
      "outputs": [
        {
          "internalType": "uint256",
          "name": "",
          "type": "uint256"
        }
      ],
      "stateMutability": "view",
      "type": "function",
      "constant": true
    },
    {
      "inputs": [],
      "name": "comfundaddr",
      "outputs": [
        {
          "internalType": "address",
          "name": "",
          "type": "address"
        }
      ],
      "stateMutability": "view",
      "type": "function",
      "constant": true
    },
    {
      "inputs": [
        {
          "internalType": "uint256",
          "name": "",
          "type": "uint256"
        }
      ],
      "name": "devFeeStage",
      "outputs": [
        {
          "internalType": "uint256",
          "name": "",
          "type": "uint256"
        }
      ],
      "stateMutability": "view",
      "type": "function",
      "constant": true
    },
    {
      "inputs": [],
      "name": "devaddr",
      "outputs": [
        {
          "internalType": "address",
          "name": "",
          "type": "address"
        }
      ],
      "stateMutability": "view",
      "type": "function",
      "constant": true
    },
    {
      "inputs": [],
      "name": "founderaddr",
      "outputs": [
        {
          "internalType": "address",
          "name": "",
          "type": "address"
        }
      ],
      "stateMutability": "view",
      "type": "function",
      "constant": true
    },
    {
      "inputs": [],
      "name": "liquidityaddr",
      "outputs": [
        {
          "internalType": "address",
          "name": "",
          "type": "address"
        }
      ],
      "stateMutability": "view",
      "type": "function",
      "constant": true
    },
    {
      "inputs": [],
      "name": "migrator",
      "outputs": [
        {
          "internalType": "contract IMigratorToQuicSwap",
          "name": "",
          "type": "address"
        }
      ],
      "stateMutability": "view",
      "type": "function",
      "constant": true
    },
    {
      "inputs": [],
      "name": "owner",
      "outputs": [
        {
          "internalType": "address",
          "name": "",
          "type": "address"
        }
      ],
      "stateMutability": "view",
      "type": "function",
      "constant": true
    },
    {
      "inputs": [
        {
          "internalType": "address",
          "name": "",
          "type": "address"
        }
      ],
      "name": "poolId1",
      "outputs": [
        {
          "internalType": "uint256",
          "name": "",
          "type": "uint256"
        }
      ],
      "stateMutability": "view",
      "type": "function",
      "constant": true
    },
    {
      "inputs": [
        {
          "internalType": "uint256",
          "name": "",
          "type": "uint256"
        }
      ],
      "name": "poolInfo",
      "outputs": [
        {
          "internalType": "contract IERC20",
          "name": "lpToken",
          "type": "address"
        },
        {
          "internalType": "uint256",
          "name": "allocPoint",
          "type": "uint256"
        },
        {
          "internalType": "uint256",
          "name": "lastRewardBlock",
          "type": "uint256"
        },
        {
          "internalType": "uint256",
          "name": "accQuicPerShare",
          "type": "uint256"
        }
      ],
      "stateMutability": "view",
      "type": "function",
      "constant": true
    },
    {
      "inputs": [],
      "name": "previousOwner",
      "outputs": [
        {
          "internalType": "address",
          "name": "",
          "type": "address"
        }
      ],
      "stateMutability": "view",
      "type": "function",
      "constant": true
    },
    {
      "inputs": [
        {
          "internalType": "address",
          "name": "newOwner",
          "type": "address"
        }
      ],
      "name": "reclaimOwnership",
      "outputs": [],
      "stateMutability": "nonpayable",
      "type": "function"
    },
    {
      "inputs": [
        {
          "internalType": "address",
          "name": "_toRemove",
          "type": "address"
        }
      ],
      "name": "removeAuthorized",
      "outputs": [],
      "stateMutability": "nonpayable",
      "type": "function"
    },
    {
      "inputs": [],
      "name": "renounceOwnership",
      "outputs": [],
      "stateMutability": "nonpayable",
      "type": "function"
    },
    {
      "inputs": [],
      "name": "totalAllocPoint",
      "outputs": [
        {
          "internalType": "uint256",
          "name": "",
          "type": "uint256"
        }
      ],
      "stateMutability": "view",
      "type": "function",
      "constant": true
    },
    {
      "inputs": [
        {
          "internalType": "address",
          "name": "newOwner",
          "type": "address"
        }
      ],
      "name": "transferOwnership",
      "outputs": [],
      "stateMutability": "nonpayable",
      "type": "function"
    },
    {
      "inputs": [],
      "name": "usdOracle",
      "outputs": [
        {
          "internalType": "address",
          "name": "",
          "type": "address"
        }
      ],
      "stateMutability": "view",
      "type": "function",
      "constant": true
    },
    {
      "inputs": [],
      "name": "userDepFee",
      "outputs": [
        {
          "internalType": "uint256",
          "name": "",
          "type": "uint256"
        }
      ],
      "stateMutability": "view",
      "type": "function",
      "constant": true
    },
    {
      "inputs": [
        {
          "internalType": "uint256",
          "name": "",
          "type": "uint256"
        }
      ],
      "name": "userFeeStage",
      "outputs": [
        {
          "internalType": "uint256",
          "name": "",
          "type": "uint256"
        }
      ],
      "stateMutability": "view",
      "type": "function",
      "constant": true
    },
    {
      "inputs": [
        {
          "internalType": "address",
          "name": "",
          "type": "address"
        }
      ],
      "name": "userGlobalInfo",
      "outputs": [
        {
          "internalType": "uint256",
          "name": "globalAmount",
          "type": "uint256"
        },
        {
          "internalType": "uint256",
          "name": "totalReferals",
          "type": "uint256"
        },
        {
          "internalType": "uint256",
          "name": "globalRefAmount",
          "type": "uint256"
        }
      ],
      "stateMutability": "view",
      "type": "function",
      "constant": true
    },
    {
      "inputs": [
        {
          "internalType": "uint256",
          "name": "",
          "type": "uint256"
        },
        {
          "internalType": "address",
          "name": "",
          "type": "address"
        }
      ],
      "name": "userInfo",
      "outputs": [
        {
          "internalType": "uint256",
          "name": "amount",
          "type": "uint256"
        },
        {
          "internalType": "uint256",
          "name": "rewardDebt",
          "type": "uint256"
        },
        {
          "internalType": "uint256",
          "name": "rewardDebtAtBlock",
          "type": "uint256"
        },
        {
          "internalType": "uint256",
          "name": "lastWithdrawBlock",
          "type": "uint256"
        },
        {
          "internalType": "uint256",
          "name": "firstDepositBlock",
          "type": "uint256"
        },
        {
          "internalType": "uint256",
          "name": "blockdelta",
          "type": "uint256"
        },
        {
          "internalType": "uint256",
          "name": "lastDepositBlock",
          "type": "uint256"
        }
      ],
      "stateMutability": "view",
      "type": "function",
      "constant": true
    },
    {
      "inputs": [
        {
          "internalType": "uint256",
          "name": "_from",
          "type": "uint256"
        },
        {
          "internalType": "uint256",
          "name": "_to",
          "type": "uint256"
        }
      ],
      "name": "getMultiplier",
      "outputs": [
        {
          "internalType": "uint256",
          "name": "",
          "type": "uint256"
        }
      ],
      "stateMutability": "view",
      "type": "function",
      "constant": true
    },
    {
      "inputs": [
        {
          "internalType": "uint256",
          "name": "_from",
          "type": "uint256"
        },
        {
          "internalType": "uint256",
          "name": "_to",
          "type": "uint256"
        },
        {
          "internalType": "uint256",
          "name": "_allocPoint",
          "type": "uint256"
        }
      ],
      "name": "getPoolReward",
      "outputs": [
        {
          "internalType": "uint256",
          "name": "forDev",
          "type": "uint256"
        },
        {
          "internalType": "uint256",
          "name": "forFarmer",
          "type": "uint256"
        },
        {
          "internalType": "uint256",
          "name": "forLP",
          "type": "uint256"
        },
        {
          "internalType": "uint256",
          "name": "forCom",
          "type": "uint256"
        },
        {
          "internalType": "uint256",
          "name": "forFounders",
          "type": "uint256"
        }
      ],
      "stateMutability": "view",
      "type": "function",
      "constant": true
    },
    {
      "inputs": [
        {
          "internalType": "uint256",
          "name": "_pid",
          "type": "uint256"
        }
      ],
      "name": "updatePool",
      "outputs": [],
      "stateMutability": "nonpayable",
      "type": "function"
    },
    {
      "inputs": [
        {
          "internalType": "uint256",
          "name": "_pid",
          "type": "uint256"
        },
        {
          "internalType": "uint256",
          "name": "_amount",
          "type": "uint256"
        },
        {
          "internalType": "address",
          "name": "_ref",
          "type": "address"
        }
      ],
      "name": "deposit",
      "outputs": [],
      "stateMutability": "nonpayable",
      "type": "function"
    },
    {
      "inputs": [
        {
          "internalType": "uint256",
          "name": "_pid",
          "type": "uint256"
        },
        {
          "internalType": "uint256",
          "name": "_amount",
          "type": "uint256"
        },
        {
          "internalType": "address",
          "name": "_ref",
          "type": "address"
        }
      ],
      "name": "withdraw",
      "outputs": [],
      "stateMutability": "nonpayable",
      "type": "function"
    },
    {
      "inputs": [
        {
          "internalType": "uint256",
          "name": "_pid",
          "type": "uint256"
        }
      ],
      "name": "emergencyWithdraw",
      "outputs": [],
      "stateMutability": "nonpayable",
      "type": "function"
    }
  ],
  "bytecode": "0x608060405260405180610cc0016040528061100061ffff16815260200161080061ffff16815260200161080061ffff16815260200161040061ffff16815260200161040061ffff16815260200161020061ffff16815260200161020061ffff16815260200161010061ffff16815260200161010061ffff16815260200161010061ffff16815260200161010061ffff16815260200161010061ffff16815260200161010061ffff16815260200161010061ffff16815260200161010061ffff168152602001608061ffff168152602001608061ffff168152602001608061ffff168152602001608061ffff168152602001608061ffff168152602001608061ffff168152602001608061ffff168152602001608061ffff168152602001608061ffff168152602001604061ffff168152602001604061ffff168152602001604061ffff168152602001604061ffff168152602001604061ffff168152602001604061ffff168152602001604061ffff168152602001604061ffff168152602001604061ffff168152602001604061ffff168152602001604061ffff168152602001601061ffff168152602001600861ffff168152602001600861ffff168152602001600861ffff168152602001600861ffff168152602001602061ffff168152602001602061ffff168152602001604061ffff168152602001604061ffff168152602001604061ffff168152602001608061ffff168152602001608061ffff168152602001608061ffff168152602001608061ffff168152602001608061ffff168152602001608061ffff168152602001608061ffff168152602001608061ffff168152602001608061ffff168152602001608061ffff16815260200161010061ffff16815260200161010061ffff16815260200161010061ffff168152602001608061ffff168152602001608061ffff168152602001608061ffff168152602001608061ffff168152602001608061ffff168152602001608061ffff168152602001608061ffff168152602001608061ffff168152602001608061ffff168152602001604061ffff168152602001604061ffff168152602001604061ffff168152602001604061ffff168152602001604061ffff168152602001604061ffff168152602001604061ffff168152602001604061ffff168152602001604061ffff168152602001604061ffff168152602001604061ffff168152602001602061ffff168152602001602061ffff168152602001602061ffff168152602001602061ffff168152602001602061ffff168152602001602061ffff168152602001602061ffff168152602001602061ffff168152602001602061ffff168152602001602061ffff168152602001602061ffff168152602001602061ffff168152602001602061ffff168152602001601061ffff168152602001601061ffff168152602001601061ffff168152602001601061ffff168152602001600861ffff168152602001600861ffff168152602001600861ffff168152602001600461ffff168152602001600261ffff168152602001600161ffff168152602001600061ffff1681525060079060666200049492919062000567565b506000601b55348015620004a757600080fd5b506000620004ba6200055f60201b60201c565b905080601c60006101000a81548173ffffffffffffffffffffffffffffffffffffffff021916908373ffffffffffffffffffffffffffffffffffffffff1602179055508073ffffffffffffffffffffffffffffffffffffffff16600073ffffffffffffffffffffffffffffffffffffffff167f8be0079c531659141344cd1fd0a4f28419497f9722a3daafe3b4186f6b6457e060405160405180910390a350620005de565b600033905090565b828054828255906000526020600020908101928215620005ac579160200282015b82811115620005ab578251829061ffff1690559160200191906001019062000588565b5b509050620005bb9190620005bf565b5090565b5b80821115620005da576000816000905550600101620005c0565b5090565b61472380620005ee6000396000f3fe608060405234801561001057600080fd5b506004361061025e5760003560e01c80638dbdbe6d11610146578063c8a4271f116100c3578063d007db2911610087578063d007db2914610a90578063d49e77cd14610ad2578063d9608d8a14610b06578063ec12173d14610b6c578063ed9bdeda14610ba0578063f2fde38b14610bbe5761025e565b8063c8a4271f1461090c578063c8ed768014610940578063cb0b8ca1146109b2578063ce2529c9146109f4578063cf1c316a14610a4c5761025e565b8063a02306f91161010a578063a02306f9146107f0578063a90fa6031461080e578063b918161114610852578063beff2a53146108ac578063c6929e53146108ee5761025e565b80638dbdbe6d146106b257806393f1a40b1461070a57806395fdf25814610796578063975532dc146107b4578063980c2a98146107d25761025e565b8063485d7d94116101df578063674f220f116101a3578063674f220f146105a2578063715018a6146105d65780637cd07e47146105e057806382796e98146106145780638da5cb5b146106325780638dbb1e3a146106665761025e565b8063485d7d94146104a257806351eb05a6146104e65780635312ea8e1461051457806353ac0dab146105425780636245f084146105605761025e565b80632710b33f116102265780632710b33f146103985780632fda7735146103cc57806339b3e8261461040e5780633c9d92671461042c5780634179b4fb146104605761025e565b80630a67d518146102635780630ad58d2f146102815780631526fe27146102d957806317caf6f11461034657806322a376b014610364575b600080fd5b61026b610c02565b6040518082815260200191505060405180910390f35b6102d76004803603606081101561029757600080fd5b810190808035906020019092919080359060200190929190803573ffffffffffffffffffffffffffffffffffffffff169060200190929190505050610c08565b005b610305600480360360208110156102ef57600080fd5b8101908080359060200190929190505050611a54565b604051808573ffffffffffffffffffffffffffffffffffffffff16815260200184815260200183815260200182815260200194505050505060405180910390f35b61034e611ab1565b6040518082815260200191505060405180910390f35b61036c611ab7565b604051808273ffffffffffffffffffffffffffffffffffffffff16815260200191505060405180910390f35b6103a0611add565b604051808273ffffffffffffffffffffffffffffffffffffffff16815260200191505060405180910390f35b6103f8600480360360208110156103e257600080fd5b8101908080359060200190929190505050611b01565b6040518082815260200191505060405180910390f35b610416611b22565b6040518082815260200191505060405180910390f35b610434611b28565b604051808273ffffffffffffffffffffffffffffffffffffffff16815260200191505060405180910390f35b61048c6004803603602081101561047657600080fd5b8101908080359060200190929190505050611b4e565b6040518082815260200191505060405180910390f35b6104e4600480360360208110156104b857600080fd5b81019080803573ffffffffffffffffffffffffffffffffffffffff169060200190929190505050611b6f565b005b610512600480360360208110156104fc57600080fd5b8101908080359060200190929190505050611ccd565b005b6105406004803603602081101561052a57600080fd5b8101908080359060200190929190505050612654565b005b61054a61284f565b6040518082815260200191505060405180910390f35b61058c6004803603602081101561057657600080fd5b8101908080359060200190929190505050612855565b6040518082815260200191505060405180910390f35b6105aa612876565b604051808273ffffffffffffffffffffffffffffffffffffffff16815260200191505060405180910390f35b6105de6128a0565b005b6105e8612a2b565b604051808273ffffffffffffffffffffffffffffffffffffffff16815260200191505060405180910390f35b61061c612a51565b6040518082815260200191505060405180910390f35b61063a612a57565b604051808273ffffffffffffffffffffffffffffffffffffffff16815260200191505060405180910390f35b61069c6004803603604081101561067c57600080fd5b810190808035906020019092919080359060200190929190505050612a81565b6040518082815260200191505060405180910390f35b610708600480360360608110156106c857600080fd5b810190808035906020019092919080359060200190929190803573ffffffffffffffffffffffffffffffffffffffff169060200190929190505050612ba9565b005b6107566004803603604081101561072057600080fd5b8101908080359060200190929190803573ffffffffffffffffffffffffffffffffffffffff169060200190929190505050613121565b6040518088815260200187815260200186815260200185815260200184815260200183815260200182815260200197505050505050505060405180910390f35b61079e613170565b6040518082815260200191505060405180910390f35b6107bc613176565b6040518082815260200191505060405180910390f35b6107da61317c565b6040518082815260200191505060405180910390f35b6107f8613182565b6040518082815260200191505060405180910390f35b6108506004803603602081101561082457600080fd5b81019080803573ffffffffffffffffffffffffffffffffffffffff169060200190929190505050613188565b005b6108946004803603602081101561086857600080fd5b81019080803573ffffffffffffffffffffffffffffffffffffffff16906020019092919050505061339b565b60405180821515815260200191505060405180910390f35b6108d8600480360360208110156108c257600080fd5b81019080803590602001909291905050506133bb565b6040518082815260200191505060405180910390f35b6108f66133dc565b6040518082815260200191505060405180910390f35b6109146133e2565b604051808273ffffffffffffffffffffffffffffffffffffffff16815260200191505060405180910390f35b6109806004803603606081101561095657600080fd5b81019080803590602001909291908035906020019092919080359060200190929190505050613408565b604051808681526020018581526020018481526020018381526020018281526020019550505050505060405180910390f35b6109de600480360360208110156109c857600080fd5b810190808035906020019092919050505061368d565b6040518082815260200191505060405180910390f35b610a3660048036036020811015610a0a57600080fd5b81019080803573ffffffffffffffffffffffffffffffffffffffff1690602001909291905050506136ae565b6040518082815260200191505060405180910390f35b610a8e60048036036020811015610a6257600080fd5b81019080803573ffffffffffffffffffffffffffffffffffffffff1690602001909291905050506136c6565b005b610abc60048036036020811015610aa657600080fd5b81019080803590602001909291905050506137eb565b6040518082815260200191505060405180910390f35b610ada61380c565b604051808273ffffffffffffffffffffffffffffffffffffffff16815260200191505060405180910390f35b610b4860048036036020811015610b1c57600080fd5b81019080803573ffffffffffffffffffffffffffffffffffffffff169060200190929190505050613832565b60405180848152602001838152602001828152602001935050505060405180910390f35b610b7461385c565b604051808273ffffffffffffffffffffffffffffffffffffffff16815260200191505060405180910390f35b610ba8613882565b6040518082815260200191505060405180910390f35b610c0060048036036020811015610bd457600080fd5b81019080803573ffffffffffffffffffffffffffffffffffffffff169060200190929190505050613888565b005b60125481565b600060178481548110610c1757fe5b9060005260206000209060040201905060006019600086815260200190815260200160002060003373ffffffffffffffffffffffffffffffffffffffff1673ffffffffffffffffffffffffffffffffffffffff16815260200190815260200160002090506000601a60008573ffffffffffffffffffffffffffffffffffffffff1673ffffffffffffffffffffffffffffffffffffffff16815260200190815260200160002090506000601a60003373ffffffffffffffffffffffffffffffffffffffff1673ffffffffffffffffffffffffffffffffffffffff16815260200190815260200160002090508583600001541015610d5e576040517f08c379a000000000000000000000000000000000000000000000000000000000815260040180806020018281038252602481526020018061463f6024913960400191505060405180910390fd5b600073ffffffffffffffffffffffffffffffffffffffff168573ffffffffffffffffffffffffffffffffffffffff1614610e2b57858260010160003373ffffffffffffffffffffffffffffffffffffffff1673ffffffffffffffffffffffffffffffffffffffff16815260200190815260200160002054038260010160003373ffffffffffffffffffffffffffffffffffffffff1673ffffffffffffffffffffffffffffffffffffffff168152602001908152602001600020819055508582600301540382600301819055505b858160000154038160000181905550610e4387611ccd565b610e4c87613a98565b6000861115611a4b57610e6c868460000154613e9490919063ffffffff16565b8360000181905550600083600301541115610e9557826003015443038360050181905550610ea5565b8260040154430383600501819055505b6009600081548110610eb357fe5b906000526020600020015483600501541480610ed25750826006015443145b1561101657610f6333610f196064610f0b600b600081548110610ef157fe5b90600052602060002001548b613f1790919063ffffffff16565b613f9d90919063ffffffff16565b8660000160009054906101000a900473ffffffffffffffffffffffffffffffffffffffff1673ffffffffffffffffffffffffffffffffffffffff166140269092919063ffffffff16565b611011600260009054906101000a900473ffffffffffffffffffffffffffffffffffffffff16610fc76064610fb9600c600081548110610f9f57fe5b90600052602060002001548b613f1790919063ffffffff16565b613f9d90919063ffffffff16565b8660000160009054906101000a900473ffffffffffffffffffffffffffffffffffffffff1673ffffffffffffffffffffffffffffffffffffffff166140269092919063ffffffff16565b6119b8565b600960018154811061102457fe5b906000526020600020015483600501541015801561105e5750600a60008154811061104b57fe5b9060005260206000200154836005015411155b156111a2576110ef336110a56064611097600b60018154811061107d57fe5b90600052602060002001548b613f1790919063ffffffff16565b613f9d90919063ffffffff16565b8660000160009054906101000a900473ffffffffffffffffffffffffffffffffffffffff1673ffffffffffffffffffffffffffffffffffffffff166140269092919063ffffffff16565b61119d600260009054906101000a900473ffffffffffffffffffffffffffffffffffffffff166111536064611145600c60018154811061112b57fe5b90600052602060002001548b613f1790919063ffffffff16565b613f9d90919063ffffffff16565b8660000160009054906101000a900473ffffffffffffffffffffffffffffffffffffffff1673ffffffffffffffffffffffffffffffffffffffff166140269092919063ffffffff16565b6119b7565b60096002815481106111b057fe5b90600052602060002001548360050154101580156111ea5750600a6001815481106111d757fe5b9060005260206000200154836005015411155b1561132e5761127b336112316064611223600b60028154811061120957fe5b90600052602060002001548b613f1790919063ffffffff16565b613f9d90919063ffffffff16565b8660000160009054906101000a900473ffffffffffffffffffffffffffffffffffffffff1673ffffffffffffffffffffffffffffffffffffffff166140269092919063ffffffff16565b611329600260009054906101000a900473ffffffffffffffffffffffffffffffffffffffff166112df60646112d1600c6002815481106112b757fe5b90600052602060002001548b613f1790919063ffffffff16565b613f9d90919063ffffffff16565b8660000160009054906101000a900473ffffffffffffffffffffffffffffffffffffffff1673ffffffffffffffffffffffffffffffffffffffff166140269092919063ffffffff16565b6119b6565b600960038154811061133c57fe5b90600052602060002001548360050154101580156113765750600a60028154811061136357fe5b9060005260206000200154836005015411155b156114ba57611407336113bd60646113af600b60038154811061139557fe5b90600052602060002001548b613f1790919063ffffffff16565b613f9d90919063ffffffff16565b8660000160009054906101000a900473ffffffffffffffffffffffffffffffffffffffff1673ffffffffffffffffffffffffffffffffffffffff166140269092919063ffffffff16565b6114b5600260009054906101000a900473ffffffffffffffffffffffffffffffffffffffff1661146b606461145d600c60038154811061144357fe5b90600052602060002001548b613f1790919063ffffffff16565b613f9d90919063ffffffff16565b8660000160009054906101000a900473ffffffffffffffffffffffffffffffffffffffff1673ffffffffffffffffffffffffffffffffffffffff166140269092919063ffffffff16565b6119b5565b60096004815481106114c857fe5b90600052602060002001548360050154101580156115025750600a6003815481106114ef57fe5b9060005260206000200154836005015411155b156116465761159333611549606461153b600b60048154811061152157fe5b90600052602060002001548b613f1790919063ffffffff16565b613f9d90919063ffffffff16565b8660000160009054906101000a900473ffffffffffffffffffffffffffffffffffffffff1673ffffffffffffffffffffffffffffffffffffffff166140269092919063ffffffff16565b611641600260009054906101000a900473ffffffffffffffffffffffffffffffffffffffff166115f760646115e9600c6004815481106115cf57fe5b90600052602060002001548b613f1790919063ffffffff16565b613f9d90919063ffffffff16565b8660000160009054906101000a900473ffffffffffffffffffffffffffffffffffffffff1673ffffffffffffffffffffffffffffffffffffffff166140269092919063ffffffff16565b6119b4565b600960058154811061165457fe5b906000526020600020015483600501541015801561168e5750600a60048154811061167b57fe5b9060005260206000200154836005015411155b156117d457611720336116d66103e86116c8600b6005815481106116ae57fe5b90600052602060002001548b613f1790919063ffffffff16565b613f9d90919063ffffffff16565b8660000160009054906101000a900473ffffffffffffffffffffffffffffffffffffffff1673ffffffffffffffffffffffffffffffffffffffff166140269092919063ffffffff16565b6117cf600260009054906101000a900473ffffffffffffffffffffffffffffffffffffffff166117856103e8611777600c60058154811061175d57fe5b90600052602060002001548b613f1790919063ffffffff16565b613f9d90919063ffffffff16565b8660000160009054906101000a900473ffffffffffffffffffffffffffffffffffffffff1673ffffffffffffffffffffffffffffffffffffffff166140269092919063ffffffff16565b6119b3565b60096006815481106117e257fe5b906000526020600020015483600501541015801561181c5750600a60058154811061180957fe5b9060005260206000200154836005015411155b15611962576118ae33611864612710611856600b60068154811061183c57fe5b90600052602060002001548b613f1790919063ffffffff16565b613f9d90919063ffffffff16565b8660000160009054906101000a900473ffffffffffffffffffffffffffffffffffffffff1673ffffffffffffffffffffffffffffffffffffffff166140269092919063ffffffff16565b61195d600260009054906101000a900473ffffffffffffffffffffffffffffffffffffffff16611913612710611905600c6006815481106118eb57fe5b90600052602060002001548b613f1790919063ffffffff16565b613f9d90919063ffffffff16565b8660000160009054906101000a900473ffffffffffffffffffffffffffffffffffffffff1673ffffffffffffffffffffffffffffffffffffffff166140269092919063ffffffff16565b6119b2565b6119b133878660000160009054906101000a900473ffffffffffffffffffffffffffffffffffffffff1673ffffffffffffffffffffffffffffffffffffffff166140269092919063ffffffff16565b5b5b5b5b5b5b5b6119ea64e8d4a510006119dc86600301548660000154613f1790919063ffffffff16565b613f9d90919063ffffffff16565b8360010181905550863373ffffffffffffffffffffffffffffffffffffffff167ff279e6a1f5e320cca91135676d9cb6e44ca8a08c0b88342bcdb1144f6511b568886040518082815260200191505060405180910390a34383600301819055505b50505050505050565b60178181548110611a6157fe5b90600052602060002090600402016000915090508060000160009054906101000a900473ffffffffffffffffffffffffffffffffffffffff16908060010154908060020154908060030154905084565b601b5481565b600360009054906101000a900473ffffffffffffffffffffffffffffffffffffffff1681565b60008054906101000a900473ffffffffffffffffffffffffffffffffffffffff1681565b60078181548110611b0e57fe5b906000526020600020016000915090505481565b600f5481565b600460009054906101000a900473ffffffffffffffffffffffffffffffffffffffff1681565b60088181548110611b5b57fe5b906000526020600020016000915090505481565b611b776140c8565b73ffffffffffffffffffffffffffffffffffffffff16601c60009054906101000a900473ffffffffffffffffffffffffffffffffffffffff1673ffffffffffffffffffffffffffffffffffffffff1614611c39576040517f08c379a00000000000000000000000000000000000000000000000000000000081526004018080602001828103825260208152602001807f4f776e61626c653a2063616c6c6572206973206e6f7420746865206f776e657281525060200191505060405180910390fd5b3373ffffffffffffffffffffffffffffffffffffffff168173ffffffffffffffffffffffffffffffffffffffff161415611c7257600080fd5b6000601e60008373ffffffffffffffffffffffffffffffffffffffff1673ffffffffffffffffffffffffffffffffffffffff16815260200190815260200160002060006101000a81548160ff02191690831515021790555050565b600060178281548110611cdc57fe5b9060005260206000209060040201905080600201544311611cfd5750612651565b60008160000160009054906101000a900473ffffffffffffffffffffffffffffffffffffffff1673ffffffffffffffffffffffffffffffffffffffff166370a08231306040518263ffffffff1660e01b8152600401808273ffffffffffffffffffffffffffffffffffffffff16815260200191505060206040518083038186803b158015611d8a57600080fd5b505afa158015611d9e573d6000803e3d6000fd5b505050506040513d6020811015611db457600080fd5b810190808051906020019092919050505090506000811415611de0574382600201819055505050612651565b6000806000806000611dfb8760020154438960010154613408565b809550819650829750839850849950505050505060008054906101000a900473ffffffffffffffffffffffffffffffffffffffff1673ffffffffffffffffffffffffffffffffffffffff166340c10f1930866040518363ffffffff1660e01b8152600401808373ffffffffffffffffffffffffffffffffffffffff16815260200182815260200192505050600060405180830381600087803b158015611ea057600080fd5b505af1158015611eb4573d6000803e3d6000fd5b50505050611ef8611ee587611ed764e8d4a5100088613f1790919063ffffffff16565b613f9d90919063ffffffff16565b88600301546140d090919063ffffffff16565b876003018190555043876002018190555060008511156120d95760008054906101000a900473ffffffffffffffffffffffffffffffffffffffff1673ffffffffffffffffffffffffffffffffffffffff166340c10f19600260009054906101000a900473ffffffffffffffffffffffffffffffffffffffff16876040518363ffffffff1660e01b8152600401808373ffffffffffffffffffffffffffffffffffffffff16815260200182815260200192505050600060405180830381600087803b158015611fc557600080fd5b505af1158015611fd9573d6000803e3d6000fd5b50505050600d5443116120d85760008054906101000a900473ffffffffffffffffffffffffffffffffffffffff1673ffffffffffffffffffffffffffffffffffffffff1663282d3fdf600260009054906101000a900473ffffffffffffffffffffffffffffffffffffffff1661206c606461205e604b8b613f1790919063ffffffff16565b613f9d90919063ffffffff16565b6040518363ffffffff1660e01b8152600401808373ffffffffffffffffffffffffffffffffffffffff16815260200182815260200192505050600060405180830381600087803b1580156120bf57600080fd5b505af11580156120d3573d6000803e3d6000fd5b505050505b5b60008311156122a95760008054906101000a900473ffffffffffffffffffffffffffffffffffffffff1673ffffffffffffffffffffffffffffffffffffffff166340c10f19600360009054906101000a900473ffffffffffffffffffffffffffffffffffffffff16856040518363ffffffff1660e01b8152600401808373ffffffffffffffffffffffffffffffffffffffff16815260200182815260200192505050600060405180830381600087803b15801561219557600080fd5b505af11580156121a9573d6000803e3d6000fd5b50505050600d5443116122a85760008054906101000a900473ffffffffffffffffffffffffffffffffffffffff1673ffffffffffffffffffffffffffffffffffffffff1663282d3fdf600360009054906101000a900473ffffffffffffffffffffffffffffffffffffffff1661223c606461222e602d89613f1790919063ffffffff16565b613f9d90919063ffffffff16565b6040518363ffffffff1660e01b8152600401808373ffffffffffffffffffffffffffffffffffffffff16815260200182815260200192505050600060405180830381600087803b15801561228f57600080fd5b505af11580156122a3573d6000803e3d6000fd5b505050505b5b60008211156124795760008054906101000a900473ffffffffffffffffffffffffffffffffffffffff1673ffffffffffffffffffffffffffffffffffffffff166340c10f19600460009054906101000a900473ffffffffffffffffffffffffffffffffffffffff16846040518363ffffffff1660e01b8152600401808373ffffffffffffffffffffffffffffffffffffffff16815260200182815260200192505050600060405180830381600087803b15801561236557600080fd5b505af1158015612379573d6000803e3d6000fd5b50505050600d5443116124785760008054906101000a900473ffffffffffffffffffffffffffffffffffffffff1673ffffffffffffffffffffffffffffffffffffffff1663282d3fdf600460009054906101000a900473ffffffffffffffffffffffffffffffffffffffff1661240c60646123fe605588613f1790919063ffffffff16565b613f9d90919063ffffffff16565b6040518363ffffffff1660e01b8152600401808373ffffffffffffffffffffffffffffffffffffffff16815260200182815260200192505050600060405180830381600087803b15801561245f57600080fd5b505af1158015612473573d6000803e3d6000fd5b505050505b5b60008111156126495760008054906101000a900473ffffffffffffffffffffffffffffffffffffffff1673ffffffffffffffffffffffffffffffffffffffff166340c10f19600560009054906101000a900473ffffffffffffffffffffffffffffffffffffffff16836040518363ffffffff1660e01b8152600401808373ffffffffffffffffffffffffffffffffffffffff16815260200182815260200192505050600060405180830381600087803b15801561253557600080fd5b505af1158015612549573d6000803e3d6000fd5b50505050600d5443116126485760008054906101000a900473ffffffffffffffffffffffffffffffffffffffff1673ffffffffffffffffffffffffffffffffffffffff1663282d3fdf600560009054906101000a900473ffffffffffffffffffffffffffffffffffffffff166125dc60646125ce605f87613f1790919063ffffffff16565b613f9d90919063ffffffff16565b6040518363ffffffff1660e01b8152600401808373ffffffffffffffffffffffffffffffffffffffff16815260200182815260200192505050600060405180830381600087803b15801561262f57600080fd5b505af1158015612643573d6000803e3d6000fd5b505050505b5b505050505050505b50565b60006017828154811061266357fe5b9060005260206000209060040201905060006019600084815260200190815260200160002060003373ffffffffffffffffffffffffffffffffffffffff1673ffffffffffffffffffffffffffffffffffffffff168152602001908152602001600020905060006126f460646126e6604b8560000154613f1790919063ffffffff16565b613f9d90919063ffffffff16565b90506000612723606461271560198660000154613f1790919063ffffffff16565b613f9d90919063ffffffff16565b9050600083600001819055506000836001018190555061278833838660000160009054906101000a900473ffffffffffffffffffffffffffffffffffffffff1673ffffffffffffffffffffffffffffffffffffffff166140269092919063ffffffff16565b6127f9600260009054906101000a900473ffffffffffffffffffffffffffffffffffffffff16828660000160009054906101000a900473ffffffffffffffffffffffffffffffffffffffff1673ffffffffffffffffffffffffffffffffffffffff166140269092919063ffffffff16565b843373ffffffffffffffffffffffffffffffffffffffff167fbb757047c2b5f3974fe26b7c10f732e7bce710b0952a71082702781e62ae0595846040518082815260200191505060405180910390a35050505050565b60155481565b6009818154811061286257fe5b906000526020600020016000915090505481565b6000601d60009054906101000a900473ffffffffffffffffffffffffffffffffffffffff16905090565b6128a86140c8565b73ffffffffffffffffffffffffffffffffffffffff16601c60009054906101000a900473ffffffffffffffffffffffffffffffffffffffff1673ffffffffffffffffffffffffffffffffffffffff161461296a576040517f08c379a00000000000000000000000000000000000000000000000000000000081526004018080602001828103825260208152602001807f4f776e61626c653a2063616c6c6572206973206e6f7420746865206f776e657281525060200191505060405180910390fd5b600073ffffffffffffffffffffffffffffffffffffffff16601c60009054906101000a900473ffffffffffffffffffffffffffffffffffffffff1673ffffffffffffffffffffffffffffffffffffffff167f8be0079c531659141344cd1fd0a4f28419497f9722a3daafe3b4186f6b6457e060405160405180910390a36000601c60006101000a81548173ffffffffffffffffffffffffffffffffffffffff021916908373ffffffffffffffffffffffffffffffffffffffff160217905550565b601660009054906101000a900473ffffffffffffffffffffffffffffffffffffffff1681565b600e5481565b6000601c60009054906101000a900473ffffffffffffffffffffffffffffffffffffffff16905090565b60008060009050600f54841015612a9c576000915050612ba3565b60005b600880549050811015612b9d57600060088281548110612abb57fe5b90600052602060002001549050808511612b2d576000612b0d60078481548110612ae157fe5b9060005260206000200154612aff8989613e9490919063ffffffff16565b613f1790919063ffffffff16565b9050612b2281856140d090919063ffffffff16565b945050505050612ba3565b80861015612b8f576000612b7360078481548110612b4757fe5b9060005260206000200154612b658985613e9490919063ffffffff16565b613f1790919063ffffffff16565b9050819650612b8b81856140d090919063ffffffff16565b9350505b508080600101915050612a9f565b50809150505b92915050565b60008211612c02576040517f08c379a00000000000000000000000000000000000000000000000000000000081526004018080602001828103825260388152602001806146b66038913960400191505060405180910390fd5b600060178481548110612c1157fe5b9060005260206000209060040201905060006019600086815260200190815260200160002060003373ffffffffffffffffffffffffffffffffffffffff1673ffffffffffffffffffffffffffffffffffffffff16815260200190815260200160002090506000601960008781526020019081526020016000206000600260009054906101000a900473ffffffffffffffffffffffffffffffffffffffff1673ffffffffffffffffffffffffffffffffffffffff1673ffffffffffffffffffffffffffffffffffffffff16815260200190815260200160002090506000601a60008673ffffffffffffffffffffffffffffffffffffffff1673ffffffffffffffffffffffffffffffffffffffff16815260200190815260200160002090506000601a60003373ffffffffffffffffffffffffffffffffffffffff1673ffffffffffffffffffffffffffffffffffffffff168152602001908152602001600020905060008260010160003373ffffffffffffffffffffffffffffffffffffffff1673ffffffffffffffffffffffffffffffffffffffff168152602001908152602001600020541115612e5857868260010160003373ffffffffffffffffffffffffffffffffffffffff1673ffffffffffffffffffffffffffffffffffffffff16815260200190815260200160002054018260010160003373ffffffffffffffffffffffffffffffffffffffff1673ffffffffffffffffffffffffffffffffffffffff16815260200190815260200160002081905550868260030154018260030181905550612f01565b868260010160003373ffffffffffffffffffffffffffffffffffffffff1673ffffffffffffffffffffffffffffffffffffffff16815260200190815260200160002054018260010160003373ffffffffffffffffffffffffffffffffffffffff1673ffffffffffffffffffffffffffffffffffffffff16815260200190815260200160002081905550600182600201540182600201819055508682600301540182600301819055505b612f296064612f1b600e548a613f1790919063ffffffff16565b613f9d90919063ffffffff16565b8160000154018160000181905550612f4088611ccd565b612f4988613a98565b612f9a3330898860000160009054906101000a900473ffffffffffffffffffffffffffffffffffffffff1673ffffffffffffffffffffffffffffffffffffffff16614158909392919063ffffffff16565b600084600001541415612fb1574384600201819055505b6000612fdc612710612fce600e548b613f1790919063ffffffff16565b613f9d90919063ffffffff16565b9050613007612ff4828a613e9490919063ffffffff16565b86600001546140d090919063ffffffff16565b85600001819055506130268185600001546140d090919063ffffffff16565b846000018190555061306064e8d4a5100061305288600301548860000154613f1790919063ffffffff16565b613f9d90919063ffffffff16565b856001018190555061309a64e8d4a5100061308c88600301548760000154613f1790919063ffffffff16565b613f9d90919063ffffffff16565b8460010181905550883373ffffffffffffffffffffffffffffffffffffffff167f90890809c654f11d6e72a28fa60149770a0d11ec6c92319d6ceb2bb0a4ea1a158a6040518082815260200191505060405180910390a36000856004015411156131035761310d565b4385600401819055505b438560060181905550505050505050505050565b6019602052816000526040600020602052806000526040600020600091509150508060000154908060010154908060020154908060030154908060040154908060050154908060060154905087565b60105481565b60065481565b600d5481565b60135481565b6131906140c8565b73ffffffffffffffffffffffffffffffffffffffff16601d60009054906101000a900473ffffffffffffffffffffffffffffffffffffffff1673ffffffffffffffffffffffffffffffffffffffff1614613235576040517f08c379a00000000000000000000000000000000000000000000000000000000081526004018080602001828103825260298152602001806146636029913960400191505060405180910390fd5b601d60009054906101000a900473ffffffffffffffffffffffffffffffffffffffff1673ffffffffffffffffffffffffffffffffffffffff168173ffffffffffffffffffffffffffffffffffffffff16146132db576040517f08c379a00000000000000000000000000000000000000000000000000000000081526004018080602001828103825260298152602001806145f56029913960400191505060405180910390fd5b8073ffffffffffffffffffffffffffffffffffffffff16601c60009054906101000a900473ffffffffffffffffffffffffffffffffffffffff1673ffffffffffffffffffffffffffffffffffffffff167f8be0079c531659141344cd1fd0a4f28419497f9722a3daafe3b4186f6b6457e060405160405180910390a380601c60006101000a81548173ffffffffffffffffffffffffffffffffffffffff021916908373ffffffffffffffffffffffffffffffffffffffff16021790555050565b601e6020528060005260406000206000915054906101000a900460ff1681565b600c81815481106133c857fe5b906000526020600020016000915090505481565b60145481565b600160009054906101000a900473ffffffffffffffffffffffffffffffffffffffff1681565b60008060008060008061341b8989612a81565b9050600061345a601b5461344c8a61343e60065487613f1790919063ffffffff16565b613f1790919063ffffffff16565b613f9d90919063ffffffff16565b905060006135b160008054906101000a900473ffffffffffffffffffffffffffffffffffffffff1673ffffffffffffffffffffffffffffffffffffffff166318160ddd6040518163ffffffff1660e01b815260040160206040518083038186803b1580156134c757600080fd5b505afa1580156134db573d6000803e3d6000fd5b505050506040513d60208110156134f157600080fd5b810190808051906020019092919050505060008054906101000a900473ffffffffffffffffffffffffffffffffffffffff1673ffffffffffffffffffffffffffffffffffffffff1663355274ea6040518163ffffffff1660e01b815260040160206040518083038186803b15801561356857600080fd5b505afa15801561357c573d6000803e3d6000fd5b505050506040513d602081101561359257600080fd5b8101908080519060200190929190505050613e9490919063ffffffff16565b9050818110156135d3576000975080965060009550600094506000935061367f565b6135fb60646135ed60115485613f1790919063ffffffff16565b613f9d90919063ffffffff16565b9750819650613628606461361a60125485613f1790919063ffffffff16565b613f9d90919063ffffffff16565b9550613652606461364460135485613f1790919063ffffffff16565b613f9d90919063ffffffff16565b945061367c606461366e60145485613f1790919063ffffffff16565b613f9d90919063ffffffff16565b93505b505050939792965093509350565b600a818154811061369a57fe5b906000526020600020016000915090505481565b60186020528060005260406000206000915090505481565b6136ce6140c8565b73ffffffffffffffffffffffffffffffffffffffff16601c60009054906101000a900473ffffffffffffffffffffffffffffffffffffffff1673ffffffffffffffffffffffffffffffffffffffff1614613790576040517f08c379a00000000000000000000000000000000000000000000000000000000081526004018080602001828103825260208152602001807f4f776e61626c653a2063616c6c6572206973206e6f7420746865206f776e657281525060200191505060405180910390fd5b6001601e60008373ffffffffffffffffffffffffffffffffffffffff1673ffffffffffffffffffffffffffffffffffffffff16815260200190815260200160002060006101000a81548160ff02191690831515021790555050565b600b81815481106137f857fe5b906000526020600020016000915090505481565b600260009054906101000a900473ffffffffffffffffffffffffffffffffffffffff1681565b601a6020528060005260406000206000915090508060000154908060020154908060030154905083565b600560009054906101000a900473ffffffffffffffffffffffffffffffffffffffff1681565b60115481565b6138906140c8565b73ffffffffffffffffffffffffffffffffffffffff16601c60009054906101000a900473ffffffffffffffffffffffffffffffffffffffff1673ffffffffffffffffffffffffffffffffffffffff1614613952576040517f08c379a00000000000000000000000000000000000000000000000000000000081526004018080602001828103825260208152602001807f4f776e61626c653a2063616c6c6572206973206e6f7420746865206f776e657281525060200191505060405180910390fd5b600073ffffffffffffffffffffffffffffffffffffffff168173ffffffffffffffffffffffffffffffffffffffff1614156139d8576040517f08c379a00000000000000000000000000000000000000000000000000000000081526004018080602001828103825260268152602001806145a96026913960400191505060405180910390fd5b8073ffffffffffffffffffffffffffffffffffffffff16601c60009054906101000a900473ffffffffffffffffffffffffffffffffffffffff1673ffffffffffffffffffffffffffffffffffffffff167f8be0079c531659141344cd1fd0a4f28419497f9722a3daafe3b4186f6b6457e060405160405180910390a380601c60006101000a81548173ffffffffffffffffffffffffffffffffffffffff021916908373ffffffffffffffffffffffffffffffffffffffff16021790555050565b600060178281548110613aa757fe5b9060005260206000209060040201905060006019600084815260200190815260200160002060003373ffffffffffffffffffffffffffffffffffffffff1673ffffffffffffffffffffffffffffffffffffffff1681526020019081526020016000209050600081600001541115613e8f576000613b628260010154613b5464e8d4a51000613b4687600301548760000154613f1790919063ffffffff16565b613f9d90919063ffffffff16565b613e9490919063ffffffff16565b905060008060009054906101000a900473ffffffffffffffffffffffffffffffffffffffff1673ffffffffffffffffffffffffffffffffffffffff166370a08231306040518263ffffffff1660e01b8152600401808273ffffffffffffffffffffffffffffffffffffffff16815260200191505060206040518083038186803b158015613bee57600080fd5b505afa158015613c02573d6000803e3d6000fd5b505050506040513d6020811015613c1857600080fd5b8101908080519060200190929190505050905080821115613c37578091505b6000821115613e525760008054906101000a900473ffffffffffffffffffffffffffffffffffffffff1673ffffffffffffffffffffffffffffffffffffffff1663a9059cbb33846040518363ffffffff1660e01b8152600401808373ffffffffffffffffffffffffffffffffffffffff16815260200182815260200192505050602060405180830381600087803b158015613cd157600080fd5b505af1158015613ce5573d6000803e3d6000fd5b505050506040513d6020811015613cfb57600080fd5b8101908080519060200190929190505050506000600d54846002015411613df057613d446064613d3660105486613f1790919063ffffffff16565b613f9d90919063ffffffff16565b905060008054906101000a900473ffffffffffffffffffffffffffffffffffffffff1673ffffffffffffffffffffffffffffffffffffffff1663282d3fdf33836040518363ffffffff1660e01b8152600401808373ffffffffffffffffffffffffffffffffffffffff16815260200182815260200192505050600060405180830381600087803b158015613dd757600080fd5b505af1158015613deb573d6000803e3d6000fd5b505050505b438460020181905550853373ffffffffffffffffffffffffffffffffffffffff167f26d323712a1b961bf0f3352c8f3fd8663a97a892cf4fde67fb6d8597275882538584604051808381526020018281526020019250505060405180910390a3505b613e8464e8d4a51000613e7686600301548660000154613f1790919063ffffffff16565b613f9d90919063ffffffff16565b836001018190555050505b505050565b600082821115613f0c576040517f08c379a000000000000000000000000000000000000000000000000000000000815260040180806020018281038252601e8152602001807f536166654d6174683a207375627472616374696f6e206f766572666c6f77000081525060200191505060405180910390fd5b818303905092915050565b600080831415613f2a5760009050613f97565b6000828402905082848281613f3b57fe5b0414613f92576040517f08c379a000000000000000000000000000000000000000000000000000000000815260040180806020018281038252602181526020018061461e6021913960400191505060405180910390fd5b809150505b92915050565b6000808211614014576040517f08c379a000000000000000000000000000000000000000000000000000000000815260040180806020018281038252601a8152602001807f536166654d6174683a206469766973696f6e206279207a65726f00000000000081525060200191505060405180910390fd5b81838161401d57fe5b04905092915050565b6140c38363a9059cbb60e01b8484604051602401808373ffffffffffffffffffffffffffffffffffffffff16815260200182815260200192505050604051602081830303815290604052907bffffffffffffffffffffffffffffffffffffffffffffffffffffffff19166020820180517bffffffffffffffffffffffffffffffffffffffffffffffffffffffff8381831617835250505050614219565b505050565b600033905090565b60008082840190508381101561414e576040517f08c379a000000000000000000000000000000000000000000000000000000000815260040180806020018281038252601b8152602001807f536166654d6174683a206164646974696f6e206f766572666c6f77000000000081525060200191505060405180910390fd5b8091505092915050565b614213846323b872dd60e01b858585604051602401808473ffffffffffffffffffffffffffffffffffffffff1681526020018373ffffffffffffffffffffffffffffffffffffffff1681526020018281526020019350505050604051602081830303815290604052907bffffffffffffffffffffffffffffffffffffffffffffffffffffffff19166020820180517bffffffffffffffffffffffffffffffffffffffffffffffffffffffff8381831617835250505050614219565b50505050565b606061427b826040518060400160405280602081526020017f5361666545524332303a206c6f772d6c6576656c2063616c6c206661696c65648152508573ffffffffffffffffffffffffffffffffffffffff166143089092919063ffffffff16565b90506000815111156143035780806020019051602081101561429c57600080fd5b8101908080519060200190929190505050614302576040517f08c379a000000000000000000000000000000000000000000000000000000000815260040180806020018281038252602a81526020018061468c602a913960400191505060405180910390fd5b5b505050565b60606143178484600085614320565b90509392505050565b60608247101561437b576040517f08c379a00000000000000000000000000000000000000000000000000000000081526004018080602001828103825260268152602001806145cf6026913960400191505060405180910390fd5b614384856144c9565b6143f6576040517f08c379a000000000000000000000000000000000000000000000000000000000815260040180806020018281038252601d8152602001807f416464726573733a2063616c6c20746f206e6f6e2d636f6e747261637400000081525060200191505060405180910390fd5b600060608673ffffffffffffffffffffffffffffffffffffffff1685876040518082805190602001908083835b602083106144465780518252602082019150602081019050602083039250614423565b6001836020036101000a03801982511681845116808217855250505050505090500191505060006040518083038185875af1925050503d80600081146144a8576040519150601f19603f3d011682016040523d82523d6000602084013e6144ad565b606091505b50915091506144bd8282866144dc565b92505050949350505050565b600080823b905060008111915050919050565b606083156144ec578290506145a1565b6000835111156144ff5782518084602001fd5b816040517f08c379a00000000000000000000000000000000000000000000000000000000081526004018080602001828103825283818151815260200191508051906020019080838360005b8381101561456657808201518184015260208101905061454b565b50505050905090810190601f1680156145935780820380516001836020036101000a031916815260200191505b509250505060405180910390fd5b939250505056fe4f776e61626c653a206e6577206f776e657220697320746865207a65726f2061646472657373416464726573733a20696e73756666696369656e742062616c616e636520666f722063616c6c4f776e61626c653a206e6577206f776e6572206d7573742062652070726576696f7573206f776e6572536166654d6174683a206d756c7469706c69636174696f6e206f766572666c6f77517569634d61737465724661726d65723a3a77697468647261773a206e6f7420676f6f644f776e61626c653a2063616c6c6572206973206e6f74207468652070726576696f7573206f776e65725361666545524332303a204552433230206f7065726174696f6e20646964206e6f742073756363656564517569634d61737465724661726d65723a3a6465706f7369743a20616d6f756e74206d7573742062652067726561746572207468616e2030a26469706673582212207b75c772a253d66e566bb8f2c95729023a1924a188953d1fc9ceb374b310567064736f6c634300060c0033",
  "immutableReferences": {},
  "source": "// SPDX-License-Identifier: MIT\npragma solidity 0.6.12;\n\nimport \"./QuicMasterStorage.sol\";\n\ncontract QuicMasterTransactions is QuicMasterStorage,  Ownable, Authorizable {\n    using SafeMath for uint256;\n    using SafeERC20 for IERC20;\n\n    \n    // |--------------------------------------|\n    // [20, 30, 40, 50, 60, 70, 80, 99999999]\n    // Return reward multiplier over the given _from to _to block.\n    function getMultiplier(uint256 _from, uint256 _to) public view returns (uint256) {\n        uint256 result = 0;\n        if (_from < START_BLOCK) return 0;\n\n        for (uint256 i = 0; i < HALVING_AT_BLOCK.length; i++) {\n            uint256 endBlock = HALVING_AT_BLOCK[i];\n\n            if (_to <= endBlock) {\n                uint256 m = _to.sub(_from).mul(REWARD_MULTIPLIER[i]);\n                return result.add(m);\n            }\n\n            if (_from < endBlock) {\n                uint256 m = endBlock.sub(_from).mul(REWARD_MULTIPLIER[i]);\n                _from = endBlock;\n                result = result.add(m);\n            }\n        }\n\n        return result;\n    }\n\n    function getPoolReward(uint256 _from, uint256 _to, uint256 _allocPoint) public view returns (uint256 forDev, uint256 forFarmer, uint256 forLP, uint256 forCom, uint256 forFounders) {\n        uint256 multiplier = getMultiplier(_from, _to);\n        uint256 amount = multiplier.mul(REWARD_PER_BLOCK).mul(_allocPoint).div(totalAllocPoint);\n        uint256 QuicCanMint = Quic.cap().sub(Quic.totalSupply());\n\n        if (QuicCanMint < amount) {\n            forDev = 0;\n\t\t\tforFarmer = QuicCanMint;\n\t\t\tforLP = 0;\n\t\t\tforCom = 0;\n\t\t\tforFounders = 0;\n        }\n        else {\n            forDev = amount.mul(PERCENT_FOR_DEV).div(100);\n\t\t\tforFarmer = amount;\n\t\t\tforLP = amount.mul(PERCENT_FOR_LP).div(100);\n\t\t\tforCom = amount.mul(PERCENT_FOR_COM).div(100);\n\t\t\tforFounders = amount.mul(PERCENT_FOR_FOUNDERS).div(100);\n        }\n    }\n\n   // Update reward variables of the given pool to be up-to-date.\n    function updatePool(uint256 _pid) public {\n        PoolInfo storage pool = poolInfo[_pid];\n        if (block.number <= pool.lastRewardBlock) {\n            return;\n        }\n        uint256 lpSupply = pool.lpToken.balanceOf(address(this));\n        if (lpSupply == 0) {\n            pool.lastRewardBlock = block.number;\n            return;\n        }\n        uint256 QuicForDev;\n        uint256 QuicForFarmer;\n\t\tuint256 QuicForLP;\n\t\tuint256 QuicForCom;\n\t\tuint256 QuicForFounders;\n        (QuicForDev, QuicForFarmer, QuicForLP, QuicForCom, QuicForFounders) = getPoolReward(pool.lastRewardBlock, block.number, pool.allocPoint);\n        Quic.mint(address(this), QuicForFarmer);\n        pool.accQuicPerShare = pool.accQuicPerShare.add(QuicForFarmer.mul(1e12).div(lpSupply));\n        pool.lastRewardBlock = block.number;\n        if (QuicForDev > 0) {\n            Quic.mint(address(devaddr), QuicForDev);\n            //Dev fund has xx% locked during the starting bonus period. After which locked funds drip out linearly each block over 3 years.\n            if (block.number <= FINISH_BONUS_AT_BLOCK) {\n                Quic.lock(address(devaddr), QuicForDev.mul(75).div(100));\n            }\n        }\n\t\tif (QuicForLP > 0) {\n            Quic.mint(liquidityaddr, QuicForLP);\n\t\t\t//LP + Partnership fund has only xx% locked over time as most of it is needed early on for incentives and listings. The locked amount will drip out linearly each block after the bonus period.\n\t\t\tif (block.number <= FINISH_BONUS_AT_BLOCK) {\n                Quic.lock(address(liquidityaddr), QuicForLP.mul(45).div(100));\n            }\n        }\n\t\tif (QuicForCom > 0) {\n            Quic.mint(comfundaddr, QuicForCom);\n\t\t\t//Community Fund has xx% locked during bonus period and then drips out linearly over 3 years.\n            if (block.number <= FINISH_BONUS_AT_BLOCK) {\n                Quic.lock(address(comfundaddr), QuicForCom.mul(85).div(100));\n            }\n        }\n\t\tif (QuicForFounders > 0) {\n            Quic.mint(founderaddr, QuicForFounders);\n\t\t\t//The Founders reward has xx% of their funds locked during the bonus period which then drip out linearly per block over 3 years.\n\t\t\tif (block.number <= FINISH_BONUS_AT_BLOCK) {\n                Quic.lock(address(founderaddr), QuicForFounders.mul(95).div(100));\n            }\n        }\n        \n    }\n\n    // lock 85% of reward if it come from bounus time\n    function _harvest(uint256 _pid) internal {\n        PoolInfo storage pool = poolInfo[_pid];\n        UserInfo storage user = userInfo[_pid][msg.sender];\n\n        if (user.amount > 0) {\n            uint256 pending = user.amount.mul(pool.accQuicPerShare).div(1e12).sub(user.rewardDebt);\n            uint256 masterBal = Quic.balanceOf(address(this));\n\n            if (pending > masterBal) {\n                pending = masterBal;\n            }\n            \n            if(pending > 0) {\n                Quic.transfer(msg.sender, pending);\n                uint256 lockAmount = 0;\n                if (user.rewardDebtAtBlock <= FINISH_BONUS_AT_BLOCK) {\n                    lockAmount = pending.mul(PERCENT_LOCK_BONUS_REWARD).div(100);\n                    Quic.lock(msg.sender, lockAmount);\n                }\n\n                user.rewardDebtAtBlock = block.number;\n\n                emit SendQuicReward(msg.sender, _pid, pending, lockAmount);\n            }\n\n            user.rewardDebt = user.amount.mul(pool.accQuicPerShare).div(1e12);\n        }\n    }\n\n\n\n    \n    // Deposit LP tokens to QuicMasterFarmer for $QUIC allocation.\n    function deposit(uint256 _pid, uint256 _amount, address _ref) public {\n        require(_amount > 0, \"QuicMasterFarmer::deposit: amount must be greater than 0\");\n\n        PoolInfo storage pool = poolInfo[_pid];\n        UserInfo storage user = userInfo[_pid][msg.sender];\n        UserInfo storage devr = userInfo[_pid][devaddr];\n        UserGlobalInfo storage refer = userGlobalInfo[_ref];\n        UserGlobalInfo storage current = userGlobalInfo[msg.sender];\n        \n        if(refer.referrals[msg.sender] > 0){\n            refer.referrals[msg.sender] = refer.referrals[msg.sender] + _amount;\n            refer.globalRefAmount = refer.globalRefAmount + _amount;\n        } else {\n            refer.referrals[msg.sender] = refer.referrals[msg.sender] + _amount;\n            refer.totalReferals = refer.totalReferals + 1;\n            refer.globalRefAmount = refer.globalRefAmount + _amount;\n        }\n\n        current.globalAmount = current.globalAmount + _amount.mul(userDepFee).div(100);\n        \n        updatePool(_pid);\n        _harvest(_pid);\n        pool.lpToken.safeTransferFrom(address(msg.sender), address(this), _amount);\n        if (user.amount == 0) {\n            user.rewardDebtAtBlock = block.number;\n        }\n        // User amount is the amount deposited and deposit fee is reduced from the user and added\n        // to the dev\n        uint256 depositFee = _amount.mul(userDepFee).div(10000);\n        //Add the Amount less the depositFee to the user\n        user.amount = user.amount.add(_amount.sub(depositFee));\n        // Ad the depositFee to the Dev\n        devr.amount = devr.amount.add(depositFee);\n        user.rewardDebt = user.amount.mul(pool.accQuicPerShare).div(1e12);\n        devr.rewardDebt = devr.amount.mul(pool.accQuicPerShare).div(1e12);\n        emit Deposit(msg.sender, _pid, _amount);\n\t\tif(user.firstDepositBlock > 0){\n\t\t} else {\n\t\t\tuser.firstDepositBlock = block.number;\n\t\t}\n\t\tuser.lastDepositBlock = block.number;\n    }\n    \n  // Withdraw LP tokens from QuicMasterFarmer.\n    function withdraw(uint256 _pid, uint256 _amount, address _ref) public {\n        PoolInfo storage pool = poolInfo[_pid];\n        UserInfo storage user = userInfo[_pid][msg.sender];\n        UserGlobalInfo storage refer = userGlobalInfo[_ref];\n        UserGlobalInfo storage current = userGlobalInfo[msg.sender];\n        require(user.amount >= _amount, \"QuicMasterFarmer::withdraw: not good\");\n        if(_ref != address(0)){\n                refer.referrals[msg.sender] = refer.referrals[msg.sender] - _amount;\n                refer.globalRefAmount = refer.globalRefAmount - _amount;\n            }\n        current.globalAmount = current.globalAmount - _amount;\n        \n        updatePool(_pid);\n        _harvest(_pid);\n\n        if(_amount > 0) {\n            user.amount = user.amount.sub(_amount);\n\t\t\tif(user.lastWithdrawBlock > 0){\n\t\t\t\tuser.blockdelta = block.number - user.lastWithdrawBlock; }\n\t\t\telse {\n\t\t\t\tuser.blockdelta = block.number - user.firstDepositBlock;\n\t\t\t}\n\t\t\tif(user.blockdelta == blockDeltaStartStage[0] || block.number == user.lastDepositBlock){\n\t\t\t\t//25% fee for withdrawals of LP tokens in the same block this is to prevent abuse from flashloans\n\t\t\t\tpool.lpToken.safeTransfer(address(msg.sender), _amount.mul(userFeeStage[0]).div(100));\n\t\t\t\tpool.lpToken.safeTransfer(address(devaddr), _amount.mul(devFeeStage[0]).div(100));\n\t\t\t} else if (user.blockdelta >= blockDeltaStartStage[1] && user.blockdelta <= blockDeltaEndStage[0]){\n\t\t\t\t//8% fee if a user deposits and withdraws in under between same block and 59 minutes.\n\t\t\t\tpool.lpToken.safeTransfer(address(msg.sender), _amount.mul(userFeeStage[1]).div(100));\n\t\t\t\tpool.lpToken.safeTransfer(address(devaddr), _amount.mul(devFeeStage[1]).div(100));\n\t\t\t} else if (user.blockdelta >= blockDeltaStartStage[2] && user.blockdelta <= blockDeltaEndStage[1]){\n\t\t\t\t//4% fee if a user deposits and withdraws after 1 hour but before 1 day.\n\t\t\t\tpool.lpToken.safeTransfer(address(msg.sender), _amount.mul(userFeeStage[2]).div(100));\n\t\t\t\tpool.lpToken.safeTransfer(address(devaddr), _amount.mul(devFeeStage[2]).div(100));\n\t\t\t} else if (user.blockdelta >= blockDeltaStartStage[3] && user.blockdelta <= blockDeltaEndStage[2]){\n\t\t\t\t//2% fee if a user deposits and withdraws between after 1 day but before 3 days.\n\t\t\t\tpool.lpToken.safeTransfer(address(msg.sender), _amount.mul(userFeeStage[3]).div(100));\n\t\t\t\tpool.lpToken.safeTransfer(address(devaddr), _amount.mul(devFeeStage[3]).div(100));\n\t\t\t} else if (user.blockdelta >= blockDeltaStartStage[4] && user.blockdelta <= blockDeltaEndStage[3]){\n\t\t\t\t//1% fee if a user deposits and withdraws after 3 days but before 5 days.\n\t\t\t\tpool.lpToken.safeTransfer(address(msg.sender), _amount.mul(userFeeStage[4]).div(100));\n\t\t\t\tpool.lpToken.safeTransfer(address(devaddr), _amount.mul(devFeeStage[4]).div(100));\n\t\t\t}  else if (user.blockdelta >= blockDeltaStartStage[5] && user.blockdelta <= blockDeltaEndStage[4]){\n\t\t\t\t//0.5% fee if a user deposits and withdraws if the user withdraws after 5 days but before 2 weeks.\n\t\t\t\tpool.lpToken.safeTransfer(address(msg.sender), _amount.mul(userFeeStage[5]).div(1000));\n\t\t\t\tpool.lpToken.safeTransfer(address(devaddr), _amount.mul(devFeeStage[5]).div(1000));\n\t\t\t} else if (user.blockdelta >= blockDeltaStartStage[6] && user.blockdelta <= blockDeltaEndStage[5]){\n\t\t\t\t//0.25% fee if a user deposits and withdraws after 2 weeks.\n\t\t\t\tpool.lpToken.safeTransfer(address(msg.sender), _amount.mul(userFeeStage[6]).div(10000));\n\t\t\t\tpool.lpToken.safeTransfer(address(devaddr), _amount.mul(devFeeStage[6]).div(10000));\n\t\t\t} else {\n\t\t\t\t//0.0% fee if a user deposits and withdraws after 4 weeks.\n\t\t\t\tpool.lpToken.safeTransfer(address(msg.sender), _amount);\n\t\t\t}\n            user.rewardDebt = user.amount.mul(pool.accQuicPerShare).div(1e12);\n            emit Withdraw(msg.sender, _pid, _amount);\n            user.lastWithdrawBlock = block.number;\n        }   \n    }\n\n\n    // Withdraw without caring about rewards. EMERGENCY ONLY. This has the same 25% fee as same block withdrawals to prevent abuse of thisfunction.\n    function emergencyWithdraw(uint256 _pid) public {\n        PoolInfo storage pool = poolInfo[_pid];\n        UserInfo storage user = userInfo[_pid][msg.sender];\n        //reordered from Sushi function to prevent risk of reentrancy\n        uint256 amountToSend = user.amount.mul(75).div(100);\n        uint256 devToSend = user.amount.mul(25).div(100);\n        user.amount = 0;\n        user.rewardDebt = 0;\n        pool.lpToken.safeTransfer(address(msg.sender), amountToSend);\n        pool.lpToken.safeTransfer(address(devaddr), devToSend);\n        emit EmergencyWithdraw(msg.sender, _pid, amountToSend);\n\n    }\n\n    // Safe Quic transfer function, just in case if rounding error causes pool to not have enough Quic.\n    function safeQuicTransfer(address _to, uint256 _amount) internal {\n        uint256 QuicBal = Quic.balanceOf(address(this));\n        if (_amount > QuicBal) {\n            Quic.transfer(_to, QuicBal);\n        } else {\n            Quic.transfer(_to, _amount);\n        }\n    }\n}",
  "sourcePath": "/Users/mark.wagner/Dropbox/projects/quic.finance/contracts/QuicMasterTransactions.sol",
  "compiler": {
    "name": "solc",
    "version": "0.6.12+commit.27d51765.Emscripten.clang"
  },
  "schemaVersion": "3.3.4",
  "updatedAt": "2021-05-13T19:31:39.444Z",
  "networkType": "ethereum",
  "devdoc": {
    "kind": "dev",
    "methods": {
      "owner()": {
        "details": "Returns the address of the current owner."
      },
      "previousOwner()": {
        "details": "Returns the address of the previous owner."
      },
      "renounceOwnership()": {
        "details": "Leaves the contract without owner. It will not be possible to call `onlyOwner` functions anymore. Can only be called by the current owner. NOTE: Renouncing ownership will leave the contract without an owner, thereby removing any functionality that is only available to the owner."
      },
      "transferOwnership(address)": {
        "details": "Transfers ownership of the contract to a new account (`newOwner`). Can only be called by the current owner."
      }
    },
    "version": 1
  },
  "userdoc": {
    "kind": "user",
    "methods": {},
    "version": 1
  }
}